{
  "contractName": "Market",
  "abi": [
    {
      "inputs": [
        {
          "internalType": "address",
          "name": "admin_",
          "type": "address"
        },
        {
          "internalType": "address payable",
          "name": "platform_",
          "type": "address"
        }
      ],
      "stateMutability": "nonpayable",
      "type": "constructor"
    },
    {
      "anonymous": false,
      "inputs": [
        {
          "indexed": true,
          "internalType": "address",
          "name": "owner",
          "type": "address"
        },
        {
          "indexed": true,
          "internalType": "address",
          "name": "approved",
          "type": "address"
        },
        {
          "indexed": true,
          "internalType": "uint256",
          "name": "tokenId",
          "type": "uint256"
        }
      ],
      "name": "Approval",
      "type": "event"
    },
    {
      "anonymous": false,
      "inputs": [
        {
          "indexed": true,
          "internalType": "address",
          "name": "owner",
          "type": "address"
        },
        {
          "indexed": true,
          "internalType": "address",
          "name": "operator",
          "type": "address"
        },
        {
          "indexed": false,
          "internalType": "bool",
          "name": "approved",
          "type": "bool"
        }
      ],
      "name": "ApprovalForAll",
      "type": "event"
    },
    {
      "anonymous": false,
      "inputs": [
        {
          "indexed": false,
          "internalType": "uint256",
          "name": "tokenId",
          "type": "uint256"
        },
        {
          "indexed": true,
          "internalType": "address",
          "name": "from",
          "type": "address"
        },
        {
          "indexed": false,
          "internalType": "uint256",
          "name": "timestamp",
          "type": "uint256"
        }
      ],
      "name": "Cancellation",
      "type": "event"
    },
    {
      "anonymous": false,
      "inputs": [
        {
          "indexed": false,
          "internalType": "uint256",
          "name": "tokenId",
          "type": "uint256"
        },
        {
          "indexed": true,
          "internalType": "address",
          "name": "from",
          "type": "address"
        },
        {
          "indexed": false,
          "internalType": "uint256",
          "name": "oldPrice",
          "type": "uint256"
        },
        {
          "indexed": false,
          "internalType": "uint256",
          "name": "newPrice",
          "type": "uint256"
        },
        {
          "indexed": false,
          "internalType": "uint256",
          "name": "timestamp",
          "type": "uint256"
        }
      ],
      "name": "Edit",
      "type": "event"
    },
    {
      "anonymous": false,
      "inputs": [
        {
          "indexed": false,
          "internalType": "uint256",
          "name": "tokenId",
          "type": "uint256"
        },
        {
          "indexed": true,
          "internalType": "address",
          "name": "from",
          "type": "address"
        },
        {
          "indexed": false,
          "internalType": "uint256",
          "name": "price",
          "type": "uint256"
        },
        {
          "indexed": false,
          "internalType": "uint256",
          "name": "timestamp",
          "type": "uint256"
        }
      ],
      "name": "Listing",
      "type": "event"
    },
    {
      "anonymous": false,
      "inputs": [
        {
          "indexed": false,
          "internalType": "uint256",
          "name": "tokenId",
          "type": "uint256"
        },
        {
          "indexed": true,
          "internalType": "address",
          "name": "creator",
          "type": "address"
        },
        {
          "indexed": false,
          "internalType": "string",
          "name": "tokenURI",
          "type": "string"
        },
        {
          "indexed": false,
          "internalType": "uint256",
          "name": "timestamp",
          "type": "uint256"
        }
      ],
      "name": "Mint",
      "type": "event"
    },
    {
      "anonymous": false,
      "inputs": [
        {
          "indexed": false,
          "internalType": "uint256",
          "name": "tokenId",
          "type": "uint256"
        },
        {
          "indexed": true,
          "internalType": "address",
          "name": "buyer",
          "type": "address"
        },
        {
          "indexed": true,
          "internalType": "address",
          "name": "seller",
          "type": "address"
        },
        {
          "indexed": false,
          "internalType": "uint256",
          "name": "price",
          "type": "uint256"
        },
        {
          "indexed": false,
          "internalType": "uint256",
          "name": "timestamp",
          "type": "uint256"
        }
      ],
      "name": "Purchase",
      "type": "event"
    },
    {
      "anonymous": false,
      "inputs": [
        {
          "indexed": true,
          "internalType": "address",
          "name": "from",
          "type": "address"
        },
        {
          "indexed": true,
          "internalType": "address",
          "name": "to",
          "type": "address"
        },
        {
          "indexed": true,
          "internalType": "uint256",
          "name": "tokenId",
          "type": "uint256"
        }
      ],
      "name": "Transfer",
      "type": "event"
    },
    {
      "inputs": [
        {
          "internalType": "address",
          "name": "owner",
          "type": "address"
        }
      ],
      "name": "balanceOf",
      "outputs": [
        {
          "internalType": "uint256",
          "name": "",
          "type": "uint256"
        }
      ],
      "stateMutability": "view",
      "type": "function",
      "constant": true
    },
    {
      "inputs": [
        {
          "internalType": "uint256",
          "name": "tokenId",
          "type": "uint256"
        }
      ],
      "name": "getApproved",
      "outputs": [
        {
          "internalType": "address",
          "name": "",
          "type": "address"
        }
      ],
      "stateMutability": "view",
      "type": "function",
      "constant": true
    },
    {
      "inputs": [
        {
          "internalType": "address",
          "name": "owner",
          "type": "address"
        },
        {
          "internalType": "address",
          "name": "operator",
          "type": "address"
        }
      ],
      "name": "isApprovedForAll",
      "outputs": [
        {
          "internalType": "bool",
          "name": "",
          "type": "bool"
        }
      ],
      "stateMutability": "view",
      "type": "function",
      "constant": true
    },
    {
      "inputs": [],
      "name": "name",
      "outputs": [
        {
          "internalType": "string",
          "name": "",
          "type": "string"
        }
      ],
      "stateMutability": "view",
      "type": "function",
      "constant": true
    },
    {
      "inputs": [
        {
          "internalType": "uint256",
          "name": "tokenId",
          "type": "uint256"
        }
      ],
      "name": "ownerOf",
      "outputs": [
        {
          "internalType": "address",
          "name": "",
          "type": "address"
        }
      ],
      "stateMutability": "view",
      "type": "function",
      "constant": true
    },
    {
      "inputs": [
        {
          "internalType": "address",
          "name": "operator",
          "type": "address"
        },
        {
          "internalType": "bool",
          "name": "approved",
          "type": "bool"
        }
      ],
      "name": "setApprovalForAll",
      "outputs": [],
      "stateMutability": "nonpayable",
      "type": "function"
    },
    {
      "inputs": [
        {
          "internalType": "bytes4",
          "name": "interfaceId",
          "type": "bytes4"
        }
      ],
      "name": "supportsInterface",
      "outputs": [
        {
          "internalType": "bool",
          "name": "",
          "type": "bool"
        }
      ],
      "stateMutability": "view",
      "type": "function",
      "constant": true
    },
    {
      "inputs": [],
      "name": "symbol",
      "outputs": [
        {
          "internalType": "string",
          "name": "",
          "type": "string"
        }
      ],
      "stateMutability": "view",
      "type": "function",
      "constant": true
    },
    {
      "inputs": [
        {
          "internalType": "uint256",
          "name": "tokenId",
          "type": "uint256"
        }
      ],
      "name": "tokenURI",
      "outputs": [
        {
          "internalType": "string",
          "name": "",
          "type": "string"
        }
      ],
      "stateMutability": "view",
      "type": "function",
      "constant": true
    },
    {
      "inputs": [
        {
          "internalType": "address",
          "name": "addr",
          "type": "address"
        }
      ],
      "name": "hasMinted",
      "outputs": [
        {
          "internalType": "bool",
          "name": "",
          "type": "bool"
        }
      ],
      "stateMutability": "view",
      "type": "function",
      "constant": true
    },
    {
      "inputs": [
        {
          "internalType": "uint256",
          "name": "tokenId",
          "type": "uint256"
        }
      ],
      "name": "hasVerified",
      "outputs": [
        {
          "internalType": "bool",
          "name": "",
          "type": "bool"
        }
      ],
      "stateMutability": "view",
      "type": "function",
      "constant": true
    },
    {
      "inputs": [
        {
          "internalType": "uint256",
          "name": "tokenId",
          "type": "uint256"
        }
      ],
      "name": "creatorOf",
      "outputs": [
        {
          "internalType": "address",
          "name": "",
          "type": "address"
        }
      ],
      "stateMutability": "view",
      "type": "function",
      "constant": true
    },
    {
      "inputs": [
        {
          "internalType": "string",
          "name": "tokenURI",
          "type": "string"
        }
      ],
      "name": "mintNFT",
      "outputs": [
        {
          "internalType": "uint256",
          "name": "",
          "type": "uint256"
        }
      ],
      "stateMutability": "nonpayable",
      "type": "function"
    },
    {
      "inputs": [
        {
          "internalType": "uint256",
          "name": "tokenId",
          "type": "uint256"
        }
      ],
      "name": "verify",
      "outputs": [],
      "stateMutability": "nonpayable",
      "type": "function"
    },
    {
      "inputs": [
        {
          "internalType": "uint256",
          "name": "tokenId",
          "type": "uint256"
        }
      ],
      "name": "isListed",
      "outputs": [
        {
          "internalType": "bool",
          "name": "",
          "type": "bool"
        }
      ],
      "stateMutability": "view",
      "type": "function",
      "constant": true
    },
    {
      "inputs": [
        {
          "internalType": "uint256",
          "name": "tokenId",
          "type": "uint256"
        }
      ],
      "name": "priceOf",
      "outputs": [
        {
          "internalType": "uint256",
          "name": "",
          "type": "uint256"
        }
      ],
      "stateMutability": "view",
      "type": "function",
      "constant": true
    },
    {
      "inputs": [
        {
          "internalType": "address",
          "name": "to",
          "type": "address"
        },
        {
          "internalType": "uint256",
          "name": "tokenId",
          "type": "uint256"
        }
      ],
      "name": "approve",
      "outputs": [],
      "stateMutability": "nonpayable",
      "type": "function"
    },
    {
      "inputs": [
        {
          "internalType": "address",
          "name": "from",
          "type": "address"
        },
        {
          "internalType": "address",
          "name": "to",
          "type": "address"
        },
        {
          "internalType": "uint256",
          "name": "tokenId",
          "type": "uint256"
        }
      ],
      "name": "transferFrom",
      "outputs": [],
      "stateMutability": "nonpayable",
      "type": "function"
    },
    {
      "inputs": [
        {
          "internalType": "address",
          "name": "from",
          "type": "address"
        },
        {
          "internalType": "address",
          "name": "to",
          "type": "address"
        },
        {
          "internalType": "uint256",
          "name": "tokenId",
          "type": "uint256"
        }
      ],
      "name": "safeTransferFrom",
      "outputs": [],
      "stateMutability": "nonpayable",
      "type": "function"
    },
    {
      "inputs": [
        {
          "internalType": "address",
          "name": "from",
          "type": "address"
        },
        {
          "internalType": "address",
          "name": "to",
          "type": "address"
        },
        {
          "internalType": "uint256",
          "name": "tokenId",
          "type": "uint256"
        },
        {
          "internalType": "bytes",
          "name": "_data",
          "type": "bytes"
        }
      ],
      "name": "safeTransferFrom",
      "outputs": [],
      "stateMutability": "nonpayable",
      "type": "function"
    },
    {
      "inputs": [
        {
          "internalType": "uint256",
          "name": "tokenId",
          "type": "uint256"
        },
        {
          "internalType": "uint256",
          "name": "price",
          "type": "uint256"
        }
      ],
      "name": "listToken",
      "outputs": [],
      "stateMutability": "nonpayable",
      "type": "function"
    },
    {
      "inputs": [
        {
          "internalType": "uint256",
          "name": "tokenId",
          "type": "uint256"
        }
      ],
      "name": "cancelListing",
      "outputs": [],
      "stateMutability": "nonpayable",
      "type": "function"
    },
    {
      "inputs": [
        {
          "internalType": "uint256",
          "name": "tokenId",
          "type": "uint256"
        },
        {
          "internalType": "uint256",
          "name": "price",
          "type": "uint256"
        }
      ],
      "name": "setPrice",
      "outputs": [],
      "stateMutability": "nonpayable",
      "type": "function"
    },
    {
      "inputs": [
        {
          "internalType": "uint256",
          "name": "tokenId",
          "type": "uint256"
        }
      ],
      "name": "buyToken",
      "outputs": [],
      "stateMutability": "payable",
      "type": "function",
      "payable": true
    }
  ],
  "bytecode": "0x60806040523480156200001157600080fd5b50604051620046bc380380620046bc83398181016040528101906200003791906200023f565b6040518060400160405280600381526020017f4e465400000000000000000000000000000000000000000000000000000000008152506040518060400160405280600381526020017f4e465400000000000000000000000000000000000000000000000000000000008152508160009080519060200190620000bb92919062000161565b508060019080519060200190620000d492919062000161565b50505081600860006101000a81548173ffffffffffffffffffffffffffffffffffffffff021916908373ffffffffffffffffffffffffffffffffffffffff16021790555080600760006101000a81548173ffffffffffffffffffffffffffffffffffffffff021916908373ffffffffffffffffffffffffffffffffffffffff16021790555050506200036c565b8280546200016f90620002ce565b90600052602060002090601f016020900481019282620001935760008555620001df565b82601f10620001ae57805160ff1916838001178555620001df565b82800160010185558215620001df579182015b82811115620001de578251825591602001919060010190620001c1565b5b509050620001ee9190620001f2565b5090565b5b808211156200020d576000816000905550600101620001f3565b5090565b600081519050620002228162000338565b92915050565b600081519050620002398162000352565b92915050565b6000806040838503121562000259576200025862000333565b5b6000620002698582860162000211565b92505060206200027c8582860162000228565b9150509250929050565b60006200029382620002ae565b9050919050565b6000620002a782620002ae565b9050919050565b600073ffffffffffffffffffffffffffffffffffffffff82169050919050565b60006002820490506001821680620002e757607f821691505b60208210811415620002fe57620002fd62000304565b5b50919050565b7f4e487b7100000000000000000000000000000000000000000000000000000000600052602260045260246000fd5b600080fd5b620003438162000286565b81146200034f57600080fd5b50565b6200035d816200029a565b81146200036957600080fd5b50565b614340806200037c6000396000f3fe60806040526004361061014b5760003560e01c806375c1631d116100b6578063b9186d7d1161006f578063b9186d7d146104b5578063c87b56dd146104f2578063e985e9c51461052f578063f7d975771461056c578063fb37e88314610595578063fcce4883146105d25761014b565b806375c1631d146103a95780638753367f146103d25780639382e786146103fb57806395d89b4114610438578063a22cb46514610463578063b88d4fde1461048c5761014b565b8063305a67a811610108578063305a67a81461026357806338e21cce1461028c57806342842e0e146102c9578063589a1743146102f25780636352211e1461032f57806370a082311461036c5761014b565b806301ffc9a71461015057806306fdde031461018d578063081812fc146101b8578063095ea7b3146101f557806323b872dd1461021e5780632d296bf114610247575b600080fd5b34801561015c57600080fd5b5061017760048036038101906101729190612bc4565b61060f565b604051610184919061323b565b60405180910390f35b34801561019957600080fd5b506101a26106f1565b6040516101af9190613256565b60405180910390f35b3480156101c457600080fd5b506101df60048036038101906101da9190612c67565b610783565b6040516101ec91906131d4565b60405180910390f35b34801561020157600080fd5b5061021c60048036038101906102179190612b84565b610808565b005b34801561022a57600080fd5b5061024560048036038101906102409190612a6e565b610861565b005b610261600480360381019061025c9190612c67565b6108bc565b005b34801561026f57600080fd5b5061028a60048036038101906102859190612c67565b610b36565b005b34801561029857600080fd5b506102b360048036038101906102ae9190612a01565b610c78565b6040516102c0919061323b565b60405180910390f35b3480156102d557600080fd5b506102f060048036038101906102eb9190612a6e565b610cce565b005b3480156102fe57600080fd5b5061031960048036038101906103149190612c67565b610cee565b60405161032691906131d4565b60405180910390f35b34801561033b57600080fd5b5061035660048036038101906103519190612c67565b610d2b565b60405161036391906131d4565b60405180910390f35b34801561037857600080fd5b50610393600480360381019061038e9190612a01565b610ddd565b6040516103a091906135f8565b60405180910390f35b3480156103b557600080fd5b506103d060048036038101906103cb9190612c94565b610e95565b005b3480156103de57600080fd5b506103f960048036038101906103f49190612c67565b611047565b005b34801561040757600080fd5b50610422600480360381019061041d9190612c67565b611106565b60405161042f919061323b565b60405180910390f35b34801561044457600080fd5b5061044d611130565b60405161045a9190613256565b60405180910390f35b34801561046f57600080fd5b5061048a60048036038101906104859190612b44565b6111c2565b005b34801561049857600080fd5b506104b360048036038101906104ae9190612ac1565b611343565b005b3480156104c157600080fd5b506104dc60048036038101906104d79190612c67565b6113a0565b6040516104e991906135f8565b60405180910390f35b3480156104fe57600080fd5b5061051960048036038101906105149190612c67565b611408565b6040516105269190613256565b60405180910390f35b34801561053b57600080fd5b5061055660048036038101906105519190612a2e565b61155a565b604051610563919061323b565b60405180910390f35b34801561057857600080fd5b50610593600480360381019061058e9190612c94565b6115ee565b005b3480156105a157600080fd5b506105bc60048036038101906105b79190612c1e565b611780565b6040516105c991906135f8565b60405180910390f35b3480156105de57600080fd5b506105f960048036038101906105f49190612c67565b611940565b604051610606919061323b565b60405180910390f35b60007f80ac58cd000000000000000000000000000000000000000000000000000000007bffffffffffffffffffffffffffffffffffffffffffffffffffffffff1916827bffffffffffffffffffffffffffffffffffffffffffffffffffffffff191614806106da57507f5b5e139f000000000000000000000000000000000000000000000000000000007bffffffffffffffffffffffffffffffffffffffffffffffffffffffff1916827bffffffffffffffffffffffffffffffffffffffffffffffffffffffff1916145b806106ea57506106e98261196d565b5b9050919050565b60606000805461070090613996565b80601f016020809104026020016040519081016040528092919081815260200182805461072c90613996565b80156107795780601f1061074e57610100808354040283529160200191610779565b820191906000526020600020905b81548152906001019060200180831161075c57829003601f168201915b5050505050905090565b600061078e826119d7565b6107cd576040517f08c379a00000000000000000000000000000000000000000000000000000000081526004016107c490613498565b60405180910390fd5b6004600083815260200190815260200160002060009054906101000a900473ffffffffffffffffffffffffffffffffffffffff169050919050565b8061081281611940565b15610852576040517f08c379a0000000000000000000000000000000000000000000000000000000008152600401610849906135b8565b60405180910390fd5b61085c8383611a43565b505050565b8061086b81611940565b156108ab576040517f08c379a00000000000000000000000000000000000000000000000000000000081526004016108a2906135b8565b60405180910390fd5b6108b6848484611b5b565b50505050565b6108c581611940565b610904576040517f08c379a00000000000000000000000000000000000000000000000000000000081526004016108fb90613398565b60405180910390fd5b3373ffffffffffffffffffffffffffffffffffffffff1661092482610d2b565b73ffffffffffffffffffffffffffffffffffffffff16141561097b576040517f08c379a0000000000000000000000000000000000000000000000000000000008152600401610972906132b8565b60405180910390fd5b6000610986826113a0565b90508034146109ca576040517f08c379a00000000000000000000000000000000000000000000000000000000081526004016109c1906134b8565b60405180910390fd5b600060146013836109db9190613852565b6109e59190613821565b90506000600282846109f791906138ac565b610a019190613821565b90506000818385610a1291906138ac565b610a1c91906138ac565b90506000610a2986610d2b565b9050610a358185611bbb565b610a47610a4187610cee565b84611bbb565b610a73600760009054906101000a900473ffffffffffffffffffffffffffffffffffffffff1683611bbb565b610a96610a7f87610d2b565b338860405180602001604052806000815250611caf565b6000600a600088815260200190815260200160002060010160006101000a81548160ff0219169083151502179055508073ffffffffffffffffffffffffffffffffffffffff163373ffffffffffffffffffffffffffffffffffffffff167f13b8657d4ddfa4b81968610296805d8992e82313cd1a08959a3208cc3da3fed0888842604051610b269392919061367a565b60405180910390a3505050505050565b803373ffffffffffffffffffffffffffffffffffffffff16610b5782610d2b565b73ffffffffffffffffffffffffffffffffffffffff1614610bad576040517f08c379a0000000000000000000000000000000000000000000000000000000008152600401610ba490613278565b60405180910390fd5b610bb682611940565b610bf5576040517f08c379a0000000000000000000000000000000000000000000000000000000008152600401610bec90613398565b60405180910390fd5b6000600a600084815260200190815260200160002060010160006101000a81548160ff0219169083151502179055503373ffffffffffffffffffffffffffffffffffffffff167f5524851b24fa9c2c0f8fe409fddd8d3ab3d151115ce2c59379945816fbe0c3e68342604051610c6c929190613651565b60405180910390a25050565b6000600b60008373ffffffffffffffffffffffffffffffffffffffff1673ffffffffffffffffffffffffffffffffffffffff16815260200190815260200160002060009054906101000a900460ff169050919050565b610ce983838360405180602001604052806000815250611343565b505050565b6000600d600083815260200190815260200160002060009054906101000a900473ffffffffffffffffffffffffffffffffffffffff169050919050565b6000806002600084815260200190815260200160002060009054906101000a900473ffffffffffffffffffffffffffffffffffffffff169050600073ffffffffffffffffffffffffffffffffffffffff168173ffffffffffffffffffffffffffffffffffffffff161415610dd4576040517f08c379a0000000000000000000000000000000000000000000000000000000008152600401610dcb906133f8565b60405180910390fd5b80915050919050565b60008073ffffffffffffffffffffffffffffffffffffffff168273ffffffffffffffffffffffffffffffffffffffff161415610e4e576040517f08c379a0000000000000000000000000000000000000000000000000000000008152600401610e45906133d8565b60405180910390fd5b600360008373ffffffffffffffffffffffffffffffffffffffff1673ffffffffffffffffffffffffffffffffffffffff168152602001908152602001600020549050919050565b813373ffffffffffffffffffffffffffffffffffffffff16610eb682610d2b565b73ffffffffffffffffffffffffffffffffffffffff1614610f0c576040517f08c379a0000000000000000000000000000000000000000000000000000000008152600401610f0390613278565b60405180910390fd5b60008211610f4f576040517f08c379a0000000000000000000000000000000000000000000000000000000008152600401610f4690613598565b60405180910390fd5b610f5883611940565b15610f98576040517f08c379a0000000000000000000000000000000000000000000000000000000008152600401610f8f90613518565b60405180910390fd5b604051806040016040528083815260200160011515815250600a60008581526020019081526020016000206000820151816000015560208201518160010160006101000a81548160ff0219169083151502179055509050503373ffffffffffffffffffffffffffffffffffffffff167fd72d4503c670d7268f86cb5d5d94df61a0b1e00e6bb60ee2e5c8bf882afc15b084844260405161103a9392919061367a565b60405180910390a2505050565b600860009054906101000a900473ffffffffffffffffffffffffffffffffffffffff1673ffffffffffffffffffffffffffffffffffffffff163373ffffffffffffffffffffffffffffffffffffffff16146110d7576040517f08c379a00000000000000000000000000000000000000000000000000000000081526004016110ce90613578565b60405180910390fd5b6001600c600083815260200190815260200160002060006101000a81548160ff02191690831515021790555050565b6000600c600083815260200190815260200160002060009054906101000a900460ff169050919050565b60606001805461113f90613996565b80601f016020809104026020016040519081016040528092919081815260200182805461116b90613996565b80156111b85780601f1061118d576101008083540402835291602001916111b8565b820191906000526020600020905b81548152906001019060200180831161119b57829003601f168201915b5050505050905090565b6111ca611d0b565b73ffffffffffffffffffffffffffffffffffffffff168273ffffffffffffffffffffffffffffffffffffffff161415611238576040517f08c379a000000000000000000000000000000000000000000000000000000000815260040161122f90613318565b60405180910390fd5b8060056000611245611d0b565b73ffffffffffffffffffffffffffffffffffffffff1673ffffffffffffffffffffffffffffffffffffffff16815260200190815260200160002060008473ffffffffffffffffffffffffffffffffffffffff1673ffffffffffffffffffffffffffffffffffffffff16815260200190815260200160002060006101000a81548160ff0219169083151502179055508173ffffffffffffffffffffffffffffffffffffffff166112f2611d0b565b73ffffffffffffffffffffffffffffffffffffffff167f17307eab39ab6107e8899845ad3d59bd9653f200f220920489ca2b5937696c3183604051611337919061323b565b60405180910390a35050565b8161134d81611940565b1561138d576040517f08c379a0000000000000000000000000000000000000000000000000000000008152600401611384906135b8565b60405180910390fd5b61139985858585611d13565b5050505050565b60006113ab82611940565b6113ea576040517f08c379a00000000000000000000000000000000000000000000000000000000081526004016113e1906135d8565b60405180910390fd5b600a6000838152602001908152602001600020600001549050919050565b6060611413826119d7565b611452576040517f08c379a000000000000000000000000000000000000000000000000000000000815260040161144990613478565b60405180910390fd5b600060066000848152602001908152602001600020805461147290613996565b80601f016020809104026020016040519081016040528092919081815260200182805461149e90613996565b80156114eb5780601f106114c0576101008083540402835291602001916114eb565b820191906000526020600020905b8154815290600101906020018083116114ce57829003601f168201915b5050505050905060006114fc611d75565b9050600081511415611512578192505050611555565b60008251111561154757808260405160200161152f92919061319b565b60405160208183030381529060405292505050611555565b61155084611d8c565b925050505b919050565b6000600560008473ffffffffffffffffffffffffffffffffffffffff1673ffffffffffffffffffffffffffffffffffffffff16815260200190815260200160002060008373ffffffffffffffffffffffffffffffffffffffff1673ffffffffffffffffffffffffffffffffffffffff16815260200190815260200160002060009054906101000a900460ff16905092915050565b813373ffffffffffffffffffffffffffffffffffffffff1661160f82610d2b565b73ffffffffffffffffffffffffffffffffffffffff1614611665576040517f08c379a000000000000000000000000000000000000000000000000000000000815260040161165c90613278565b60405180910390fd5b600082116116a8576040517f08c379a000000000000000000000000000000000000000000000000000000000815260040161169f90613598565b60405180910390fd5b6116b183611940565b6116f0576040517f08c379a00000000000000000000000000000000000000000000000000000000081526004016116e790613398565b60405180910390fd5b6000600a600085815260200190815260200160002060000154905082600a6000868152602001908152602001600020600001819055503373ffffffffffffffffffffffffffffffffffffffff167ffa650d68020ff9eb9ea0a0bc2c654f4c8a397180a5973ca1fbdada95db46fa238583864260405161177294939291906136b1565b60405180910390a250505050565b6000600b60003373ffffffffffffffffffffffffffffffffffffffff1673ffffffffffffffffffffffffffffffffffffffff16815260200190815260200160002060009054906101000a900460ff161561180f576040517f08c379a000000000000000000000000000000000000000000000000000000000815260040161180690613438565b60405180910390fd5b6118196009611e33565b60006118256009611e49565b90506118313382611e57565b61183b8184611e75565b33600d600083815260200190815260200160002060006101000a81548173ffffffffffffffffffffffffffffffffffffffff021916908373ffffffffffffffffffffffffffffffffffffffff1602179055506001600b60003373ffffffffffffffffffffffffffffffffffffffff1673ffffffffffffffffffffffffffffffffffffffff16815260200190815260200160002060006101000a81548160ff0219169083151502179055503373ffffffffffffffffffffffffffffffffffffffff167fcb5aab6c0bec1e5513425dfaad4acfbca112f8b0ffe1027bd614e3d98a3ee5d282854260405161192f93929190613613565b60405180910390a280915050919050565b6000600a600083815260200190815260200160002060010160009054906101000a900460ff169050919050565b60007f01ffc9a7000000000000000000000000000000000000000000000000000000007bffffffffffffffffffffffffffffffffffffffffffffffffffffffff1916827bffffffffffffffffffffffffffffffffffffffffffffffffffffffff1916149050919050565b60008073ffffffffffffffffffffffffffffffffffffffff166002600084815260200190815260200160002060009054906101000a900473ffffffffffffffffffffffffffffffffffffffff1673ffffffffffffffffffffffffffffffffffffffff1614159050919050565b6000611a4e82610d2b565b90508073ffffffffffffffffffffffffffffffffffffffff168373ffffffffffffffffffffffffffffffffffffffff161415611abf576040517f08c379a0000000000000000000000000000000000000000000000000000000008152600401611ab690613538565b60405180910390fd5b8073ffffffffffffffffffffffffffffffffffffffff16611ade611d0b565b73ffffffffffffffffffffffffffffffffffffffff161480611b0d5750611b0c81611b07611d0b565b61155a565b5b611b4c576040517f08c379a0000000000000000000000000000000000000000000000000000000008152600401611b43906133b8565b60405180910390fd5b611b568383611ee9565b505050565b611b6c611b66611d0b565b82611fa2565b611bab576040517f08c379a0000000000000000000000000000000000000000000000000000000008152600401611ba290613558565b60405180910390fd5b611bb6838383612080565b505050565b80471015611bfe576040517f08c379a0000000000000000000000000000000000000000000000000000000008152600401611bf590613358565b60405180910390fd5b60008273ffffffffffffffffffffffffffffffffffffffff1682604051611c24906131bf565b60006040518083038185875af1925050503d8060008114611c61576040519150601f19603f3d011682016040523d82523d6000602084013e611c66565b606091505b5050905080611caa576040517f08c379a0000000000000000000000000000000000000000000000000000000008152600401611ca190613338565b60405180910390fd5b505050565b611cba848484612080565b611cc6848484846122dc565b611d05576040517f08c379a0000000000000000000000000000000000000000000000000000000008152600401611cfc90613298565b60405180910390fd5b50505050565b600033905090565b611d24611d1e611d0b565b83611fa2565b611d63576040517f08c379a0000000000000000000000000000000000000000000000000000000008152600401611d5a90613558565b60405180910390fd5b611d6f84848484611caf565b50505050565b606060405180602001604052806000815250905090565b6060611d97826119d7565b611dd6576040517f08c379a0000000000000000000000000000000000000000000000000000000008152600401611dcd906134f8565b60405180910390fd5b6000611de0611d75565b90506000815111611e005760405180602001604052806000815250611e2b565b80611e0a84612473565b604051602001611e1b92919061319b565b6040516020818303038152906040525b915050919050565b6001816000016000828254019250508190555050565b600081600001549050919050565b611e718282604051806020016040528060008152506125d4565b5050565b611e7e826119d7565b611ebd576040517f08c379a0000000000000000000000000000000000000000000000000000000008152600401611eb490613418565b60405180910390fd5b80600660008481526020019081526020016000209080519060200190611ee4929190612815565b505050565b816004600083815260200190815260200160002060006101000a81548173ffffffffffffffffffffffffffffffffffffffff021916908373ffffffffffffffffffffffffffffffffffffffff160217905550808273ffffffffffffffffffffffffffffffffffffffff16611f5c83610d2b565b73ffffffffffffffffffffffffffffffffffffffff167f8c5be1e5ebec7d5bd14f71427d1e84f3dd0314c0f7b2291e5b200ac8c7c3b92560405160405180910390a45050565b6000611fad826119d7565b611fec576040517f08c379a0000000000000000000000000000000000000000000000000000000008152600401611fe390613378565b60405180910390fd5b6000611ff783610d2b565b90508073ffffffffffffffffffffffffffffffffffffffff168473ffffffffffffffffffffffffffffffffffffffff16148061206657508373ffffffffffffffffffffffffffffffffffffffff1661204e84610783565b73ffffffffffffffffffffffffffffffffffffffff16145b806120775750612076818561155a565b5b91505092915050565b8273ffffffffffffffffffffffffffffffffffffffff166120a082610d2b565b73ffffffffffffffffffffffffffffffffffffffff16146120f6576040517f08c379a00000000000000000000000000000000000000000000000000000000081526004016120ed906134d8565b60405180910390fd5b600073ffffffffffffffffffffffffffffffffffffffff168273ffffffffffffffffffffffffffffffffffffffff161415612166576040517f08c379a000000000000000000000000000000000000000000000000000000000815260040161215d906132f8565b60405180910390fd5b61217183838361262f565b61217c600082611ee9565b6001600360008573ffffffffffffffffffffffffffffffffffffffff1673ffffffffffffffffffffffffffffffffffffffff16815260200190815260200160002060008282546121cc91906138ac565b925050819055506001600360008473ffffffffffffffffffffffffffffffffffffffff1673ffffffffffffffffffffffffffffffffffffffff168152602001908152602001600020600082825461222391906137cb565b92505081905550816002600083815260200190815260200160002060006101000a81548173ffffffffffffffffffffffffffffffffffffffff021916908373ffffffffffffffffffffffffffffffffffffffff160217905550808273ffffffffffffffffffffffffffffffffffffffff168473ffffffffffffffffffffffffffffffffffffffff167fddf252ad1be2c89b69c2b068fc378daa952ba7f163c4a11628f55a4df523b3ef60405160405180910390a4505050565b60006122fd8473ffffffffffffffffffffffffffffffffffffffff16612634565b15612466578373ffffffffffffffffffffffffffffffffffffffff1663150b7a02612326611d0b565b8786866040518563ffffffff1660e01b815260040161234894939291906131ef565b602060405180830381600087803b15801561236257600080fd5b505af192505050801561239357506040513d601f19601f820116820180604052508101906123909190612bf1565b60015b612416573d80600081146123c3576040519150601f19603f3d011682016040523d82523d6000602084013e6123c8565b606091505b5060008151141561240e576040517f08c379a000000000000000000000000000000000000000000000000000000000815260040161240590613298565b60405180910390fd5b805181602001fd5b63150b7a0260e01b7bffffffffffffffffffffffffffffffffffffffffffffffffffffffff1916817bffffffffffffffffffffffffffffffffffffffffffffffffffffffff19161491505061246b565b600190505b949350505050565b606060008214156124bb576040518060400160405280600181526020017f300000000000000000000000000000000000000000000000000000000000000081525090506125cf565b600082905060005b600082146124ed5780806124d6906139f9565b915050600a826124e69190613821565b91506124c3565b60008167ffffffffffffffff81111561250957612508613b2f565b5b6040519080825280601f01601f19166020018201604052801561253b5781602001600182028036833780820191505090505b5090505b600085146125c85760018261255491906138ac565b9150600a856125639190613a42565b603061256f91906137cb565b60f81b81838151811061258557612584613b00565b5b60200101907effffffffffffffffffffffffffffffffffffffffffffffffffffffffffffff1916908160001a905350600a856125c19190613821565b945061253f565b8093505050505b919050565b6125de8383612647565b6125eb60008484846122dc565b61262a576040517f08c379a000000000000000000000000000000000000000000000000000000000815260040161262190613298565b60405180910390fd5b505050565b505050565b600080823b905060008111915050919050565b600073ffffffffffffffffffffffffffffffffffffffff168273ffffffffffffffffffffffffffffffffffffffff1614156126b7576040517f08c379a00000000000000000000000000000000000000000000000000000000081526004016126ae90613458565b60405180910390fd5b6126c0816119d7565b15612700576040517f08c379a00000000000000000000000000000000000000000000000000000000081526004016126f7906132d8565b60405180910390fd5b61270c6000838361262f565b6001600360008473ffffffffffffffffffffffffffffffffffffffff1673ffffffffffffffffffffffffffffffffffffffff168152602001908152602001600020600082825461275c91906137cb565b92505081905550816002600083815260200190815260200160002060006101000a81548173ffffffffffffffffffffffffffffffffffffffff021916908373ffffffffffffffffffffffffffffffffffffffff160217905550808273ffffffffffffffffffffffffffffffffffffffff16600073ffffffffffffffffffffffffffffffffffffffff167fddf252ad1be2c89b69c2b068fc378daa952ba7f163c4a11628f55a4df523b3ef60405160405180910390a45050565b82805461282190613996565b90600052602060002090601f016020900481019282612843576000855561288a565b82601f1061285c57805160ff191683800117855561288a565b8280016001018555821561288a579182015b8281111561288957825182559160200191906001019061286e565b5b509050612897919061289b565b5090565b5b808211156128b457600081600090555060010161289c565b5090565b60006128cb6128c68461371b565b6136f6565b9050828152602081018484840111156128e7576128e6613b63565b5b6128f2848285613954565b509392505050565b600061290d6129088461374c565b6136f6565b90508281526020810184848401111561292957612928613b63565b5b612934848285613954565b509392505050565b60008135905061294b816142ae565b92915050565b600081359050612960816142c5565b92915050565b600081359050612975816142dc565b92915050565b60008151905061298a816142dc565b92915050565b600082601f8301126129a5576129a4613b5e565b5b81356129b58482602086016128b8565b91505092915050565b600082601f8301126129d3576129d2613b5e565b5b81356129e38482602086016128fa565b91505092915050565b6000813590506129fb816142f3565b92915050565b600060208284031215612a1757612a16613b6d565b5b6000612a258482850161293c565b91505092915050565b60008060408385031215612a4557612a44613b6d565b5b6000612a538582860161293c565b9250506020612a648582860161293c565b9150509250929050565b600080600060608486031215612a8757612a86613b6d565b5b6000612a958682870161293c565b9350506020612aa68682870161293c565b9250506040612ab7868287016129ec565b9150509250925092565b60008060008060808587031215612adb57612ada613b6d565b5b6000612ae98782880161293c565b9450506020612afa8782880161293c565b9350506040612b0b878288016129ec565b925050606085013567ffffffffffffffff811115612b2c57612b2b613b68565b5b612b3887828801612990565b91505092959194509250565b60008060408385031215612b5b57612b5a613b6d565b5b6000612b698582860161293c565b9250506020612b7a85828601612951565b9150509250929050565b60008060408385031215612b9b57612b9a613b6d565b5b6000612ba98582860161293c565b9250506020612bba858286016129ec565b9150509250929050565b600060208284031215612bda57612bd9613b6d565b5b6000612be884828501612966565b91505092915050565b600060208284031215612c0757612c06613b6d565b5b6000612c158482850161297b565b91505092915050565b600060208284031215612c3457612c33613b6d565b5b600082013567ffffffffffffffff811115612c5257612c51613b68565b5b612c5e848285016129be565b91505092915050565b600060208284031215612c7d57612c7c613b6d565b5b6000612c8b848285016129ec565b91505092915050565b60008060408385031215612cab57612caa613b6d565b5b6000612cb9858286016129ec565b9250506020612cca858286016129ec565b9150509250929050565b612cdd816138e0565b82525050565b612cec816138f2565b82525050565b6000612cfd8261377d565b612d078185613793565b9350612d17818560208601613963565b612d2081613b72565b840191505092915050565b6000612d3682613788565b612d4081856137af565b9350612d50818560208601613963565b612d5981613b72565b840191505092915050565b6000612d6f82613788565b612d7981856137c0565b9350612d89818560208601613963565b80840191505092915050565b6000612da26027836137af565b9150612dad82613b83565b604082019050919050565b6000612dc56032836137af565b9150612dd082613bd2565b604082019050919050565b6000612de8601a836137af565b9150612df382613c21565b602082019050919050565b6000612e0b601c836137af565b9150612e1682613c4a565b602082019050919050565b6000612e2e6024836137af565b9150612e3982613c73565b604082019050919050565b6000612e516019836137af565b9150612e5c82613cc2565b602082019050919050565b6000612e74603a836137af565b9150612e7f82613ceb565b604082019050919050565b6000612e97601d836137af565b9150612ea282613d3a565b602082019050919050565b6000612eba602c836137af565b9150612ec582613d63565b604082019050919050565b6000612edd600d836137af565b9150612ee882613db2565b602082019050919050565b6000612f006038836137af565b9150612f0b82613ddb565b604082019050919050565b6000612f23602a836137af565b9150612f2e82613e2a565b604082019050919050565b6000612f466029836137af565b9150612f5182613e79565b604082019050919050565b6000612f69602e836137af565b9150612f7482613ec8565b604082019050919050565b6000612f8c6027836137af565b9150612f9782613f17565b604082019050919050565b6000612faf6020836137af565b9150612fba82613f66565b602082019050919050565b6000612fd26031836137af565b9150612fdd82613f8f565b604082019050919050565b6000612ff5602c836137af565b915061300082613fde565b604082019050919050565b6000613018600f836137af565b91506130238261402d565b602082019050919050565b600061303b6029836137af565b915061304682614056565b604082019050919050565b600061305e602f836137af565b9150613069826140a5565b604082019050919050565b60006130816014836137af565b915061308c826140f4565b602082019050919050565b60006130a46021836137af565b91506130af8261411d565b604082019050919050565b60006130c76000836137a4565b91506130d28261416c565b600082019050919050565b60006130ea6031836137af565b91506130f58261416f565b604082019050919050565b600061310d6021836137af565b9150613118826141be565b604082019050919050565b6000613130600d836137af565b915061313b8261420d565b602082019050919050565b60006131536028836137af565b915061315e82614236565b604082019050919050565b60006131766010836137af565b915061318182614285565b602082019050919050565b6131958161394a565b82525050565b60006131a78285612d64565b91506131b38284612d64565b91508190509392505050565b60006131ca826130ba565b9150819050919050565b60006020820190506131e96000830184612cd4565b92915050565b60006080820190506132046000830187612cd4565b6132116020830186612cd4565b61321e604083018561318c565b81810360608301526132308184612cf2565b905095945050505050565b60006020820190506132506000830184612ce3565b92915050565b600060208201905081810360008301526132708184612d2b565b905092915050565b6000602082019050818103600083015261329181612d95565b9050919050565b600060208201905081810360008301526132b181612db8565b9050919050565b600060208201905081810360008301526132d181612ddb565b9050919050565b600060208201905081810360008301526132f181612dfe565b9050919050565b6000602082019050818103600083015261331181612e21565b9050919050565b6000602082019050818103600083015261333181612e44565b9050919050565b6000602082019050818103600083015261335181612e67565b9050919050565b6000602082019050818103600083015261337181612e8a565b9050919050565b6000602082019050818103600083015261339181612ead565b9050919050565b600060208201905081810360008301526133b181612ed0565b9050919050565b600060208201905081810360008301526133d181612ef3565b9050919050565b600060208201905081810360008301526133f181612f16565b9050919050565b6000602082019050818103600083015261341181612f39565b9050919050565b6000602082019050818103600083015261343181612f5c565b9050919050565b6000602082019050818103600083015261345181612f7f565b9050919050565b6000602082019050818103600083015261347181612fa2565b9050919050565b6000602082019050818103600083015261349181612fc5565b9050919050565b600060208201905081810360008301526134b181612fe8565b9050919050565b600060208201905081810360008301526134d18161300b565b9050919050565b600060208201905081810360008301526134f18161302e565b9050919050565b6000602082019050818103600083015261351181613051565b9050919050565b6000602082019050818103600083015261353181613074565b9050919050565b6000602082019050818103600083015261355181613097565b9050919050565b60006020820190508181036000830152613571816130dd565b9050919050565b6000602082019050818103600083015261359181613100565b9050919050565b600060208201905081810360008301526135b181613123565b9050919050565b600060208201905081810360008301526135d181613146565b9050919050565b600060208201905081810360008301526135f181613169565b9050919050565b600060208201905061360d600083018461318c565b92915050565b6000606082019050613628600083018661318c565b818103602083015261363a8185612d2b565b9050613649604083018461318c565b949350505050565b6000604082019050613666600083018561318c565b613673602083018461318c565b9392505050565b600060608201905061368f600083018661318c565b61369c602083018561318c565b6136a9604083018461318c565b949350505050565b60006080820190506136c6600083018761318c565b6136d3602083018661318c565b6136e0604083018561318c565b6136ed606083018461318c565b95945050505050565b6000613700613711565b905061370c82826139c8565b919050565b6000604051905090565b600067ffffffffffffffff82111561373657613735613b2f565b5b61373f82613b72565b9050602081019050919050565b600067ffffffffffffffff82111561376757613766613b2f565b5b61377082613b72565b9050602081019050919050565b600081519050919050565b600081519050919050565b600082825260208201905092915050565b600081905092915050565b600082825260208201905092915050565b600081905092915050565b60006137d68261394a565b91506137e18361394a565b9250827fffffffffffffffffffffffffffffffffffffffffffffffffffffffffffffffff0382111561381657613815613a73565b5b828201905092915050565b600061382c8261394a565b91506138378361394a565b92508261384757613846613aa2565b5b828204905092915050565b600061385d8261394a565b91506138688361394a565b9250817fffffffffffffffffffffffffffffffffffffffffffffffffffffffffffffffff04831182151516156138a1576138a0613a73565b5b828202905092915050565b60006138b78261394a565b91506138c28361394a565b9250828210156138d5576138d4613a73565b5b828203905092915050565b60006138eb8261392a565b9050919050565b60008115159050919050565b60007fffffffff0000000000000000000000000000000000000000000000000000000082169050919050565b600073ffffffffffffffffffffffffffffffffffffffff82169050919050565b6000819050919050565b82818337600083830152505050565b60005b83811015613981578082015181840152602081019050613966565b83811115613990576000848401525b50505050565b600060028204905060018216806139ae57607f821691505b602082108114156139c2576139c1613ad1565b5b50919050565b6139d182613b72565b810181811067ffffffffffffffff821117156139f0576139ef613b2f565b5b80604052505050565b6000613a048261394a565b91507fffffffffffffffffffffffffffffffffffffffffffffffffffffffffffffffff821415613a3757613a36613a73565b5b600182019050919050565b6000613a4d8261394a565b9150613a588361394a565b925082613a6857613a67613aa2565b5b828206905092915050565b7f4e487b7100000000000000000000000000000000000000000000000000000000600052601160045260246000fd5b7f4e487b7100000000000000000000000000000000000000000000000000000000600052601260045260246000fd5b7f4e487b7100000000000000000000000000000000000000000000000000000000600052602260045260246000fd5b7f4e487b7100000000000000000000000000000000000000000000000000000000600052603260045260246000fd5b7f4e487b7100000000000000000000000000000000000000000000000000000000600052604160045260246000fd5b600080fd5b600080fd5b600080fd5b600080fd5b6000601f19601f8301169050919050565b7f4f6e6c7920746f6b656e206f776e65722063616e2063616c6c2074686973206660008201527f756e6374696f6e00000000000000000000000000000000000000000000000000602082015250565b7f4552433732313a207472616e7366657220746f206e6f6e20455243373231526560008201527f63656976657220696d706c656d656e7465720000000000000000000000000000602082015250565b7f417474656d707420746f20627579206f776e656420746f6b656e000000000000600082015250565b7f4552433732313a20746f6b656e20616c7265616479206d696e74656400000000600082015250565b7f4552433732313a207472616e7366657220746f20746865207a65726f2061646460008201527f7265737300000000000000000000000000000000000000000000000000000000602082015250565b7f4552433732313a20617070726f766520746f2063616c6c657200000000000000600082015250565b7f416464726573733a20756e61626c6520746f2073656e642076616c75652c207260008201527f6563697069656e74206d61792068617665207265766572746564000000000000602082015250565b7f416464726573733a20696e73756666696369656e742062616c616e6365000000600082015250565b7f4552433732313a206f70657261746f7220717565727920666f72206e6f6e657860008201527f697374656e7420746f6b656e0000000000000000000000000000000000000000602082015250565b7f496e76616c696420746f6b656e00000000000000000000000000000000000000600082015250565b7f4552433732313a20617070726f76652063616c6c6572206973206e6f74206f7760008201527f6e6572206e6f7220617070726f76656420666f7220616c6c0000000000000000602082015250565b7f4552433732313a2062616c616e636520717565727920666f7220746865207a6560008201527f726f206164647265737300000000000000000000000000000000000000000000602082015250565b7f4552433732313a206f776e657220717565727920666f72206e6f6e657869737460008201527f656e7420746f6b656e0000000000000000000000000000000000000000000000602082015250565b7f45524337323155524953746f726167653a2055524920736574206f66206e6f6e60008201527f6578697374656e7420746f6b656e000000000000000000000000000000000000602082015250565b7f5468697320616464726573732068617320616c7265616479206d696e7465642060008201527f6120746f6b656e00000000000000000000000000000000000000000000000000602082015250565b7f4552433732313a206d696e7420746f20746865207a65726f2061646472657373600082015250565b7f45524337323155524953746f726167653a2055524920717565727920666f722060008201527f6e6f6e6578697374656e7420746f6b656e000000000000000000000000000000602082015250565b7f4552433732313a20617070726f76656420717565727920666f72206e6f6e657860008201527f697374656e7420746f6b656e0000000000000000000000000000000000000000602082015250565b7f5072696365206e6f74206d617463680000000000000000000000000000000000600082015250565b7f4552433732313a207472616e73666572206f6620746f6b656e2074686174206960008201527f73206e6f74206f776e0000000000000000000000000000000000000000000000602082015250565b7f4552433732314d657461646174613a2055524920717565727920666f72206e6f60008201527f6e6578697374656e7420746f6b656e0000000000000000000000000000000000602082015250565b7f546f6b656e20616c7265616479206c6973746564000000000000000000000000600082015250565b7f4552433732313a20617070726f76616c20746f2063757272656e74206f776e6560008201527f7200000000000000000000000000000000000000000000000000000000000000602082015250565b50565b7f4552433732313a207472616e736665722063616c6c6572206973206e6f74206f60008201527f776e6572206e6f7220617070726f766564000000000000000000000000000000602082015250565b7f4f6e6c792061646d696e2063616e2063616c6c20746869732066756e6374696f60008201527f6e00000000000000000000000000000000000000000000000000000000000000602082015250565b7f496e76616c696420707269636500000000000000000000000000000000000000600082015250565b7f4f7065726174696f6e2063616e6e6f7420626520646f6e6520746f206c69737460008201527f656420746f6b656e000000000000000000000000000000000000000000000000602082015250565b7f546f6b656e206e6f74206c697374656400000000000000000000000000000000600082015250565b6142b7816138e0565b81146142c257600080fd5b50565b6142ce816138f2565b81146142d957600080fd5b50565b6142e5816138fe565b81146142f057600080fd5b50565b6142fc8161394a565b811461430757600080fd5b5056fea26469706673582212201f72cdcf5d0d3f2633de7f0403fb8ded0683c68b16ce4d5094d51cd592c3610a64736f6c63430008060033",
  "immutableReferences": {},
  "source": "pragma solidity ^0.8.0;\n\nimport \"@openzeppelin/contracts/utils/Address.sol\";\nimport \"@openzeppelin/contracts/utils/Counters.sol\";\nimport \"@openzeppelin/contracts/token/ERC721/ERC721.sol\";\nimport \"@openzeppelin/contracts/token/ERC721/extensions/ERC721URIStorage.sol\";\n\ncontract Market is ERC721URIStorage {\n    using Address for address;\n    using Counters for Counters.Counter;\n\n    struct ListingInfo {\n        uint256 price;\n        bool onList;\n    }\n\n    address payable private _platform;\n\n    address private _admin;\n\n    Counters.Counter private _tokenIds;\n\n    mapping (uint256 => ListingInfo) private _listings;\n\n    mapping (address => bool) private _minted;\n\n    mapping (uint256 => bool) private _verified;\n\n    mapping (uint256 => address) private _creators;\n\n    constructor (address admin_, address payable platform_) ERC721(\"NFT\", \"NFT\") {\n        _admin = admin_;\n        _platform = platform_;\n    }\n\n    modifier onlyAdmin {\n        require (\n            msg.sender == _admin,\n            \"Only admin can call this function\"\n        );\n        _;\n    }\n\n    modifier onlyTokenOwner (uint256 tokenId) {\n        require (\n            ownerOf(tokenId) == msg.sender, \n            \"Only token owner can call this function\"\n        );\n        _;\n    }\n\n    modifier onlyUnlistedToken (uint256 tokenId) {\n        require (\n            !isListed(tokenId),\n            \"Operation cannot be done to listed token\"\n        );\n        _;\n    }\n\n    event Listing (\n        uint256 tokenId,\n        address indexed from,\n        uint256 price,\n        uint256 timestamp\n    );\n\n    event Cancellation (\n        uint256 tokenId,\n        address indexed from,\n        uint256 timestamp\n    );\n\n    event Edit (\n        uint256 tokenId,\n        address indexed from,\n        uint256 oldPrice,\n        uint256 newPrice,\n        uint256 timestamp\n    );\n\n    event Purchase (\n        uint256 tokenId,\n        address indexed buyer,\n        address indexed seller,\n        uint256 price,\n        uint256 timestamp\n    );\n\n    event Mint (\n        uint256 tokenId,\n        address indexed creator,\n        string tokenURI,\n        uint256 timestamp\n    );\n\n    function hasMinted(address addr) public view returns (bool) {\n        return _minted[addr];\n    }\n\n    function hasVerified(uint256 tokenId) public view returns (bool) {\n        return _verified[tokenId];\n    }\n\n    function creatorOf(uint256 tokenId) public view returns (address) \n    {\n        return _creators[tokenId];\n    }\n\n    function mintNFT(string memory tokenURI) public returns (uint256) {\n        require(!_minted[msg.sender], \"This address has already minted a token\");\n        _tokenIds.increment();\n\n        uint256 newId = _tokenIds.current();\n        _safeMint(msg.sender, newId);\n        _setTokenURI(newId, tokenURI);\n        _creators[newId] = msg.sender;\n        _minted[msg.sender] = true;\n\n        emit Mint(\n            newId,\n            msg.sender,\n            tokenURI,\n            block.timestamp\n        );\n\n        return newId;\n    }\n\n    function verify(uint256 tokenId) public onlyAdmin {\n        _verified[tokenId] = true;\n    }\n\n    function isListed(uint256 tokenId) public view returns (bool) {\n        return _listings[tokenId].onList;\n    }\n\n    function priceOf(uint256 tokenId) public view returns (uint256) {\n        require (isListed(tokenId), \"Token not listed\");\n        return _listings[tokenId].price;\n    }\n\n    function approve(address to, uint256 tokenId) public onlyUnlistedToken(tokenId) override {\n        super.approve(to, tokenId);\n    }\n\n    function transferFrom(address from, address to, uint256 tokenId) public onlyUnlistedToken(tokenId) override {\n        super.transferFrom(from, to, tokenId);\n    }\n\n    function safeTransferFrom(address from, address to, uint256 tokenId, bytes memory _data) public onlyUnlistedToken(tokenId) override {\n        super.safeTransferFrom(from, to, tokenId, _data);\n    }\n\n    function listToken(uint256 tokenId, uint256 price) public onlyTokenOwner(tokenId) {\n        require (price > 0, \"Invalid price\");\n        require (!isListed(tokenId), \"Token already listed\");\n\n        _listings[tokenId] = ListingInfo(price, true);\n\n        emit Listing(\n            tokenId,\n            msg.sender,\n            price,\n            block.timestamp\n        );\n    }\n\n    function cancelListing(uint256 tokenId) public onlyTokenOwner(tokenId) {\n        require (isListed(tokenId), \"Invalid token\");\n\n        _listings[tokenId].onList = false;\n\n        emit Cancellation(\n            tokenId,\n            msg.sender,\n            block.timestamp\n        );\n    }\n\n    function setPrice(uint256 tokenId, uint256 price) public onlyTokenOwner(tokenId) {\n        require (price > 0, \"Invalid price\");\n        require (isListed(tokenId), \"Invalid token\");\n    \n        uint256 oldPrice = _listings[tokenId].price;\n        _listings[tokenId].price = price;\n\n        emit Edit(\n            tokenId,\n            msg.sender,\n            oldPrice,\n            price,\n            block.timestamp\n        );\n    }\n\n    function buyToken(uint256 tokenId) public payable {\n        require (isListed(tokenId), \"Invalid token\");\n        require (ownerOf(tokenId) != msg.sender, \"Attempt to buy owned token\");\n\n        uint256 price = priceOf(tokenId);\n        require (msg.value == price, \"Price not match\");\n\n        uint256 payment = price * 19 / 20;\n        uint256 bonus = (price - payment) / 2;\n        uint256 fee = price - payment - bonus;\n        address owner = ownerOf(tokenId);\n        Address.sendValue(payable(owner), payment);\n        Address.sendValue(payable(creatorOf(tokenId)), bonus);\n        Address.sendValue(_platform, fee);\n\n        _safeTransfer(ownerOf(tokenId), msg.sender, tokenId, '');\n        _listings[tokenId].onList = false;\n\n        emit Purchase(\n            tokenId,\n            msg.sender,\n            owner,\n            price,\n            block.timestamp\n        );\n    }\n}",
  "sourcePath": "/Users/sherlock/ChainLab/market/contracts/Market.sol",
  "compiler": {
    "name": "solc",
    "version": "0.8.6+commit.11564f7e.Emscripten.clang"
  },
  "schemaVersion": "3.4.1",
  "updatedAt": "2021-07-30T08:05:47.859Z",
  "networkType": "ethereum",
  "devdoc": {
    "kind": "dev",
    "methods": {
      "approve(address,uint256)": {
        "details": "See {IERC721-approve}."
      },
      "balanceOf(address)": {
        "details": "See {IERC721-balanceOf}."
      },
      "getApproved(uint256)": {
        "details": "See {IERC721-getApproved}."
      },
      "isApprovedForAll(address,address)": {
        "details": "See {IERC721-isApprovedForAll}."
      },
      "name()": {
        "details": "See {IERC721Metadata-name}."
      },
      "ownerOf(uint256)": {
        "details": "See {IERC721-ownerOf}."
      },
      "safeTransferFrom(address,address,uint256)": {
        "details": "See {IERC721-safeTransferFrom}."
      },
      "safeTransferFrom(address,address,uint256,bytes)": {
        "details": "See {IERC721-safeTransferFrom}."
      },
      "setApprovalForAll(address,bool)": {
        "details": "See {IERC721-setApprovalForAll}."
      },
      "supportsInterface(bytes4)": {
        "details": "See {IERC165-supportsInterface}."
      },
      "symbol()": {
        "details": "See {IERC721Metadata-symbol}."
      },
      "tokenURI(uint256)": {
        "details": "See {IERC721Metadata-tokenURI}."
      },
      "transferFrom(address,address,uint256)": {
        "details": "See {IERC721-transferFrom}."
      }
    },
    "version": 1
  },
  "userdoc": {
    "kind": "user",
    "methods": {},
    "version": 1
  }
}