{
  "contractName": "NFT",
  "abi": [
    {
      "inputs": [
        {
          "internalType": "address",
          "name": "admin_",
          "type": "address"
        }
      ],
      "stateMutability": "nonpayable",
      "type": "constructor"
    },
    {
      "anonymous": false,
      "inputs": [
        {
          "indexed": true,
          "internalType": "address",
          "name": "owner",
          "type": "address"
        },
        {
          "indexed": true,
          "internalType": "address",
          "name": "approved",
          "type": "address"
        },
        {
          "indexed": true,
          "internalType": "uint256",
          "name": "tokenId",
          "type": "uint256"
        }
      ],
      "name": "Approval",
      "type": "event"
    },
    {
      "anonymous": false,
      "inputs": [
        {
          "indexed": true,
          "internalType": "address",
          "name": "owner",
          "type": "address"
        },
        {
          "indexed": true,
          "internalType": "address",
          "name": "operator",
          "type": "address"
        },
        {
          "indexed": false,
          "internalType": "bool",
          "name": "approved",
          "type": "bool"
        }
      ],
      "name": "ApprovalForAll",
      "type": "event"
    },
    {
      "anonymous": false,
      "inputs": [
        {
          "indexed": true,
          "internalType": "uint256",
          "name": "tokenId",
          "type": "uint256"
        },
        {
          "indexed": true,
          "internalType": "address",
          "name": "creator",
          "type": "address"
        },
        {
          "indexed": false,
          "internalType": "string",
          "name": "tokenURI",
          "type": "string"
        },
        {
          "indexed": false,
          "internalType": "uint256",
          "name": "timestamp",
          "type": "uint256"
        }
      ],
      "name": "Mint",
      "type": "event"
    },
    {
      "anonymous": false,
      "inputs": [
        {
          "indexed": true,
          "internalType": "address",
          "name": "from",
          "type": "address"
        },
        {
          "indexed": true,
          "internalType": "address",
          "name": "to",
          "type": "address"
        },
        {
          "indexed": true,
          "internalType": "uint256",
          "name": "tokenId",
          "type": "uint256"
        }
      ],
      "name": "Transfer",
      "type": "event"
    },
    {
      "anonymous": false,
      "inputs": [
        {
          "indexed": true,
          "internalType": "address",
          "name": "creator",
          "type": "address"
        },
        {
          "indexed": true,
          "internalType": "address",
          "name": "admin",
          "type": "address"
        },
        {
          "indexed": false,
          "internalType": "uint256",
          "name": "timestamp",
          "type": "uint256"
        }
      ],
      "name": "Verification",
      "type": "event"
    },
    {
      "inputs": [
        {
          "internalType": "address",
          "name": "to",
          "type": "address"
        },
        {
          "internalType": "uint256",
          "name": "tokenId",
          "type": "uint256"
        }
      ],
      "name": "approve",
      "outputs": [],
      "stateMutability": "nonpayable",
      "type": "function"
    },
    {
      "inputs": [
        {
          "internalType": "address",
          "name": "owner",
          "type": "address"
        }
      ],
      "name": "balanceOf",
      "outputs": [
        {
          "internalType": "uint256",
          "name": "",
          "type": "uint256"
        }
      ],
      "stateMutability": "view",
      "type": "function",
      "constant": true
    },
    {
      "inputs": [
        {
          "internalType": "uint256",
          "name": "tokenId",
          "type": "uint256"
        }
      ],
      "name": "getApproved",
      "outputs": [
        {
          "internalType": "address",
          "name": "",
          "type": "address"
        }
      ],
      "stateMutability": "view",
      "type": "function",
      "constant": true
    },
    {
      "inputs": [
        {
          "internalType": "address",
          "name": "owner",
          "type": "address"
        },
        {
          "internalType": "address",
          "name": "operator",
          "type": "address"
        }
      ],
      "name": "isApprovedForAll",
      "outputs": [
        {
          "internalType": "bool",
          "name": "",
          "type": "bool"
        }
      ],
      "stateMutability": "view",
      "type": "function",
      "constant": true
    },
    {
      "inputs": [],
      "name": "name",
      "outputs": [
        {
          "internalType": "string",
          "name": "",
          "type": "string"
        }
      ],
      "stateMutability": "view",
      "type": "function",
      "constant": true
    },
    {
      "inputs": [
        {
          "internalType": "uint256",
          "name": "tokenId",
          "type": "uint256"
        }
      ],
      "name": "ownerOf",
      "outputs": [
        {
          "internalType": "address",
          "name": "",
          "type": "address"
        }
      ],
      "stateMutability": "view",
      "type": "function",
      "constant": true
    },
    {
      "inputs": [
        {
          "internalType": "address",
          "name": "from",
          "type": "address"
        },
        {
          "internalType": "address",
          "name": "to",
          "type": "address"
        },
        {
          "internalType": "uint256",
          "name": "tokenId",
          "type": "uint256"
        }
      ],
      "name": "safeTransferFrom",
      "outputs": [],
      "stateMutability": "nonpayable",
      "type": "function"
    },
    {
      "inputs": [
        {
          "internalType": "address",
          "name": "from",
          "type": "address"
        },
        {
          "internalType": "address",
          "name": "to",
          "type": "address"
        },
        {
          "internalType": "uint256",
          "name": "tokenId",
          "type": "uint256"
        },
        {
          "internalType": "bytes",
          "name": "_data",
          "type": "bytes"
        }
      ],
      "name": "safeTransferFrom",
      "outputs": [],
      "stateMutability": "nonpayable",
      "type": "function"
    },
    {
      "inputs": [
        {
          "internalType": "address",
          "name": "operator",
          "type": "address"
        },
        {
          "internalType": "bool",
          "name": "approved",
          "type": "bool"
        }
      ],
      "name": "setApprovalForAll",
      "outputs": [],
      "stateMutability": "nonpayable",
      "type": "function"
    },
    {
      "inputs": [
        {
          "internalType": "bytes4",
          "name": "interfaceId",
          "type": "bytes4"
        }
      ],
      "name": "supportsInterface",
      "outputs": [
        {
          "internalType": "bool",
          "name": "",
          "type": "bool"
        }
      ],
      "stateMutability": "view",
      "type": "function",
      "constant": true
    },
    {
      "inputs": [],
      "name": "symbol",
      "outputs": [
        {
          "internalType": "string",
          "name": "",
          "type": "string"
        }
      ],
      "stateMutability": "view",
      "type": "function",
      "constant": true
    },
    {
      "inputs": [
        {
          "internalType": "uint256",
          "name": "tokenId",
          "type": "uint256"
        }
      ],
      "name": "tokenURI",
      "outputs": [
        {
          "internalType": "string",
          "name": "",
          "type": "string"
        }
      ],
      "stateMutability": "view",
      "type": "function",
      "constant": true
    },
    {
      "inputs": [
        {
          "internalType": "address",
          "name": "from",
          "type": "address"
        },
        {
          "internalType": "address",
          "name": "to",
          "type": "address"
        },
        {
          "internalType": "uint256",
          "name": "tokenId",
          "type": "uint256"
        }
      ],
      "name": "transferFrom",
      "outputs": [],
      "stateMutability": "nonpayable",
      "type": "function"
    },
    {
      "inputs": [
        {
          "internalType": "address",
          "name": "addr",
          "type": "address"
        }
      ],
      "name": "isVerified",
      "outputs": [
        {
          "internalType": "bool",
          "name": "",
          "type": "bool"
        }
      ],
      "stateMutability": "view",
      "type": "function",
      "constant": true
    },
    {
      "inputs": [
        {
          "internalType": "uint256",
          "name": "tokenId",
          "type": "uint256"
        }
      ],
      "name": "creatorOf",
      "outputs": [
        {
          "internalType": "address",
          "name": "",
          "type": "address"
        }
      ],
      "stateMutability": "view",
      "type": "function",
      "constant": true
    },
    {
      "inputs": [
        {
          "internalType": "string",
          "name": "tokenURI",
          "type": "string"
        }
      ],
      "name": "mintNFT",
      "outputs": [
        {
          "internalType": "uint256",
          "name": "",
          "type": "uint256"
        }
      ],
      "stateMutability": "nonpayable",
      "type": "function"
    },
    {
      "inputs": [
        {
          "internalType": "address",
          "name": "creator",
          "type": "address"
        }
      ],
      "name": "verify",
      "outputs": [],
      "stateMutability": "nonpayable",
      "type": "function"
    }
  ],
  "bytecode": "0x60806040523480156200001157600080fd5b50604051620033aa380380620033aa8339818101604052810190620000379190620001ee565b6040518060400160405280600381526020017f4e465400000000000000000000000000000000000000000000000000000000008152506040518060400160405280600381526020017f4e465400000000000000000000000000000000000000000000000000000000008152508160009080519060200190620000bb92919062000127565b508060019080519060200190620000d492919062000127565b505050600160078190555080600b60006101000a81548173ffffffffffffffffffffffffffffffffffffffff021916908373ffffffffffffffffffffffffffffffffffffffff16021790555050620002d8565b828054620001359062000254565b90600052602060002090601f016020900481019282620001595760008555620001a5565b82601f106200017457805160ff1916838001178555620001a5565b82800160010185558215620001a5579182015b82811115620001a457825182559160200191906001019062000187565b5b509050620001b49190620001b8565b5090565b5b80821115620001d3576000816000905550600101620001b9565b5090565b600081519050620001e881620002be565b92915050565b600060208284031215620002075762000206620002b9565b5b60006200021784828501620001d7565b91505092915050565b60006200022d8262000234565b9050919050565b600073ffffffffffffffffffffffffffffffffffffffff82169050919050565b600060028204905060018216806200026d57607f821691505b602082108114156200028457620002836200028a565b5b50919050565b7f4e487b7100000000000000000000000000000000000000000000000000000000600052602260045260246000fd5b600080fd5b620002c98162000220565b8114620002d557600080fd5b50565b6130c280620002e86000396000f3fe608060405234801561001057600080fd5b506004361061010b5760003560e01c806363a9c3d7116100a2578063b88d4fde11610071578063b88d4fde146102c8578063b9209e33146102e4578063c87b56dd14610314578063e985e9c514610344578063fb37e883146103745761010b565b806363a9c3d71461024257806370a082311461025e57806395d89b411461028e578063a22cb465146102ac5761010b565b806323b872dd116100de57806323b872dd146101aa57806342842e0e146101c6578063589a1743146101e25780636352211e146102125761010b565b806301ffc9a71461011057806306fdde0314610140578063081812fc1461015e578063095ea7b31461018e575b600080fd5b61012a60048036038101906101259190611fa9565b6103a4565b604051610137919061244a565b60405180910390f35b610148610486565b6040516101559190612465565b60405180910390f35b6101786004803603810190610173919061204c565b610518565b60405161018591906123e3565b60405180910390f35b6101a860048036038101906101a39190611f69565b61059d565b005b6101c460048036038101906101bf9190611e53565b6106b5565b005b6101e060048036038101906101db9190611e53565b610715565b005b6101fc60048036038101906101f7919061204c565b610735565b60405161020991906123e3565b60405180910390f35b61022c6004803603810190610227919061204c565b610772565b60405161023991906123e3565b60405180910390f35b61025c60048036038101906102579190611de6565b610824565b005b61027860048036038101906102739190611de6565b610987565b60405161028591906126f7565b60405180910390f35b610296610a3f565b6040516102a39190612465565b60405180910390f35b6102c660048036038101906102c19190611f29565b610ad1565b005b6102e260048036038101906102dd9190611ea6565b610c52565b005b6102fe60048036038101906102f99190611de6565b610cb4565b60405161030b919061244a565b60405180910390f35b61032e6004803603810190610329919061204c565b610d0a565b60405161033b9190612465565b60405180910390f35b61035e60048036038101906103599190611e13565b610e5c565b60405161036b919061244a565b60405180910390f35b61038e60048036038101906103899190612003565b610ef0565b60405161039b91906126f7565b60405180910390f35b60007f80ac58cd000000000000000000000000000000000000000000000000000000007bffffffffffffffffffffffffffffffffffffffffffffffffffffffff1916827bffffffffffffffffffffffffffffffffffffffffffffffffffffffff1916148061046f57507f5b5e139f000000000000000000000000000000000000000000000000000000007bffffffffffffffffffffffffffffffffffffffffffffffffffffffff1916827bffffffffffffffffffffffffffffffffffffffffffffffffffffffff1916145b8061047f575061047e82611020565b5b9050919050565b6060600080546104959061294d565b80601f01602080910402602001604051908101604052809291908181526020018280546104c19061294d565b801561050e5780601f106104e35761010080835404028352916020019161050e565b820191906000526020600020905b8154815290600101906020018083116104f157829003601f168201915b5050505050905090565b60006105238261108a565b610562576040517f08c379a000000000000000000000000000000000000000000000000000000000815260040161055990612617565b60405180910390fd5b6004600083815260200190815260200160002060009054906101000a900473ffffffffffffffffffffffffffffffffffffffff169050919050565b60006105a882610772565b90508073ffffffffffffffffffffffffffffffffffffffff168373ffffffffffffffffffffffffffffffffffffffff161415610619576040517f08c379a000000000000000000000000000000000000000000000000000000000815260040161061090612677565b60405180910390fd5b8073ffffffffffffffffffffffffffffffffffffffff166106386110f6565b73ffffffffffffffffffffffffffffffffffffffff1614806106675750610666816106616110f6565b610e5c565b5b6106a6576040517f08c379a000000000000000000000000000000000000000000000000000000000815260040161069d90612557565b60405180910390fd5b6106b083836110fe565b505050565b6106c66106c06110f6565b826111b7565b610705576040517f08c379a00000000000000000000000000000000000000000000000000000000081526004016106fc90612697565b60405180910390fd5b610710838383611295565b505050565b61073083838360405180602001604052806000815250610c52565b505050565b6000600a600083815260200190815260200160002060009054906101000a900473ffffffffffffffffffffffffffffffffffffffff169050919050565b6000806002600084815260200190815260200160002060009054906101000a900473ffffffffffffffffffffffffffffffffffffffff169050600073ffffffffffffffffffffffffffffffffffffffff168173ffffffffffffffffffffffffffffffffffffffff16141561081b576040517f08c379a000000000000000000000000000000000000000000000000000000000815260040161081290612597565b60405180910390fd5b80915050919050565b600b60009054906101000a900473ffffffffffffffffffffffffffffffffffffffff1673ffffffffffffffffffffffffffffffffffffffff163373ffffffffffffffffffffffffffffffffffffffff16146108b4576040517f08c379a00000000000000000000000000000000000000000000000000000000081526004016108ab906126b7565b60405180910390fd5b6108bd81610cb4565b156108c757600080fd5b6001600960008373ffffffffffffffffffffffffffffffffffffffff1673ffffffffffffffffffffffffffffffffffffffff16815260200190815260200160002060006101000a81548160ff0219169083151502179055503373ffffffffffffffffffffffffffffffffffffffff168173ffffffffffffffffffffffffffffffffffffffff167fc7a4655d92f9f6a47ebdab85d8da06b65e4b2293b6504bb07d028bd797935dbf4260405161097c91906126f7565b60405180910390a350565b60008073ffffffffffffffffffffffffffffffffffffffff168273ffffffffffffffffffffffffffffffffffffffff1614156109f8576040517f08c379a00000000000000000000000000000000000000000000000000000000081526004016109ef90612577565b60405180910390fd5b600360008373ffffffffffffffffffffffffffffffffffffffff1673ffffffffffffffffffffffffffffffffffffffff168152602001908152602001600020549050919050565b606060018054610a4e9061294d565b80601f0160208091040260200160405190810160405280929190818152602001828054610a7a9061294d565b8015610ac75780601f10610a9c57610100808354040283529160200191610ac7565b820191906000526020600020905b815481529060010190602001808311610aaa57829003601f168201915b5050505050905090565b610ad96110f6565b73ffffffffffffffffffffffffffffffffffffffff168273ffffffffffffffffffffffffffffffffffffffff161415610b47576040517f08c379a0000000000000000000000000000000000000000000000000000000008152600401610b3e90612517565b60405180910390fd5b8060056000610b546110f6565b73ffffffffffffffffffffffffffffffffffffffff1673ffffffffffffffffffffffffffffffffffffffff16815260200190815260200160002060008473ffffffffffffffffffffffffffffffffffffffff1673ffffffffffffffffffffffffffffffffffffffff16815260200190815260200160002060006101000a81548160ff0219169083151502179055508173ffffffffffffffffffffffffffffffffffffffff16610c016110f6565b73ffffffffffffffffffffffffffffffffffffffff167f17307eab39ab6107e8899845ad3d59bd9653f200f220920489ca2b5937696c3183604051610c46919061244a565b60405180910390a35050565b610c63610c5d6110f6565b836111b7565b610ca2576040517f08c379a0000000000000000000000000000000000000000000000000000000008152600401610c9990612697565b60405180910390fd5b610cae848484846114f1565b50505050565b6000600960008373ffffffffffffffffffffffffffffffffffffffff1673ffffffffffffffffffffffffffffffffffffffff16815260200190815260200160002060009054906101000a900460ff169050919050565b6060610d158261108a565b610d54576040517f08c379a0000000000000000000000000000000000000000000000000000000008152600401610d4b906125f7565b60405180910390fd5b6000600660008481526020019081526020016000208054610d749061294d565b80601f0160208091040260200160405190810160405280929190818152602001828054610da09061294d565b8015610ded5780601f10610dc257610100808354040283529160200191610ded565b820191906000526020600020905b815481529060010190602001808311610dd057829003601f168201915b505050505090506000610dfe61154d565b9050600081511415610e14578192505050610e57565b600082511115610e49578082604051602001610e319291906123bf565b60405160208183030381529060405292505050610e57565b610e5284611564565b925050505b919050565b6000600560008473ffffffffffffffffffffffffffffffffffffffff1673ffffffffffffffffffffffffffffffffffffffff16815260200190815260200160002060008373ffffffffffffffffffffffffffffffffffffffff1673ffffffffffffffffffffffffffffffffffffffff16815260200190815260200160002060009054906101000a900460ff16905092915050565b600060026007541415610f38576040517f08c379a0000000000000000000000000000000000000000000000000000000008152600401610f2f906126d7565b60405180910390fd5b6002600781905550610f4a600861160b565b6000610f566008611621565b9050610f62338261162f565b610f6c818461164d565b33600a600083815260200190815260200160002060006101000a81548173ffffffffffffffffffffffffffffffffffffffff021916908373ffffffffffffffffffffffffffffffffffffffff1602179055503373ffffffffffffffffffffffffffffffffffffffff16817fcb5aab6c0bec1e5513425dfaad4acfbca112f8b0ffe1027bd614e3d98a3ee5d28542604051611007929190612487565b60405180910390a3809150506001600781905550919050565b60007f01ffc9a7000000000000000000000000000000000000000000000000000000007bffffffffffffffffffffffffffffffffffffffffffffffffffffffff1916827bffffffffffffffffffffffffffffffffffffffffffffffffffffffff1916149050919050565b60008073ffffffffffffffffffffffffffffffffffffffff166002600084815260200190815260200160002060009054906101000a900473ffffffffffffffffffffffffffffffffffffffff1673ffffffffffffffffffffffffffffffffffffffff1614159050919050565b600033905090565b816004600083815260200190815260200160002060006101000a81548173ffffffffffffffffffffffffffffffffffffffff021916908373ffffffffffffffffffffffffffffffffffffffff160217905550808273ffffffffffffffffffffffffffffffffffffffff1661117183610772565b73ffffffffffffffffffffffffffffffffffffffff167f8c5be1e5ebec7d5bd14f71427d1e84f3dd0314c0f7b2291e5b200ac8c7c3b92560405160405180910390a45050565b60006111c28261108a565b611201576040517f08c379a00000000000000000000000000000000000000000000000000000000081526004016111f890612537565b60405180910390fd5b600061120c83610772565b90508073ffffffffffffffffffffffffffffffffffffffff168473ffffffffffffffffffffffffffffffffffffffff16148061127b57508373ffffffffffffffffffffffffffffffffffffffff1661126384610518565b73ffffffffffffffffffffffffffffffffffffffff16145b8061128c575061128b8185610e5c565b5b91505092915050565b8273ffffffffffffffffffffffffffffffffffffffff166112b582610772565b73ffffffffffffffffffffffffffffffffffffffff161461130b576040517f08c379a000000000000000000000000000000000000000000000000000000000815260040161130290612637565b60405180910390fd5b600073ffffffffffffffffffffffffffffffffffffffff168273ffffffffffffffffffffffffffffffffffffffff16141561137b576040517f08c379a0000000000000000000000000000000000000000000000000000000008152600401611372906124f7565b60405180910390fd5b6113868383836116c1565b6113916000826110fe565b6001600360008573ffffffffffffffffffffffffffffffffffffffff1673ffffffffffffffffffffffffffffffffffffffff16815260200190815260200160002060008282546113e19190612863565b925050819055506001600360008473ffffffffffffffffffffffffffffffffffffffff1673ffffffffffffffffffffffffffffffffffffffff168152602001908152602001600020600082825461143891906127dc565b92505081905550816002600083815260200190815260200160002060006101000a81548173ffffffffffffffffffffffffffffffffffffffff021916908373ffffffffffffffffffffffffffffffffffffffff160217905550808273ffffffffffffffffffffffffffffffffffffffff168473ffffffffffffffffffffffffffffffffffffffff167fddf252ad1be2c89b69c2b068fc378daa952ba7f163c4a11628f55a4df523b3ef60405160405180910390a4505050565b6114fc848484611295565b611508848484846116c6565b611547576040517f08c379a000000000000000000000000000000000000000000000000000000000815260040161153e906124b7565b60405180910390fd5b50505050565b606060405180602001604052806000815250905090565b606061156f8261108a565b6115ae576040517f08c379a00000000000000000000000000000000000000000000000000000000081526004016115a590612657565b60405180910390fd5b60006115b861154d565b905060008151116115d85760405180602001604052806000815250611603565b806115e28461185d565b6040516020016115f39291906123bf565b6040516020818303038152906040525b915050919050565b6001816000016000828254019250508190555050565b600081600001549050919050565b6116498282604051806020016040528060008152506119be565b5050565b6116568261108a565b611695576040517f08c379a000000000000000000000000000000000000000000000000000000000815260040161168c906125b7565b60405180910390fd5b806006600084815260200190815260200160002090805190602001906116bc929190611bfa565b505050565b505050565b60006116e78473ffffffffffffffffffffffffffffffffffffffff16611a19565b15611850578373ffffffffffffffffffffffffffffffffffffffff1663150b7a026117106110f6565b8786866040518563ffffffff1660e01b815260040161173294939291906123fe565b602060405180830381600087803b15801561174c57600080fd5b505af192505050801561177d57506040513d601f19601f8201168201806040525081019061177a9190611fd6565b60015b611800573d80600081146117ad576040519150601f19603f3d011682016040523d82523d6000602084013e6117b2565b606091505b506000815114156117f8576040517f08c379a00000000000000000000000000000000000000000000000000000000081526004016117ef906124b7565b60405180910390fd5b805181602001fd5b63150b7a0260e01b7bffffffffffffffffffffffffffffffffffffffffffffffffffffffff1916817bffffffffffffffffffffffffffffffffffffffffffffffffffffffff191614915050611855565b600190505b949350505050565b606060008214156118a5576040518060400160405280600181526020017f300000000000000000000000000000000000000000000000000000000000000081525090506119b9565b600082905060005b600082146118d75780806118c0906129b0565b915050600a826118d09190612832565b91506118ad565b60008167ffffffffffffffff8111156118f3576118f2612ae6565b5b6040519080825280601f01601f1916602001820160405280156119255781602001600182028036833780820191505090505b5090505b600085146119b25760018261193e9190612863565b9150600a8561194d91906129f9565b603061195991906127dc565b60f81b81838151811061196f5761196e612ab7565b5b60200101907effffffffffffffffffffffffffffffffffffffffffffffffffffffffffffff1916908160001a905350600a856119ab9190612832565b9450611929565b8093505050505b919050565b6119c88383611a2c565b6119d560008484846116c6565b611a14576040517f08c379a0000000000000000000000000000000000000000000000000000000008152600401611a0b906124b7565b60405180910390fd5b505050565b600080823b905060008111915050919050565b600073ffffffffffffffffffffffffffffffffffffffff168273ffffffffffffffffffffffffffffffffffffffff161415611a9c576040517f08c379a0000000000000000000000000000000000000000000000000000000008152600401611a93906125d7565b60405180910390fd5b611aa58161108a565b15611ae5576040517f08c379a0000000000000000000000000000000000000000000000000000000008152600401611adc906124d7565b60405180910390fd5b611af1600083836116c1565b6001600360008473ffffffffffffffffffffffffffffffffffffffff1673ffffffffffffffffffffffffffffffffffffffff1681526020019081526020016000206000828254611b4191906127dc565b92505081905550816002600083815260200190815260200160002060006101000a81548173ffffffffffffffffffffffffffffffffffffffff021916908373ffffffffffffffffffffffffffffffffffffffff160217905550808273ffffffffffffffffffffffffffffffffffffffff16600073ffffffffffffffffffffffffffffffffffffffff167fddf252ad1be2c89b69c2b068fc378daa952ba7f163c4a11628f55a4df523b3ef60405160405180910390a45050565b828054611c069061294d565b90600052602060002090601f016020900481019282611c285760008555611c6f565b82601f10611c4157805160ff1916838001178555611c6f565b82800160010185558215611c6f579182015b82811115611c6e578251825591602001919060010190611c53565b5b509050611c7c9190611c80565b5090565b5b80821115611c99576000816000905550600101611c81565b5090565b6000611cb0611cab84612737565b612712565b905082815260208101848484011115611ccc57611ccb612b1a565b5b611cd784828561290b565b509392505050565b6000611cf2611ced84612768565b612712565b905082815260208101848484011115611d0e57611d0d612b1a565b5b611d1984828561290b565b509392505050565b600081359050611d3081613030565b92915050565b600081359050611d4581613047565b92915050565b600081359050611d5a8161305e565b92915050565b600081519050611d6f8161305e565b92915050565b600082601f830112611d8a57611d89612b15565b5b8135611d9a848260208601611c9d565b91505092915050565b600082601f830112611db857611db7612b15565b5b8135611dc8848260208601611cdf565b91505092915050565b600081359050611de081613075565b92915050565b600060208284031215611dfc57611dfb612b24565b5b6000611e0a84828501611d21565b91505092915050565b60008060408385031215611e2a57611e29612b24565b5b6000611e3885828601611d21565b9250506020611e4985828601611d21565b9150509250929050565b600080600060608486031215611e6c57611e6b612b24565b5b6000611e7a86828701611d21565b9350506020611e8b86828701611d21565b9250506040611e9c86828701611dd1565b9150509250925092565b60008060008060808587031215611ec057611ebf612b24565b5b6000611ece87828801611d21565b9450506020611edf87828801611d21565b9350506040611ef087828801611dd1565b925050606085013567ffffffffffffffff811115611f1157611f10612b1f565b5b611f1d87828801611d75565b91505092959194509250565b60008060408385031215611f4057611f3f612b24565b5b6000611f4e85828601611d21565b9250506020611f5f85828601611d36565b9150509250929050565b60008060408385031215611f8057611f7f612b24565b5b6000611f8e85828601611d21565b9250506020611f9f85828601611dd1565b9150509250929050565b600060208284031215611fbf57611fbe612b24565b5b6000611fcd84828501611d4b565b91505092915050565b600060208284031215611fec57611feb612b24565b5b6000611ffa84828501611d60565b91505092915050565b60006020828403121561201957612018612b24565b5b600082013567ffffffffffffffff81111561203757612036612b1f565b5b61204384828501611da3565b91505092915050565b60006020828403121561206257612061612b24565b5b600061207084828501611dd1565b91505092915050565b61208281612897565b82525050565b612091816128a9565b82525050565b60006120a282612799565b6120ac81856127af565b93506120bc81856020860161291a565b6120c581612b29565b840191505092915050565b60006120db826127a4565b6120e581856127c0565b93506120f581856020860161291a565b6120fe81612b29565b840191505092915050565b6000612114826127a4565b61211e81856127d1565b935061212e81856020860161291a565b80840191505092915050565b60006121476032836127c0565b915061215282612b3a565b604082019050919050565b600061216a601c836127c0565b915061217582612b89565b602082019050919050565b600061218d6024836127c0565b915061219882612bb2565b604082019050919050565b60006121b06019836127c0565b91506121bb82612c01565b602082019050919050565b60006121d3602c836127c0565b91506121de82612c2a565b604082019050919050565b60006121f66038836127c0565b915061220182612c79565b604082019050919050565b6000612219602a836127c0565b915061222482612cc8565b604082019050919050565b600061223c6029836127c0565b915061224782612d17565b604082019050919050565b600061225f602e836127c0565b915061226a82612d66565b604082019050919050565b60006122826020836127c0565b915061228d82612db5565b602082019050919050565b60006122a56031836127c0565b91506122b082612dde565b604082019050919050565b60006122c8602c836127c0565b91506122d382612e2d565b604082019050919050565b60006122eb6029836127c0565b91506122f682612e7c565b604082019050919050565b600061230e602f836127c0565b915061231982612ecb565b604082019050919050565b60006123316021836127c0565b915061233c82612f1a565b604082019050919050565b60006123546031836127c0565b915061235f82612f69565b604082019050919050565b60006123776021836127c0565b915061238282612fb8565b604082019050919050565b600061239a601f836127c0565b91506123a582613007565b602082019050919050565b6123b981612901565b82525050565b60006123cb8285612109565b91506123d78284612109565b91508190509392505050565b60006020820190506123f86000830184612079565b92915050565b60006080820190506124136000830187612079565b6124206020830186612079565b61242d60408301856123b0565b818103606083015261243f8184612097565b905095945050505050565b600060208201905061245f6000830184612088565b92915050565b6000602082019050818103600083015261247f81846120d0565b905092915050565b600060408201905081810360008301526124a181856120d0565b90506124b060208301846123b0565b9392505050565b600060208201905081810360008301526124d08161213a565b9050919050565b600060208201905081810360008301526124f08161215d565b9050919050565b6000602082019050818103600083015261251081612180565b9050919050565b60006020820190508181036000830152612530816121a3565b9050919050565b60006020820190508181036000830152612550816121c6565b9050919050565b60006020820190508181036000830152612570816121e9565b9050919050565b600060208201905081810360008301526125908161220c565b9050919050565b600060208201905081810360008301526125b08161222f565b9050919050565b600060208201905081810360008301526125d081612252565b9050919050565b600060208201905081810360008301526125f081612275565b9050919050565b6000602082019050818103600083015261261081612298565b9050919050565b60006020820190508181036000830152612630816122bb565b9050919050565b60006020820190508181036000830152612650816122de565b9050919050565b6000602082019050818103600083015261267081612301565b9050919050565b6000602082019050818103600083015261269081612324565b9050919050565b600060208201905081810360008301526126b081612347565b9050919050565b600060208201905081810360008301526126d08161236a565b9050919050565b600060208201905081810360008301526126f08161238d565b9050919050565b600060208201905061270c60008301846123b0565b92915050565b600061271c61272d565b9050612728828261297f565b919050565b6000604051905090565b600067ffffffffffffffff82111561275257612751612ae6565b5b61275b82612b29565b9050602081019050919050565b600067ffffffffffffffff82111561278357612782612ae6565b5b61278c82612b29565b9050602081019050919050565b600081519050919050565b600081519050919050565b600082825260208201905092915050565b600082825260208201905092915050565b600081905092915050565b60006127e782612901565b91506127f283612901565b9250827fffffffffffffffffffffffffffffffffffffffffffffffffffffffffffffffff0382111561282757612826612a2a565b5b828201905092915050565b600061283d82612901565b915061284883612901565b92508261285857612857612a59565b5b828204905092915050565b600061286e82612901565b915061287983612901565b92508282101561288c5761288b612a2a565b5b828203905092915050565b60006128a2826128e1565b9050919050565b60008115159050919050565b60007fffffffff0000000000000000000000000000000000000000000000000000000082169050919050565b600073ffffffffffffffffffffffffffffffffffffffff82169050919050565b6000819050919050565b82818337600083830152505050565b60005b8381101561293857808201518184015260208101905061291d565b83811115612947576000848401525b50505050565b6000600282049050600182168061296557607f821691505b6020821081141561297957612978612a88565b5b50919050565b61298882612b29565b810181811067ffffffffffffffff821117156129a7576129a6612ae6565b5b80604052505050565b60006129bb82612901565b91507fffffffffffffffffffffffffffffffffffffffffffffffffffffffffffffffff8214156129ee576129ed612a2a565b5b600182019050919050565b6000612a0482612901565b9150612a0f83612901565b925082612a1f57612a1e612a59565b5b828206905092915050565b7f4e487b7100000000000000000000000000000000000000000000000000000000600052601160045260246000fd5b7f4e487b7100000000000000000000000000000000000000000000000000000000600052601260045260246000fd5b7f4e487b7100000000000000000000000000000000000000000000000000000000600052602260045260246000fd5b7f4e487b7100000000000000000000000000000000000000000000000000000000600052603260045260246000fd5b7f4e487b7100000000000000000000000000000000000000000000000000000000600052604160045260246000fd5b600080fd5b600080fd5b600080fd5b600080fd5b6000601f19601f8301169050919050565b7f4552433732313a207472616e7366657220746f206e6f6e20455243373231526560008201527f63656976657220696d706c656d656e7465720000000000000000000000000000602082015250565b7f4552433732313a20746f6b656e20616c7265616479206d696e74656400000000600082015250565b7f4552433732313a207472616e7366657220746f20746865207a65726f2061646460008201527f7265737300000000000000000000000000000000000000000000000000000000602082015250565b7f4552433732313a20617070726f766520746f2063616c6c657200000000000000600082015250565b7f4552433732313a206f70657261746f7220717565727920666f72206e6f6e657860008201527f697374656e7420746f6b656e0000000000000000000000000000000000000000602082015250565b7f4552433732313a20617070726f76652063616c6c6572206973206e6f74206f7760008201527f6e6572206e6f7220617070726f76656420666f7220616c6c0000000000000000602082015250565b7f4552433732313a2062616c616e636520717565727920666f7220746865207a6560008201527f726f206164647265737300000000000000000000000000000000000000000000602082015250565b7f4552433732313a206f776e657220717565727920666f72206e6f6e657869737460008201527f656e7420746f6b656e0000000000000000000000000000000000000000000000602082015250565b7f45524337323155524953746f726167653a2055524920736574206f66206e6f6e60008201527f6578697374656e7420746f6b656e000000000000000000000000000000000000602082015250565b7f4552433732313a206d696e7420746f20746865207a65726f2061646472657373600082015250565b7f45524337323155524953746f726167653a2055524920717565727920666f722060008201527f6e6f6e6578697374656e7420746f6b656e000000000000000000000000000000602082015250565b7f4552433732313a20617070726f76656420717565727920666f72206e6f6e657860008201527f697374656e7420746f6b656e0000000000000000000000000000000000000000602082015250565b7f4552433732313a207472616e73666572206f6620746f6b656e2074686174206960008201527f73206e6f74206f776e0000000000000000000000000000000000000000000000602082015250565b7f4552433732314d657461646174613a2055524920717565727920666f72206e6f60008201527f6e6578697374656e7420746f6b656e0000000000000000000000000000000000602082015250565b7f4552433732313a20617070726f76616c20746f2063757272656e74206f776e6560008201527f7200000000000000000000000000000000000000000000000000000000000000602082015250565b7f4552433732313a207472616e736665722063616c6c6572206973206e6f74206f60008201527f776e6572206e6f7220617070726f766564000000000000000000000000000000602082015250565b7f4f6e6c792061646d696e2063616e2063616c6c20746869732066756e6374696f60008201527f6e00000000000000000000000000000000000000000000000000000000000000602082015250565b7f5265656e7472616e637947756172643a207265656e7472616e742063616c6c00600082015250565b61303981612897565b811461304457600080fd5b50565b613050816128a9565b811461305b57600080fd5b50565b613067816128b5565b811461307257600080fd5b50565b61307e81612901565b811461308957600080fd5b5056fea26469706673582212202257d32f31ff24a205abfefc60aacf412dade89e1fc4c736b871118c36891e2c64736f6c63430008070033",
  "immutableReferences": {},
  "source": "pragma solidity ^0.8.0;\n\nimport \"@openzeppelin/contracts/token/ERC721/ERC721.sol\";\nimport \"@openzeppelin/contracts/token/ERC721/extensions/ERC721URIStorage.sol\";\nimport \"@openzeppelin/contracts/utils/Counters.sol\";\nimport \"@openzeppelin/contracts/security/ReentrancyGuard.sol\";\n\ncontract NFT is ERC721URIStorage, ReentrancyGuard {\n    using Counters for Counters.Counter;\n\n    Counters.Counter private _tokenIds;\n\n    mapping (address => bool) private _verified;\n\n    mapping (uint256 => address) private _creators;\n\n    address private _admin;\n\n    constructor (address admin_) ERC721(\"NFT\", \"NFT\") {\n        _admin = admin_;\n    }\n\n    modifier onlyAdmin {\n        require (\n            msg.sender == _admin,\n            \"Only admin can call this function\"\n        );\n        _;\n    }\n\n    event Mint (\n        uint256 indexed tokenId,\n        address indexed creator,\n        string tokenURI,\n        uint256 timestamp\n    );\n\n    event Verification (\n        address indexed creator,\n        address indexed admin,\n        uint256 timestamp\n    );\n\n    function isVerified(address addr) public view returns (bool) {\n        return _verified[addr];\n    }\n\n    function creatorOf(uint256 tokenId) public view returns (address) \n    {\n        return _creators[tokenId];\n    }\n\n    function mintNFT(string memory tokenURI) \n        public \n        nonReentrant \n        returns (uint256) \n    {\n        _tokenIds.increment();\n\n        uint256 newId = _tokenIds.current();\n        _safeMint(msg.sender, newId);\n        _setTokenURI(newId, tokenURI);\n        _creators[newId] = msg.sender;\n\n        emit Mint(\n            newId,\n            msg.sender,\n            tokenURI,\n            block.timestamp\n        );\n\n        return newId;\n    }\n\n    function verify(address creator) public onlyAdmin {\n        require (!isVerified(creator));\n        _verified[creator] = true;\n\n        emit Verification(\n            creator,\n            msg.sender,\n            block.timestamp\n        );\n    }\n}",
  "sourcePath": "/Users/sherlock/ChainLab/NFTPlayerOne/contracts/NFT.sol",
  "compiler": {
    "name": "solc",
    "version": "0.8.7+commit.e28d00a7.Emscripten.clang"
  },
  "schemaVersion": "3.4.1",
  "updatedAt": "2021-09-07T06:43:09.646Z",
  "networkType": "ethereum",
  "devdoc": {
    "kind": "dev",
    "methods": {
      "approve(address,uint256)": {
        "details": "See {IERC721-approve}."
      },
      "balanceOf(address)": {
        "details": "See {IERC721-balanceOf}."
      },
      "getApproved(uint256)": {
        "details": "See {IERC721-getApproved}."
      },
      "isApprovedForAll(address,address)": {
        "details": "See {IERC721-isApprovedForAll}."
      },
      "name()": {
        "details": "See {IERC721Metadata-name}."
      },
      "ownerOf(uint256)": {
        "details": "See {IERC721-ownerOf}."
      },
      "safeTransferFrom(address,address,uint256)": {
        "details": "See {IERC721-safeTransferFrom}."
      },
      "safeTransferFrom(address,address,uint256,bytes)": {
        "details": "See {IERC721-safeTransferFrom}."
      },
      "setApprovalForAll(address,bool)": {
        "details": "See {IERC721-setApprovalForAll}."
      },
      "supportsInterface(bytes4)": {
        "details": "See {IERC165-supportsInterface}."
      },
      "symbol()": {
        "details": "See {IERC721Metadata-symbol}."
      },
      "tokenURI(uint256)": {
        "details": "See {IERC721Metadata-tokenURI}."
      },
      "transferFrom(address,address,uint256)": {
        "details": "See {IERC721-transferFrom}."
      }
    },
    "version": 1
  },
  "userdoc": {
    "kind": "user",
    "methods": {},
    "version": 1
  }
}