{
  "contractName": "Market",
  "abi": [
    {
      "inputs": [
        {
          "internalType": "address",
          "name": "admin_",
          "type": "address"
        },
        {
          "internalType": "address",
          "name": "nftAddr_",
          "type": "address"
        }
      ],
      "stateMutability": "nonpayable",
      "type": "constructor"
    },
    {
      "anonymous": false,
      "inputs": [
        {
          "indexed": false,
          "internalType": "uint256",
          "name": "tokenId",
          "type": "uint256"
        },
        {
          "indexed": true,
          "internalType": "address",
          "name": "from",
          "type": "address"
        },
        {
          "indexed": false,
          "internalType": "uint256",
          "name": "timestamp",
          "type": "uint256"
        }
      ],
      "name": "Cancellation",
      "type": "event"
    },
    {
      "anonymous": false,
      "inputs": [
        {
          "indexed": false,
          "internalType": "uint256",
          "name": "tokenId",
          "type": "uint256"
        },
        {
          "indexed": true,
          "internalType": "address",
          "name": "from",
          "type": "address"
        },
        {
          "indexed": false,
          "internalType": "uint256",
          "name": "oldPrice",
          "type": "uint256"
        },
        {
          "indexed": false,
          "internalType": "uint256",
          "name": "newPrice",
          "type": "uint256"
        },
        {
          "indexed": false,
          "internalType": "uint256",
          "name": "timestamp",
          "type": "uint256"
        }
      ],
      "name": "Edit",
      "type": "event"
    },
    {
      "anonymous": false,
      "inputs": [
        {
          "indexed": true,
          "internalType": "address",
          "name": "admin",
          "type": "address"
        },
        {
          "indexed": false,
          "internalType": "uint256",
          "name": "amount",
          "type": "uint256"
        },
        {
          "indexed": false,
          "internalType": "uint256",
          "name": "timestamp",
          "type": "uint256"
        }
      ],
      "name": "FeeWithdrawal",
      "type": "event"
    },
    {
      "anonymous": false,
      "inputs": [
        {
          "indexed": false,
          "internalType": "uint256",
          "name": "tokenId",
          "type": "uint256"
        },
        {
          "indexed": true,
          "internalType": "address",
          "name": "from",
          "type": "address"
        },
        {
          "indexed": false,
          "internalType": "uint256",
          "name": "price",
          "type": "uint256"
        },
        {
          "indexed": false,
          "internalType": "uint256",
          "name": "timestamp",
          "type": "uint256"
        }
      ],
      "name": "Listing",
      "type": "event"
    },
    {
      "anonymous": false,
      "inputs": [
        {
          "indexed": true,
          "internalType": "address",
          "name": "contractAddr",
          "type": "address"
        },
        {
          "indexed": true,
          "internalType": "address",
          "name": "admin",
          "type": "address"
        },
        {
          "indexed": false,
          "internalType": "uint256",
          "name": "timestamp",
          "type": "uint256"
        }
      ],
      "name": "NFTContractRegistration",
      "type": "event"
    },
    {
      "anonymous": false,
      "inputs": [
        {
          "indexed": false,
          "internalType": "uint256",
          "name": "tokenId",
          "type": "uint256"
        },
        {
          "indexed": true,
          "internalType": "address",
          "name": "buyer",
          "type": "address"
        },
        {
          "indexed": true,
          "internalType": "address",
          "name": "seller",
          "type": "address"
        },
        {
          "indexed": false,
          "internalType": "uint256",
          "name": "price",
          "type": "uint256"
        },
        {
          "indexed": false,
          "internalType": "uint256",
          "name": "timestamp",
          "type": "uint256"
        }
      ],
      "name": "Purchase",
      "type": "event"
    },
    {
      "anonymous": false,
      "inputs": [
        {
          "indexed": true,
          "internalType": "address",
          "name": "creator",
          "type": "address"
        },
        {
          "indexed": false,
          "internalType": "uint256",
          "name": "amount",
          "type": "uint256"
        },
        {
          "indexed": false,
          "internalType": "uint256",
          "name": "timestamp",
          "type": "uint256"
        }
      ],
      "name": "RewardWithdrawal",
      "type": "event"
    },
    {
      "inputs": [
        {
          "internalType": "uint256",
          "name": "tokenId",
          "type": "uint256"
        }
      ],
      "name": "isListed",
      "outputs": [
        {
          "internalType": "bool",
          "name": "",
          "type": "bool"
        }
      ],
      "stateMutability": "view",
      "type": "function",
      "constant": true
    },
    {
      "inputs": [
        {
          "internalType": "uint256",
          "name": "tokenId",
          "type": "uint256"
        }
      ],
      "name": "priceOf",
      "outputs": [
        {
          "internalType": "uint256",
          "name": "",
          "type": "uint256"
        }
      ],
      "stateMutability": "view",
      "type": "function",
      "constant": true
    },
    {
      "inputs": [
        {
          "internalType": "address",
          "name": "creator",
          "type": "address"
        }
      ],
      "name": "rewardOf",
      "outputs": [
        {
          "internalType": "uint256",
          "name": "",
          "type": "uint256"
        }
      ],
      "stateMutability": "view",
      "type": "function",
      "constant": true
    },
    {
      "inputs": [],
      "name": "feeBalance",
      "outputs": [
        {
          "internalType": "uint256",
          "name": "",
          "type": "uint256"
        }
      ],
      "stateMutability": "view",
      "type": "function",
      "constant": true
    },
    {
      "inputs": [
        {
          "internalType": "address",
          "name": "nftAddr",
          "type": "address"
        },
        {
          "internalType": "uint256",
          "name": "tokenId",
          "type": "uint256"
        },
        {
          "internalType": "uint256",
          "name": "price",
          "type": "uint256"
        }
      ],
      "name": "listToken",
      "outputs": [],
      "stateMutability": "nonpayable",
      "type": "function"
    },
    {
      "inputs": [
        {
          "internalType": "address",
          "name": "nftAddr",
          "type": "address"
        },
        {
          "internalType": "uint256",
          "name": "tokenId",
          "type": "uint256"
        }
      ],
      "name": "cancelListing",
      "outputs": [],
      "stateMutability": "nonpayable",
      "type": "function"
    },
    {
      "inputs": [
        {
          "internalType": "address",
          "name": "nftAddr",
          "type": "address"
        },
        {
          "internalType": "uint256",
          "name": "tokenId",
          "type": "uint256"
        },
        {
          "internalType": "uint256",
          "name": "price",
          "type": "uint256"
        }
      ],
      "name": "setPrice",
      "outputs": [],
      "stateMutability": "nonpayable",
      "type": "function"
    },
    {
      "inputs": [
        {
          "internalType": "address",
          "name": "nftAddr",
          "type": "address"
        },
        {
          "internalType": "uint256",
          "name": "tokenId",
          "type": "uint256"
        }
      ],
      "name": "buyToken",
      "outputs": [],
      "stateMutability": "payable",
      "type": "function",
      "payable": true
    },
    {
      "inputs": [
        {
          "internalType": "uint256",
          "name": "amount",
          "type": "uint256"
        }
      ],
      "name": "withdrawReward",
      "outputs": [],
      "stateMutability": "nonpayable",
      "type": "function"
    },
    {
      "inputs": [
        {
          "internalType": "uint256",
          "name": "amount",
          "type": "uint256"
        }
      ],
      "name": "withdrawFee",
      "outputs": [],
      "stateMutability": "nonpayable",
      "type": "function"
    },
    {
      "inputs": [
        {
          "internalType": "address",
          "name": "nftAddr",
          "type": "address"
        }
      ],
      "name": "registerNFTContract",
      "outputs": [],
      "stateMutability": "nonpayable",
      "type": "function"
    }
  ],
  "bytecode": "0x60806040523480156200001157600080fd5b50604051620026ca380380620026ca8339818101604052810190620000379190620000f7565b600160008190555081600160006101000a81548173ffffffffffffffffffffffffffffffffffffffff021916908373ffffffffffffffffffffffffffffffffffffffff1602179055506001600460008373ffffffffffffffffffffffffffffffffffffffff1673ffffffffffffffffffffffffffffffffffffffff16815260200190815260200160002060006101000a81548160ff021916908315150217905550505062000191565b600081519050620000f18162000177565b92915050565b6000806040838503121562000111576200011062000172565b5b60006200012185828601620000e0565b92505060206200013485828601620000e0565b9150509250929050565b60006200014b8262000152565b9050919050565b600073ffffffffffffffffffffffffffffffffffffffff82169050919050565b600080fd5b62000182816200013e565b81146200018e57600080fd5b50565b61252980620001a16000396000f3fe60806040526004361061009c5760003560e01c806368f8fc101161006457806368f8fc10146101845780637e07590d146101a0578063b2ddee06146101c9578063b9186d7d146101f2578063be3576161461022f578063fcce4883146102585761009c565b806315becd2d146100a15780631d62ebd9146100ca5780633011e16a14610107578063523a3f081461013057806360b71d4e14610159575b600080fd5b3480156100ad57600080fd5b506100c860048036038101906100c39190611824565b610295565b005b3480156100d657600080fd5b506100f160048036038101906100ec9190611824565b6103e5565b6040516100fe9190611ebe565b60405180910390f35b34801561011357600080fd5b5061012e600480360381019061012991906118be565b61042e565b005b34801561013c57600080fd5b506101576004803603810190610152919061193e565b61067d565b005b34801561016557600080fd5b5061016e61088a565b60405161017b9190611ebe565b60405180910390f35b61019e6004803603810190610199919061187e565b610894565b005b3480156101ac57600080fd5b506101c760048036038101906101c291906118be565b610d1c565b005b3480156101d557600080fd5b506101f060048036038101906101eb919061187e565b61123e565b005b3480156101fe57600080fd5b506102196004803603810190610214919061193e565b6114a9565b6040516102269190611ebe565b60405180910390f35b34801561023b57600080fd5b506102566004803603810190610251919061193e565b611511565b005b34801561026457600080fd5b5061027f600480360381019061027a919061193e565b6116b2565b60405161028c9190611c83565b60405180910390f35b600160009054906101000a900473ffffffffffffffffffffffffffffffffffffffff1673ffffffffffffffffffffffffffffffffffffffff163373ffffffffffffffffffffffffffffffffffffffff1614610325576040517f08c379a000000000000000000000000000000000000000000000000000000000815260040161031c90611e3e565b60405180910390fd5b6001600460008373ffffffffffffffffffffffffffffffffffffffff1673ffffffffffffffffffffffffffffffffffffffff16815260200190815260200160002060006101000a81548160ff0219169083151502179055503373ffffffffffffffffffffffffffffffffffffffff168173ffffffffffffffffffffffffffffffffffffffff167ffb1a99d66d3fd72faa1822b9cde3bade25e0cbee25e5ec0383ea0cde641f42aa426040516103da9190611ebe565b60405180910390a350565b6000600560008373ffffffffffffffffffffffffffffffffffffffff1673ffffffffffffffffffffffffffffffffffffffff168152602001908152602001600020549050919050565b82600460008273ffffffffffffffffffffffffffffffffffffffff1673ffffffffffffffffffffffffffffffffffffffff16815260200190815260200160002060009054906101000a900460ff166104bb576040517f08c379a00000000000000000000000000000000000000000000000000000000081526004016104b290611dbe565b60405180910390fd5b826104c5816116b2565b610504576040517f08c379a00000000000000000000000000000000000000000000000000000000081526004016104fb90611d7e565b60405180910390fd5b3373ffffffffffffffffffffffffffffffffffffffff166002600083815260200190815260200160002060010160009054906101000a900473ffffffffffffffffffffffffffffffffffffffff1673ffffffffffffffffffffffffffffffffffffffff16146105a8576040517f08c379a000000000000000000000000000000000000000000000000000000000815260040161059f90611c9e565b60405180910390fd5b600083116105eb576040517f08c379a00000000000000000000000000000000000000000000000000000000081526004016105e290611e5e565b60405180910390fd5b6000600260008681526020019081526020016000206000015490508360026000878152602001908152602001600020600001819055503373ffffffffffffffffffffffffffffffffffffffff167ffa650d68020ff9eb9ea0a0bc2c654f4c8a397180a5973ca1fbdada95db46fa238683874260405161066d9493929190611f39565b60405180910390a2505050505050565b600260005414156106c3576040517f08c379a00000000000000000000000000000000000000000000000000000000081526004016106ba90611e7e565b60405180910390fd5b60026000819055506000600560003373ffffffffffffffffffffffffffffffffffffffff1673ffffffffffffffffffffffffffffffffffffffff168152602001908152602001600020541161074d576040517f08c379a000000000000000000000000000000000000000000000000000000000815260040161074490611cbe565b60405180910390fd5b600560003373ffffffffffffffffffffffffffffffffffffffff1673ffffffffffffffffffffffffffffffffffffffff168152602001908152602001600020548111156107cf576040517f08c379a00000000000000000000000000000000000000000000000000000000081526004016107c690611d5e565b60405180910390fd5b6107d933826116dc565b80600560003373ffffffffffffffffffffffffffffffffffffffff1673ffffffffffffffffffffffffffffffffffffffff1681526020019081526020016000206000828254610828919061207b565b925050819055503373ffffffffffffffffffffffffffffffffffffffff167f33c8b13439ce4d29880c8bc5aada8194ded575a893a529ed5941f8e41342a3338242604051610877929190611ed9565b60405180910390a2600160008190555050565b6000600654905090565b600260005414156108da576040517f08c379a00000000000000000000000000000000000000000000000000000000081526004016108d190611e7e565b60405180910390fd5b600260008190555081600460008273ffffffffffffffffffffffffffffffffffffffff1673ffffffffffffffffffffffffffffffffffffffff16815260200190815260200160002060009054906101000a900460ff1661096f576040517f08c379a000000000000000000000000000000000000000000000000000000000815260040161096690611dbe565b60405180910390fd5b610978826116b2565b6109b7576040517f08c379a00000000000000000000000000000000000000000000000000000000081526004016109ae90611d7e565b60405180910390fd5b60006002600084815260200190815260200160002060010160009054906101000a900473ffffffffffffffffffffffffffffffffffffffff1690503373ffffffffffffffffffffffffffffffffffffffff168173ffffffffffffffffffffffffffffffffffffffff161415610a61576040517f08c379a0000000000000000000000000000000000000000000000000000000008152600401610a5890611cde565b60405180910390fd5b6000610a6c846114a9565b9050803414610ab0576040517f08c379a0000000000000000000000000000000000000000000000000000000008152600401610aa790611dde565b60405180910390fd5b600085905060006014601384610ac69190612021565b610ad09190611ff0565b905060006064600385610ae39190612021565b610aed9190611ff0565b9050610af985836116dc565b80600560008573ffffffffffffffffffffffffffffffffffffffff1663589a17438b6040518263ffffffff1660e01b8152600401610b379190611ebe565b60206040518083038186803b158015610b4f57600080fd5b505afa158015610b63573d6000803e3d6000fd5b505050506040513d601f19601f82011682018060405250810190610b879190611851565b73ffffffffffffffffffffffffffffffffffffffff1673ffffffffffffffffffffffffffffffffffffffff1681526020019081526020016000206000828254610bd09190611f9a565b92505081905550808285610be4919061207b565b610bee919061207b565b60066000828254610bff9190611f9a565b925050819055508273ffffffffffffffffffffffffffffffffffffffff166342842e0e30338a6040518463ffffffff1660e01b8152600401610c4393929190611c4c565b600060405180830381600087803b158015610c5d57600080fd5b505af1158015610c71573d6000803e3d6000fd5b5050505060006003600089815260200190815260200160002060006101000a81548160ff0219169083151502179055508473ffffffffffffffffffffffffffffffffffffffff163373ffffffffffffffffffffffffffffffffffffffff167f13b8657d4ddfa4b81968610296805d8992e82313cd1a08959a3208cc3da3fed0898742604051610d0293929190611f02565b60405180910390a350505050505060016000819055505050565b82600460008273ffffffffffffffffffffffffffffffffffffffff1673ffffffffffffffffffffffffffffffffffffffff16815260200190815260200160002060009054906101000a900460ff16610da9576040517f08c379a0000000000000000000000000000000000000000000000000000000008152600401610da090611dbe565b60405180910390fd5b60008211610dec576040517f08c379a0000000000000000000000000000000000000000000000000000000008152600401610de390611e5e565b60405180910390fd5b610df5836116b2565b15610e35576040517f08c379a0000000000000000000000000000000000000000000000000000000008152600401610e2c90611dfe565b60405180910390fd5b60008490503373ffffffffffffffffffffffffffffffffffffffff168173ffffffffffffffffffffffffffffffffffffffff16636352211e866040518263ffffffff1660e01b8152600401610e8a9190611ebe565b60206040518083038186803b158015610ea257600080fd5b505afa158015610eb6573d6000803e3d6000fd5b505050506040513d601f19601f82011682018060405250810190610eda9190611851565b73ffffffffffffffffffffffffffffffffffffffff1614610f30576040517f08c379a0000000000000000000000000000000000000000000000000000000008152600401610f2790611cfe565b60405180910390fd5b3073ffffffffffffffffffffffffffffffffffffffff168173ffffffffffffffffffffffffffffffffffffffff1663081812fc866040518263ffffffff1660e01b8152600401610f809190611ebe565b60206040518083038186803b158015610f9857600080fd5b505afa158015610fac573d6000803e3d6000fd5b505050506040513d601f19601f82011682018060405250810190610fd09190611851565b73ffffffffffffffffffffffffffffffffffffffff16148061107957508073ffffffffffffffffffffffffffffffffffffffff1663e985e9c533306040518363ffffffff1660e01b8152600401611028929190611c23565b60206040518083038186803b15801561104057600080fd5b505afa158015611054573d6000803e3d6000fd5b505050506040513d601f19601f820116820180604052508101906110789190611911565b5b6110b8576040517f08c379a00000000000000000000000000000000000000000000000000000000081526004016110af90611e1e565b60405180910390fd5b8073ffffffffffffffffffffffffffffffffffffffff166323b872dd3330876040518463ffffffff1660e01b81526004016110f593929190611c4c565b600060405180830381600087803b15801561110f57600080fd5b505af1158015611123573d6000803e3d6000fd5b5050505060405180604001604052808481526020013373ffffffffffffffffffffffffffffffffffffffff16815250600260008681526020019081526020016000206000820151816000015560208201518160010160006101000a81548173ffffffffffffffffffffffffffffffffffffffff021916908373ffffffffffffffffffffffffffffffffffffffff16021790555090505060016003600086815260200190815260200160002060006101000a81548160ff0219169083151502179055503373ffffffffffffffffffffffffffffffffffffffff167fd72d4503c670d7268f86cb5d5d94df61a0b1e00e6bb60ee2e5c8bf882afc15b085854260405161122f93929190611f02565b60405180910390a25050505050565b81600460008273ffffffffffffffffffffffffffffffffffffffff1673ffffffffffffffffffffffffffffffffffffffff16815260200190815260200160002060009054906101000a900460ff166112cb576040517f08c379a00000000000000000000000000000000000000000000000000000000081526004016112c290611dbe565b60405180910390fd5b816112d5816116b2565b611314576040517f08c379a000000000000000000000000000000000000000000000000000000000815260040161130b90611d7e565b60405180910390fd5b3373ffffffffffffffffffffffffffffffffffffffff166002600083815260200190815260200160002060010160009054906101000a900473ffffffffffffffffffffffffffffffffffffffff1673ffffffffffffffffffffffffffffffffffffffff16146113b8576040517f08c379a00000000000000000000000000000000000000000000000000000000081526004016113af90611c9e565b60405180910390fd5b8373ffffffffffffffffffffffffffffffffffffffff166342842e0e3033866040518463ffffffff1660e01b81526004016113f593929190611c4c565b600060405180830381600087803b15801561140f57600080fd5b505af1158015611423573d6000803e3d6000fd5b5050505060006003600085815260200190815260200160002060006101000a81548160ff0219169083151502179055503373ffffffffffffffffffffffffffffffffffffffff167f5524851b24fa9c2c0f8fe409fddd8d3ab3d151115ce2c59379945816fbe0c3e6844260405161149b929190611ed9565b60405180910390a250505050565b60006114b4826116b2565b6114f3576040517f08c379a00000000000000000000000000000000000000000000000000000000081526004016114ea90611e9e565b60405180910390fd5b60026000838152602001908152602001600020600001549050919050565b60026000541415611557576040517f08c379a000000000000000000000000000000000000000000000000000000000815260040161154e90611e7e565b60405180910390fd5b6002600081905550600160009054906101000a900473ffffffffffffffffffffffffffffffffffffffff1673ffffffffffffffffffffffffffffffffffffffff163373ffffffffffffffffffffffffffffffffffffffff16146115ef576040517f08c379a00000000000000000000000000000000000000000000000000000000081526004016115e690611e3e565b60405180910390fd5b600654811115611634576040517f08c379a000000000000000000000000000000000000000000000000000000000815260040161162b90611d9e565b60405180910390fd5b61163e33826116dc565b8060066000828254611650919061207b565b925050819055503373ffffffffffffffffffffffffffffffffffffffff167f79a8a9c106fb939c0afe54a62b9737d350af2909ec5ce882c6e19dbf4dc6d1d0824260405161169f929190611ed9565b60405180910390a2600160008190555050565b60006003600083815260200190815260200160002060009054906101000a900460ff169050919050565b8047101561171f576040517f08c379a000000000000000000000000000000000000000000000000000000000815260040161171690611d3e565b60405180910390fd5b60008273ffffffffffffffffffffffffffffffffffffffff168260405161174590611c0e565b60006040518083038185875af1925050503d8060008114611782576040519150601f19603f3d011682016040523d82523d6000602084013e611787565b606091505b50509050806117cb576040517f08c379a00000000000000000000000000000000000000000000000000000000081526004016117c290611d1e565b60405180910390fd5b505050565b6000813590506117df816124ae565b92915050565b6000815190506117f4816124ae565b92915050565b600081519050611809816124c5565b92915050565b60008135905061181e816124dc565b92915050565b60006020828403121561183a57611839612155565b5b6000611848848285016117d0565b91505092915050565b60006020828403121561186757611866612155565b5b6000611875848285016117e5565b91505092915050565b6000806040838503121561189557611894612155565b5b60006118a3858286016117d0565b92505060206118b48582860161180f565b9150509250929050565b6000806000606084860312156118d7576118d6612155565b5b60006118e5868287016117d0565b93505060206118f68682870161180f565b92505060406119078682870161180f565b9150509250925092565b60006020828403121561192757611926612155565b5b6000611935848285016117fa565b91505092915050565b60006020828403121561195457611953612155565b5b60006119628482850161180f565b91505092915050565b611974816120af565b82525050565b611983816120c1565b82525050565b6000611996602783611f89565b91506119a18261215a565b604082019050919050565b60006119b9601683611f89565b91506119c4826121a9565b602082019050919050565b60006119dc601a83611f89565b91506119e7826121d2565b602082019050919050565b60006119ff601383611f89565b9150611a0a826121fb565b602082019050919050565b6000611a22603a83611f89565b9150611a2d82612224565b604082019050919050565b6000611a45601d83611f89565b9150611a5082612273565b602082019050919050565b6000611a68602183611f89565b9150611a738261229c565b604082019050919050565b6000611a8b600d83611f89565b9150611a96826122eb565b602082019050919050565b6000611aae601e83611f89565b9150611ab982612314565b602082019050919050565b6000611ad1601e83611f89565b9150611adc8261233d565b602082019050919050565b6000611af4600f83611f89565b9150611aff82612366565b602082019050919050565b6000611b17601483611f89565b9150611b228261238f565b602082019050919050565b6000611b3a600083611f7e565b9150611b45826123b8565b600082019050919050565b6000611b5d601c83611f89565b9150611b68826123bb565b602082019050919050565b6000611b80602183611f89565b9150611b8b826123e4565b604082019050919050565b6000611ba3600d83611f89565b9150611bae82612433565b602082019050919050565b6000611bc6601f83611f89565b9150611bd18261245c565b602082019050919050565b6000611be9601083611f89565b9150611bf482612485565b602082019050919050565b611c08816120ed565b82525050565b6000611c1982611b2d565b9150819050919050565b6000604082019050611c38600083018561196b565b611c45602083018461196b565b9392505050565b6000606082019050611c61600083018661196b565b611c6e602083018561196b565b611c7b6040830184611bff565b949350505050565b6000602082019050611c98600083018461197a565b92915050565b60006020820190508181036000830152611cb781611989565b9050919050565b60006020820190508181036000830152611cd7816119ac565b9050919050565b60006020820190508181036000830152611cf7816119cf565b9050919050565b60006020820190508181036000830152611d17816119f2565b9050919050565b60006020820190508181036000830152611d3781611a15565b9050919050565b60006020820190508181036000830152611d5781611a38565b9050919050565b60006020820190508181036000830152611d7781611a5b565b9050919050565b60006020820190508181036000830152611d9781611a7e565b9050919050565b60006020820190508181036000830152611db781611aa1565b9050919050565b60006020820190508181036000830152611dd781611ac4565b9050919050565b60006020820190508181036000830152611df781611ae7565b9050919050565b60006020820190508181036000830152611e1781611b0a565b9050919050565b60006020820190508181036000830152611e3781611b50565b9050919050565b60006020820190508181036000830152611e5781611b73565b9050919050565b60006020820190508181036000830152611e7781611b96565b9050919050565b60006020820190508181036000830152611e9781611bb9565b9050919050565b60006020820190508181036000830152611eb781611bdc565b9050919050565b6000602082019050611ed36000830184611bff565b92915050565b6000604082019050611eee6000830185611bff565b611efb6020830184611bff565b9392505050565b6000606082019050611f176000830186611bff565b611f246020830185611bff565b611f316040830184611bff565b949350505050565b6000608082019050611f4e6000830187611bff565b611f5b6020830186611bff565b611f686040830185611bff565b611f756060830184611bff565b95945050505050565b600081905092915050565b600082825260208201905092915050565b6000611fa5826120ed565b9150611fb0836120ed565b9250827fffffffffffffffffffffffffffffffffffffffffffffffffffffffffffffffff03821115611fe557611fe46120f7565b5b828201905092915050565b6000611ffb826120ed565b9150612006836120ed565b92508261201657612015612126565b5b828204905092915050565b600061202c826120ed565b9150612037836120ed565b9250817fffffffffffffffffffffffffffffffffffffffffffffffffffffffffffffffff04831182151516156120705761206f6120f7565b5b828202905092915050565b6000612086826120ed565b9150612091836120ed565b9250828210156120a4576120a36120f7565b5b828203905092915050565b60006120ba826120cd565b9050919050565b60008115159050919050565b600073ffffffffffffffffffffffffffffffffffffffff82169050919050565b6000819050919050565b7f4e487b7100000000000000000000000000000000000000000000000000000000600052601160045260246000fd5b7f4e487b7100000000000000000000000000000000000000000000000000000000600052601260045260246000fd5b600080fd5b7f4f6e6c7920746f6b656e206f776e65722063616e2063616c6c2074686973206660008201527f756e6374696f6e00000000000000000000000000000000000000000000000000602082015250565b7f43757272656e7420726577617264206973207a65726f00000000000000000000600082015250565b7f417474656d707420746f20627579206f776e656420746f6b656e000000000000600082015250565b7f43616c6c6572206973206e6f74206f776e657200000000000000000000000000600082015250565b7f416464726573733a20756e61626c6520746f2073656e642076616c75652c207260008201527f6563697069656e74206d61792068617665207265766572746564000000000000602082015250565b7f416464726573733a20696e73756666696369656e742062616c616e6365000000600082015250565b7f5769746864726177616c2065786365656473207265776172642062616c616e6360008201527f6500000000000000000000000000000000000000000000000000000000000000602082015250565b7f496e76616c696420746f6b656e00000000000000000000000000000000000000600082015250565b7f5769746864726177616c2065786365656473206665652062616c616e63650000600082015250565b7f4e465420636f6e7472616374206973206e6f7420726567697374657265640000600082015250565b7f5072696365206e6f74206d617463680000000000000000000000000000000000600082015250565b7f546f6b656e20616c7265616479206c6973746564000000000000000000000000600082015250565b50565b7f546f6b656e206e6f7420617070726f76656420746f206d61726b657400000000600082015250565b7f4f6e6c792061646d696e2063616e2063616c6c20746869732066756e6374696f60008201527f6e00000000000000000000000000000000000000000000000000000000000000602082015250565b7f496e76616c696420707269636500000000000000000000000000000000000000600082015250565b7f5265656e7472616e637947756172643a207265656e7472616e742063616c6c00600082015250565b7f546f6b656e206e6f74206c697374656400000000000000000000000000000000600082015250565b6124b7816120af565b81146124c257600080fd5b50565b6124ce816120c1565b81146124d957600080fd5b50565b6124e5816120ed565b81146124f057600080fd5b5056fea2646970667358221220b5df3e82bdfe5ebc0504c8c08169ab06775ce48444995bd68a1910c3d82e168f64736f6c63430008070033",
  "immutableReferences": {},
  "source": "pragma solidity ^0.8.0;\n\nimport \"@openzeppelin/contracts/utils/Address.sol\";\nimport \"@openzeppelin/contracts/utils/Counters.sol\";\nimport \"@openzeppelin/contracts/security/ReentrancyGuard.sol\";\nimport \"./INFT.sol\";\n\ncontract Market is ReentrancyGuard {\n    using Address for address;\n    using Counters for Counters.Counter;\n\n    struct ListingInfo {\n        uint256 price;\n        address owner;\n    }\n\n    address private _admin;\n\n    mapping (uint256 => ListingInfo) private _listingInfos;\n\n    mapping (uint256 => bool) private _listings;\n\n    mapping (address => bool) private _nftContracts;\n\n    mapping (address => uint256) private _rewards;\n\n    uint256 private _feeBalance;\n\n    constructor (address admin_, address nftAddr_) {\n        _admin = admin_;\n        _nftContracts[nftAddr_] = true;\n    }\n\n    modifier onlyAdmin {\n        require (\n            msg.sender == _admin,\n            \"Only admin can call this function\"\n        );\n        _;\n    }\n\n    modifier onlyTokenOwner (uint256 tokenId) {\n        require (isListed(tokenId), \"Invalid token\");\n        require (\n            _listingInfos[tokenId].owner == msg.sender, \n            \"Only token owner can call this function\"\n        );\n        _;\n    }\n\n    modifier onlyRegisteredNFTContract (address addr) {\n        require (\n            _nftContracts[addr],\n            \"NFT contract is not registered\"\n        );\n        _;\n    }\n\n    event Listing (\n        uint256 tokenId,\n        address indexed from,\n        uint256 price,\n        uint256 timestamp\n    );\n\n    event Cancellation (\n        uint256 tokenId,\n        address indexed from,\n        uint256 timestamp\n    );\n\n    event Edit (\n        uint256 tokenId,\n        address indexed from,\n        uint256 oldPrice,\n        uint256 newPrice,\n        uint256 timestamp\n    );\n\n    event Purchase (\n        uint256 tokenId,\n        address indexed buyer,\n        address indexed seller,\n        uint256 price,\n        uint256 timestamp\n    );\n\n    event RewardWithdrawal (\n        address indexed creator,\n        uint256 amount,\n        uint256 timestamp\n    );\n\n    event FeeWithdrawal (\n        address indexed admin,\n        uint256 amount,\n        uint256 timestamp\n    );\n\n    event NFTContractRegistration (\n        address indexed contractAddr,\n        address indexed admin,\n        uint256 timestamp\n    );\n\n    function isListed(uint256 tokenId) public view returns (bool) {\n        return _listings[tokenId];\n    }\n\n    function priceOf(uint256 tokenId) public view returns (uint256) {\n        require (isListed(tokenId), \"Token not listed\");\n        return _listingInfos[tokenId].price;\n    }\n\n    function rewardOf(address creator) public view returns (uint256) {\n        return _rewards[creator];\n    }\n\n    function feeBalance() public view returns (uint256) {\n        return _feeBalance;\n    }\n\n    function listToken(address nftAddr, uint256 tokenId, uint256 price) \n        public \n        onlyRegisteredNFTContract(nftAddr) \n    {\n        require (price > 0, \"Invalid price\");\n        require (!isListed(tokenId), \"Token already listed\");\n\n        INFT nft = INFT(nftAddr);\n        require (nft.ownerOf(tokenId) == msg.sender, \n                \"Caller is not owner\");\n        require (nft.getApproved(tokenId) == address(this) ||\n                 nft.isApprovedForAll(msg.sender, address(this)), \n                \"Token not approved to market\");\n\n        nft.transferFrom(msg.sender, address(this), tokenId);\n        _listingInfos[tokenId] = ListingInfo(price, msg.sender);\n        _listings[tokenId] = true;\n\n        emit Listing(\n            tokenId,\n            msg.sender,\n            price,\n            block.timestamp\n        );\n    }\n\n    function cancelListing(address nftAddr, uint256 tokenId) \n        public \n        onlyRegisteredNFTContract(nftAddr) \n        onlyTokenOwner(tokenId) \n    {\n        INFT(nftAddr).safeTransferFrom(address(this), msg.sender, tokenId);\n        _listings[tokenId] = false;\n\n        emit Cancellation(\n            tokenId,\n            msg.sender,\n            block.timestamp\n        );\n    }\n\n    function setPrice(address nftAddr, uint256 tokenId, uint256 price) \n        public \n        onlyRegisteredNFTContract(nftAddr) \n        onlyTokenOwner(tokenId) \n    {\n        require (price > 0, \"Invalid price\");\n\n        uint256 oldPrice = _listingInfos[tokenId].price;\n        _listingInfos[tokenId].price = price;\n\n        emit Edit(\n            tokenId,\n            msg.sender,\n            oldPrice,\n            price,\n            block.timestamp\n        );\n    }\n\n    function buyToken(address nftAddr, uint256 tokenId) \n        public \n        payable \n        nonReentrant \n        onlyRegisteredNFTContract(nftAddr) \n    {\n        require (isListed(tokenId), \"Invalid token\");\n\n        address owner = _listingInfos[tokenId].owner;\n        require (owner != msg.sender, \n                \"Attempt to buy owned token\");\n\n        uint256 price = priceOf(tokenId);\n        require (msg.value == price, \"Price not match\");\n\n        INFT nft = INFT(nftAddr);\n        uint256 payment = price * 19 / 20;\n        uint256 reward = price * 3 / 100;\n        Address.sendValue(payable(owner), payment);\n        _rewards[nft.creatorOf(tokenId)] += reward;\n        _feeBalance += price - payment - reward;\n\n        nft.safeTransferFrom(address(this), msg.sender, tokenId);\n        _listings[tokenId] = false;\n\n        emit Purchase(\n            tokenId,\n            msg.sender,\n            owner,\n            price,\n            block.timestamp\n        );\n    }\n\n    function withdrawReward(uint256 amount) \n        public \n        nonReentrant \n    {\n        require (_rewards[msg.sender] > 0, \"Current reward is zero\");\n        require (amount <= _rewards[msg.sender], \n                \"Withdrawal exceeds reward balance\");\n\n        Address.sendValue(payable(msg.sender), amount);\n        _rewards[msg.sender] -= amount;\n\n        emit RewardWithdrawal(\n            msg.sender,\n            amount,\n            block.timestamp\n        );\n    }\n\n    function withdrawFee(uint256 amount) \n        public \n        nonReentrant \n        onlyAdmin \n    {\n        require (amount <= _feeBalance, \n                \"Withdrawal exceeds fee balance\");\n\n        Address.sendValue(payable(msg.sender), amount);\n        _feeBalance -= amount;\n\n        emit FeeWithdrawal(\n            msg.sender,\n            amount,\n            block.timestamp\n        );\n    }\n\n    function registerNFTContract(address nftAddr) \n        public \n        onlyAdmin \n    {\n        _nftContracts[nftAddr] = true;\n\n        emit NFTContractRegistration(\n            nftAddr,\n            msg.sender,\n            block.timestamp\n        );\n    }\n}",
  "sourcePath": "/Users/sherlock/ChainLab/NFTPlayerOne/contracts/Market.sol",
  "compiler": {
    "name": "solc",
    "version": "0.8.7+commit.e28d00a7.Emscripten.clang"
  },
  "schemaVersion": "3.4.1",
  "updatedAt": "2021-09-07T05:40:54.990Z",
  "networkType": "ethereum",
  "devdoc": {
    "kind": "dev",
    "methods": {},
    "version": 1
  },
  "userdoc": {
    "kind": "user",
    "methods": {},
    "version": 1
  }
}