{
  "contractName": "Market",
  "abi": [
    {
      "inputs": [
        {
          "internalType": "address",
          "name": "admin_",
          "type": "address"
        },
        {
          "internalType": "address payable",
          "name": "platform_",
          "type": "address"
        }
      ],
      "stateMutability": "nonpayable",
      "type": "constructor"
    },
    {
      "anonymous": false,
      "inputs": [
        {
          "indexed": true,
          "internalType": "address",
          "name": "owner",
          "type": "address"
        },
        {
          "indexed": true,
          "internalType": "address",
          "name": "approved",
          "type": "address"
        },
        {
          "indexed": true,
          "internalType": "uint256",
          "name": "tokenId",
          "type": "uint256"
        }
      ],
      "name": "Approval",
      "type": "event"
    },
    {
      "anonymous": false,
      "inputs": [
        {
          "indexed": true,
          "internalType": "address",
          "name": "owner",
          "type": "address"
        },
        {
          "indexed": true,
          "internalType": "address",
          "name": "operator",
          "type": "address"
        },
        {
          "indexed": false,
          "internalType": "bool",
          "name": "approved",
          "type": "bool"
        }
      ],
      "name": "ApprovalForAll",
      "type": "event"
    },
    {
      "anonymous": false,
      "inputs": [
        {
          "indexed": false,
          "internalType": "uint256",
          "name": "tokenId",
          "type": "uint256"
        },
        {
          "indexed": true,
          "internalType": "address",
          "name": "from",
          "type": "address"
        },
        {
          "indexed": false,
          "internalType": "uint256",
          "name": "timestamp",
          "type": "uint256"
        }
      ],
      "name": "Cancellation",
      "type": "event"
    },
    {
      "anonymous": false,
      "inputs": [
        {
          "indexed": false,
          "internalType": "uint256",
          "name": "tokenId",
          "type": "uint256"
        },
        {
          "indexed": true,
          "internalType": "address",
          "name": "from",
          "type": "address"
        },
        {
          "indexed": false,
          "internalType": "uint256",
          "name": "oldPrice",
          "type": "uint256"
        },
        {
          "indexed": false,
          "internalType": "uint256",
          "name": "newPrice",
          "type": "uint256"
        },
        {
          "indexed": false,
          "internalType": "uint256",
          "name": "timestamp",
          "type": "uint256"
        }
      ],
      "name": "Edit",
      "type": "event"
    },
    {
      "anonymous": false,
      "inputs": [
        {
          "indexed": false,
          "internalType": "uint256",
          "name": "tokenId",
          "type": "uint256"
        },
        {
          "indexed": true,
          "internalType": "address",
          "name": "from",
          "type": "address"
        },
        {
          "indexed": false,
          "internalType": "uint256",
          "name": "price",
          "type": "uint256"
        },
        {
          "indexed": false,
          "internalType": "uint256",
          "name": "timestamp",
          "type": "uint256"
        }
      ],
      "name": "Listing",
      "type": "event"
    },
    {
      "anonymous": false,
      "inputs": [
        {
          "indexed": false,
          "internalType": "uint256",
          "name": "tokenId",
          "type": "uint256"
        },
        {
          "indexed": true,
          "internalType": "address",
          "name": "creator",
          "type": "address"
        },
        {
          "indexed": false,
          "internalType": "string",
          "name": "tokenURI",
          "type": "string"
        },
        {
          "indexed": false,
          "internalType": "uint256",
          "name": "timestamp",
          "type": "uint256"
        }
      ],
      "name": "Mint",
      "type": "event"
    },
    {
      "anonymous": false,
      "inputs": [
        {
          "indexed": false,
          "internalType": "uint256",
          "name": "tokenId",
          "type": "uint256"
        },
        {
          "indexed": true,
          "internalType": "address",
          "name": "buyer",
          "type": "address"
        },
        {
          "indexed": true,
          "internalType": "address",
          "name": "seller",
          "type": "address"
        },
        {
          "indexed": false,
          "internalType": "uint256",
          "name": "price",
          "type": "uint256"
        },
        {
          "indexed": false,
          "internalType": "uint256",
          "name": "timestamp",
          "type": "uint256"
        }
      ],
      "name": "Purchase",
      "type": "event"
    },
    {
      "anonymous": false,
      "inputs": [
        {
          "indexed": true,
          "internalType": "address",
          "name": "from",
          "type": "address"
        },
        {
          "indexed": true,
          "internalType": "address",
          "name": "to",
          "type": "address"
        },
        {
          "indexed": true,
          "internalType": "uint256",
          "name": "tokenId",
          "type": "uint256"
        }
      ],
      "name": "Transfer",
      "type": "event"
    },
    {
      "inputs": [
        {
          "internalType": "address",
          "name": "owner",
          "type": "address"
        }
      ],
      "name": "balanceOf",
      "outputs": [
        {
          "internalType": "uint256",
          "name": "",
          "type": "uint256"
        }
      ],
      "stateMutability": "view",
      "type": "function",
      "constant": true
    },
    {
      "inputs": [
        {
          "internalType": "uint256",
          "name": "tokenId",
          "type": "uint256"
        }
      ],
      "name": "getApproved",
      "outputs": [
        {
          "internalType": "address",
          "name": "",
          "type": "address"
        }
      ],
      "stateMutability": "view",
      "type": "function",
      "constant": true
    },
    {
      "inputs": [
        {
          "internalType": "address",
          "name": "owner",
          "type": "address"
        },
        {
          "internalType": "address",
          "name": "operator",
          "type": "address"
        }
      ],
      "name": "isApprovedForAll",
      "outputs": [
        {
          "internalType": "bool",
          "name": "",
          "type": "bool"
        }
      ],
      "stateMutability": "view",
      "type": "function",
      "constant": true
    },
    {
      "inputs": [],
      "name": "name",
      "outputs": [
        {
          "internalType": "string",
          "name": "",
          "type": "string"
        }
      ],
      "stateMutability": "view",
      "type": "function",
      "constant": true
    },
    {
      "inputs": [
        {
          "internalType": "uint256",
          "name": "tokenId",
          "type": "uint256"
        }
      ],
      "name": "ownerOf",
      "outputs": [
        {
          "internalType": "address",
          "name": "",
          "type": "address"
        }
      ],
      "stateMutability": "view",
      "type": "function",
      "constant": true
    },
    {
      "inputs": [
        {
          "internalType": "address",
          "name": "operator",
          "type": "address"
        },
        {
          "internalType": "bool",
          "name": "approved",
          "type": "bool"
        }
      ],
      "name": "setApprovalForAll",
      "outputs": [],
      "stateMutability": "nonpayable",
      "type": "function"
    },
    {
      "inputs": [
        {
          "internalType": "bytes4",
          "name": "interfaceId",
          "type": "bytes4"
        }
      ],
      "name": "supportsInterface",
      "outputs": [
        {
          "internalType": "bool",
          "name": "",
          "type": "bool"
        }
      ],
      "stateMutability": "view",
      "type": "function",
      "constant": true
    },
    {
      "inputs": [],
      "name": "symbol",
      "outputs": [
        {
          "internalType": "string",
          "name": "",
          "type": "string"
        }
      ],
      "stateMutability": "view",
      "type": "function",
      "constant": true
    },
    {
      "inputs": [
        {
          "internalType": "uint256",
          "name": "tokenId",
          "type": "uint256"
        }
      ],
      "name": "tokenURI",
      "outputs": [
        {
          "internalType": "string",
          "name": "",
          "type": "string"
        }
      ],
      "stateMutability": "view",
      "type": "function",
      "constant": true
    },
    {
      "inputs": [
        {
          "internalType": "address",
          "name": "addr",
          "type": "address"
        }
      ],
      "name": "hasMinted",
      "outputs": [
        {
          "internalType": "bool",
          "name": "",
          "type": "bool"
        }
      ],
      "stateMutability": "view",
      "type": "function",
      "constant": true
    },
    {
      "inputs": [
        {
          "internalType": "uint256",
          "name": "tokenId",
          "type": "uint256"
        }
      ],
      "name": "hasVerified",
      "outputs": [
        {
          "internalType": "bool",
          "name": "",
          "type": "bool"
        }
      ],
      "stateMutability": "view",
      "type": "function",
      "constant": true
    },
    {
      "inputs": [
        {
          "internalType": "uint256",
          "name": "tokenId",
          "type": "uint256"
        }
      ],
      "name": "creatorOf",
      "outputs": [
        {
          "internalType": "address",
          "name": "",
          "type": "address"
        }
      ],
      "stateMutability": "view",
      "type": "function",
      "constant": true
    },
    {
      "inputs": [
        {
          "internalType": "string",
          "name": "tokenURI",
          "type": "string"
        }
      ],
      "name": "mintNFT",
      "outputs": [
        {
          "internalType": "uint256",
          "name": "",
          "type": "uint256"
        }
      ],
      "stateMutability": "nonpayable",
      "type": "function"
    },
    {
      "inputs": [
        {
          "internalType": "uint256",
          "name": "tokenId",
          "type": "uint256"
        }
      ],
      "name": "verify",
      "outputs": [],
      "stateMutability": "nonpayable",
      "type": "function"
    },
    {
      "inputs": [
        {
          "internalType": "uint256",
          "name": "tokenId",
          "type": "uint256"
        }
      ],
      "name": "isListed",
      "outputs": [
        {
          "internalType": "bool",
          "name": "",
          "type": "bool"
        }
      ],
      "stateMutability": "view",
      "type": "function",
      "constant": true
    },
    {
      "inputs": [
        {
          "internalType": "uint256",
          "name": "tokenId",
          "type": "uint256"
        }
      ],
      "name": "priceOf",
      "outputs": [
        {
          "internalType": "uint256",
          "name": "",
          "type": "uint256"
        }
      ],
      "stateMutability": "view",
      "type": "function",
      "constant": true
    },
    {
      "inputs": [
        {
          "internalType": "address",
          "name": "to",
          "type": "address"
        },
        {
          "internalType": "uint256",
          "name": "tokenId",
          "type": "uint256"
        }
      ],
      "name": "approve",
      "outputs": [],
      "stateMutability": "nonpayable",
      "type": "function"
    },
    {
      "inputs": [
        {
          "internalType": "address",
          "name": "from",
          "type": "address"
        },
        {
          "internalType": "address",
          "name": "to",
          "type": "address"
        },
        {
          "internalType": "uint256",
          "name": "tokenId",
          "type": "uint256"
        }
      ],
      "name": "transferFrom",
      "outputs": [],
      "stateMutability": "nonpayable",
      "type": "function"
    },
    {
      "inputs": [
        {
          "internalType": "address",
          "name": "from",
          "type": "address"
        },
        {
          "internalType": "address",
          "name": "to",
          "type": "address"
        },
        {
          "internalType": "uint256",
          "name": "tokenId",
          "type": "uint256"
        }
      ],
      "name": "safeTransferFrom",
      "outputs": [],
      "stateMutability": "nonpayable",
      "type": "function"
    },
    {
      "inputs": [
        {
          "internalType": "address",
          "name": "from",
          "type": "address"
        },
        {
          "internalType": "address",
          "name": "to",
          "type": "address"
        },
        {
          "internalType": "uint256",
          "name": "tokenId",
          "type": "uint256"
        },
        {
          "internalType": "bytes",
          "name": "_data",
          "type": "bytes"
        }
      ],
      "name": "safeTransferFrom",
      "outputs": [],
      "stateMutability": "nonpayable",
      "type": "function"
    },
    {
      "inputs": [
        {
          "internalType": "uint256",
          "name": "tokenId",
          "type": "uint256"
        },
        {
          "internalType": "uint256",
          "name": "price",
          "type": "uint256"
        }
      ],
      "name": "listToken",
      "outputs": [],
      "stateMutability": "nonpayable",
      "type": "function"
    },
    {
      "inputs": [
        {
          "internalType": "uint256",
          "name": "tokenId",
          "type": "uint256"
        }
      ],
      "name": "cancelListing",
      "outputs": [],
      "stateMutability": "nonpayable",
      "type": "function"
    },
    {
      "inputs": [
        {
          "internalType": "uint256",
          "name": "tokenId",
          "type": "uint256"
        },
        {
          "internalType": "uint256",
          "name": "price",
          "type": "uint256"
        }
      ],
      "name": "setPrice",
      "outputs": [],
      "stateMutability": "nonpayable",
      "type": "function"
    },
    {
      "inputs": [
        {
          "internalType": "uint256",
          "name": "tokenId",
          "type": "uint256"
        }
      ],
      "name": "buyToken",
      "outputs": [],
      "stateMutability": "payable",
      "type": "function",
      "payable": true
    }
  ],
  "bytecode": "0x60806040523480156200001157600080fd5b506040516200459d3803806200459d83398181016040528101906200003791906200023f565b6040518060400160405280600381526020017f4e465400000000000000000000000000000000000000000000000000000000008152506040518060400160405280600381526020017f4e465400000000000000000000000000000000000000000000000000000000008152508160009080519060200190620000bb92919062000161565b508060019080519060200190620000d492919062000161565b50505081600860006101000a81548173ffffffffffffffffffffffffffffffffffffffff021916908373ffffffffffffffffffffffffffffffffffffffff16021790555080600760006101000a81548173ffffffffffffffffffffffffffffffffffffffff021916908373ffffffffffffffffffffffffffffffffffffffff16021790555050506200036c565b8280546200016f90620002ce565b90600052602060002090601f016020900481019282620001935760008555620001df565b82601f10620001ae57805160ff1916838001178555620001df565b82800160010185558215620001df579182015b82811115620001de578251825591602001919060010190620001c1565b5b509050620001ee9190620001f2565b5090565b5b808211156200020d576000816000905550600101620001f3565b5090565b600081519050620002228162000338565b92915050565b600081519050620002398162000352565b92915050565b6000806040838503121562000259576200025862000333565b5b6000620002698582860162000211565b92505060206200027c8582860162000228565b9150509250929050565b60006200029382620002ae565b9050919050565b6000620002a782620002ae565b9050919050565b600073ffffffffffffffffffffffffffffffffffffffff82169050919050565b60006002820490506001821680620002e757607f821691505b60208210811415620002fe57620002fd62000304565b5b50919050565b7f4e487b7100000000000000000000000000000000000000000000000000000000600052602260045260246000fd5b600080fd5b620003438162000286565b81146200034f57600080fd5b50565b6200035d816200029a565b81146200036957600080fd5b50565b614221806200037c6000396000f3fe60806040526004361061014b5760003560e01c806375c1631d116100b6578063b9186d7d1161006f578063b9186d7d146104b5578063c87b56dd146104f2578063e985e9c51461052f578063f7d975771461056c578063fb37e88314610595578063fcce4883146105d25761014b565b806375c1631d146103a95780638753367f146103d25780639382e786146103fb57806395d89b4114610438578063a22cb46514610463578063b88d4fde1461048c5761014b565b8063305a67a811610108578063305a67a81461026357806338e21cce1461028c57806342842e0e146102c9578063589a1743146102f25780636352211e1461032f57806370a082311461036c5761014b565b806301ffc9a71461015057806306fdde031461018d578063081812fc146101b8578063095ea7b3146101f557806323b872dd1461021e5780632d296bf114610247575b600080fd5b34801561015c57600080fd5b5061017760048036038101906101729190612b37565b61060f565b604051610184919061318b565b60405180910390f35b34801561019957600080fd5b506101a26106f1565b6040516101af91906131a6565b60405180910390f35b3480156101c457600080fd5b506101df60048036038101906101da9190612bda565b610783565b6040516101ec9190613124565b60405180910390f35b34801561020157600080fd5b5061021c60048036038101906102179190612af7565b610808565b005b34801561022a57600080fd5b50610245600480360381019061024091906129e1565b610861565b005b610261600480360381019061025c9190612bda565b6108bc565b005b34801561026f57600080fd5b5061028a60048036038101906102859190612bda565b610b36565b005b34801561029857600080fd5b506102b360048036038101906102ae9190612974565b610c78565b6040516102c0919061318b565b60405180910390f35b3480156102d557600080fd5b506102f060048036038101906102eb91906129e1565b610cce565b005b3480156102fe57600080fd5b5061031960048036038101906103149190612bda565b610cee565b6040516103269190613124565b60405180910390f35b34801561033b57600080fd5b5061035660048036038101906103519190612bda565b610d2b565b6040516103639190613124565b60405180910390f35b34801561037857600080fd5b50610393600480360381019061038e9190612974565b610ddd565b6040516103a09190613528565b60405180910390f35b3480156103b557600080fd5b506103d060048036038101906103cb9190612c07565b610e95565b005b3480156103de57600080fd5b506103f960048036038101906103f49190612bda565b611047565b005b34801561040757600080fd5b50610422600480360381019061041d9190612bda565b611106565b60405161042f919061318b565b60405180910390f35b34801561044457600080fd5b5061044d611130565b60405161045a91906131a6565b60405180910390f35b34801561046f57600080fd5b5061048a60048036038101906104859190612ab7565b6111c2565b005b34801561049857600080fd5b506104b360048036038101906104ae9190612a34565b611343565b005b3480156104c157600080fd5b506104dc60048036038101906104d79190612bda565b6113a0565b6040516104e99190613528565b60405180910390f35b3480156104fe57600080fd5b5061051960048036038101906105149190612bda565b611408565b60405161052691906131a6565b60405180910390f35b34801561053b57600080fd5b50610556600480360381019061055191906129a1565b61155a565b604051610563919061318b565b60405180910390f35b34801561057857600080fd5b50610593600480360381019061058e9190612c07565b6115ee565b005b3480156105a157600080fd5b506105bc60048036038101906105b79190612b91565b611780565b6040516105c99190613528565b60405180910390f35b3480156105de57600080fd5b506105f960048036038101906105f49190612bda565b6118b3565b604051610606919061318b565b60405180910390f35b60007f80ac58cd000000000000000000000000000000000000000000000000000000007bffffffffffffffffffffffffffffffffffffffffffffffffffffffff1916827bffffffffffffffffffffffffffffffffffffffffffffffffffffffff191614806106da57507f5b5e139f000000000000000000000000000000000000000000000000000000007bffffffffffffffffffffffffffffffffffffffffffffffffffffffff1916827bffffffffffffffffffffffffffffffffffffffffffffffffffffffff1916145b806106ea57506106e9826118e0565b5b9050919050565b606060008054610700906138c6565b80601f016020809104026020016040519081016040528092919081815260200182805461072c906138c6565b80156107795780601f1061074e57610100808354040283529160200191610779565b820191906000526020600020905b81548152906001019060200180831161075c57829003601f168201915b5050505050905090565b600061078e8261194a565b6107cd576040517f08c379a00000000000000000000000000000000000000000000000000000000081526004016107c4906133c8565b60405180910390fd5b6004600083815260200190815260200160002060009054906101000a900473ffffffffffffffffffffffffffffffffffffffff169050919050565b80610812816118b3565b15610852576040517f08c379a0000000000000000000000000000000000000000000000000000000008152600401610849906134e8565b60405180910390fd5b61085c83836119b6565b505050565b8061086b816118b3565b156108ab576040517f08c379a00000000000000000000000000000000000000000000000000000000081526004016108a2906134e8565b60405180910390fd5b6108b6848484611ace565b50505050565b6108c5816118b3565b610904576040517f08c379a00000000000000000000000000000000000000000000000000000000081526004016108fb906132e8565b60405180910390fd5b3373ffffffffffffffffffffffffffffffffffffffff1661092482610d2b565b73ffffffffffffffffffffffffffffffffffffffff16141561097b576040517f08c379a000000000000000000000000000000000000000000000000000000000815260040161097290613208565b60405180910390fd5b6000610986826113a0565b90508034146109ca576040517f08c379a00000000000000000000000000000000000000000000000000000000081526004016109c1906133e8565b60405180910390fd5b600060146013836109db9190613782565b6109e59190613751565b90506000600282846109f791906137dc565b610a019190613751565b90506000818385610a1291906137dc565b610a1c91906137dc565b90506000610a2986610d2b565b9050610a358185611b2e565b610a47610a4187610cee565b84611b2e565b610a73600760009054906101000a900473ffffffffffffffffffffffffffffffffffffffff1683611b2e565b610a96610a7f87610d2b565b338860405180602001604052806000815250611c22565b6000600a600088815260200190815260200160002060010160006101000a81548160ff0219169083151502179055508073ffffffffffffffffffffffffffffffffffffffff163373ffffffffffffffffffffffffffffffffffffffff167f13b8657d4ddfa4b81968610296805d8992e82313cd1a08959a3208cc3da3fed0888842604051610b26939291906135aa565b60405180910390a3505050505050565b803373ffffffffffffffffffffffffffffffffffffffff16610b5782610d2b565b73ffffffffffffffffffffffffffffffffffffffff1614610bad576040517f08c379a0000000000000000000000000000000000000000000000000000000008152600401610ba4906131c8565b60405180910390fd5b610bb6826118b3565b610bf5576040517f08c379a0000000000000000000000000000000000000000000000000000000008152600401610bec906132e8565b60405180910390fd5b6000600a600084815260200190815260200160002060010160006101000a81548160ff0219169083151502179055503373ffffffffffffffffffffffffffffffffffffffff167f5524851b24fa9c2c0f8fe409fddd8d3ab3d151115ce2c59379945816fbe0c3e68342604051610c6c929190613581565b60405180910390a25050565b6000600b60008373ffffffffffffffffffffffffffffffffffffffff1673ffffffffffffffffffffffffffffffffffffffff16815260200190815260200160002060009054906101000a900460ff169050919050565b610ce983838360405180602001604052806000815250611343565b505050565b6000600d600083815260200190815260200160002060009054906101000a900473ffffffffffffffffffffffffffffffffffffffff169050919050565b6000806002600084815260200190815260200160002060009054906101000a900473ffffffffffffffffffffffffffffffffffffffff169050600073ffffffffffffffffffffffffffffffffffffffff168173ffffffffffffffffffffffffffffffffffffffff161415610dd4576040517f08c379a0000000000000000000000000000000000000000000000000000000008152600401610dcb90613348565b60405180910390fd5b80915050919050565b60008073ffffffffffffffffffffffffffffffffffffffff168273ffffffffffffffffffffffffffffffffffffffff161415610e4e576040517f08c379a0000000000000000000000000000000000000000000000000000000008152600401610e4590613328565b60405180910390fd5b600360008373ffffffffffffffffffffffffffffffffffffffff1673ffffffffffffffffffffffffffffffffffffffff168152602001908152602001600020549050919050565b813373ffffffffffffffffffffffffffffffffffffffff16610eb682610d2b565b73ffffffffffffffffffffffffffffffffffffffff1614610f0c576040517f08c379a0000000000000000000000000000000000000000000000000000000008152600401610f03906131c8565b60405180910390fd5b60008211610f4f576040517f08c379a0000000000000000000000000000000000000000000000000000000008152600401610f46906134c8565b60405180910390fd5b610f58836118b3565b15610f98576040517f08c379a0000000000000000000000000000000000000000000000000000000008152600401610f8f90613448565b60405180910390fd5b604051806040016040528083815260200160011515815250600a60008581526020019081526020016000206000820151816000015560208201518160010160006101000a81548160ff0219169083151502179055509050503373ffffffffffffffffffffffffffffffffffffffff167fd72d4503c670d7268f86cb5d5d94df61a0b1e00e6bb60ee2e5c8bf882afc15b084844260405161103a939291906135aa565b60405180910390a2505050565b600860009054906101000a900473ffffffffffffffffffffffffffffffffffffffff1673ffffffffffffffffffffffffffffffffffffffff163373ffffffffffffffffffffffffffffffffffffffff16146110d7576040517f08c379a00000000000000000000000000000000000000000000000000000000081526004016110ce906134a8565b60405180910390fd5b6001600c600083815260200190815260200160002060006101000a81548160ff02191690831515021790555050565b6000600c600083815260200190815260200160002060009054906101000a900460ff169050919050565b60606001805461113f906138c6565b80601f016020809104026020016040519081016040528092919081815260200182805461116b906138c6565b80156111b85780601f1061118d576101008083540402835291602001916111b8565b820191906000526020600020905b81548152906001019060200180831161119b57829003601f168201915b5050505050905090565b6111ca611c7e565b73ffffffffffffffffffffffffffffffffffffffff168273ffffffffffffffffffffffffffffffffffffffff161415611238576040517f08c379a000000000000000000000000000000000000000000000000000000000815260040161122f90613268565b60405180910390fd5b8060056000611245611c7e565b73ffffffffffffffffffffffffffffffffffffffff1673ffffffffffffffffffffffffffffffffffffffff16815260200190815260200160002060008473ffffffffffffffffffffffffffffffffffffffff1673ffffffffffffffffffffffffffffffffffffffff16815260200190815260200160002060006101000a81548160ff0219169083151502179055508173ffffffffffffffffffffffffffffffffffffffff166112f2611c7e565b73ffffffffffffffffffffffffffffffffffffffff167f17307eab39ab6107e8899845ad3d59bd9653f200f220920489ca2b5937696c3183604051611337919061318b565b60405180910390a35050565b8161134d816118b3565b1561138d576040517f08c379a0000000000000000000000000000000000000000000000000000000008152600401611384906134e8565b60405180910390fd5b61139985858585611c86565b5050505050565b60006113ab826118b3565b6113ea576040517f08c379a00000000000000000000000000000000000000000000000000000000081526004016113e190613508565b60405180910390fd5b600a6000838152602001908152602001600020600001549050919050565b60606114138261194a565b611452576040517f08c379a0000000000000000000000000000000000000000000000000000000008152600401611449906133a8565b60405180910390fd5b6000600660008481526020019081526020016000208054611472906138c6565b80601f016020809104026020016040519081016040528092919081815260200182805461149e906138c6565b80156114eb5780601f106114c0576101008083540402835291602001916114eb565b820191906000526020600020905b8154815290600101906020018083116114ce57829003601f168201915b5050505050905060006114fc611ce8565b9050600081511415611512578192505050611555565b60008251111561154757808260405160200161152f9291906130eb565b60405160208183030381529060405292505050611555565b61155084611cff565b925050505b919050565b6000600560008473ffffffffffffffffffffffffffffffffffffffff1673ffffffffffffffffffffffffffffffffffffffff16815260200190815260200160002060008373ffffffffffffffffffffffffffffffffffffffff1673ffffffffffffffffffffffffffffffffffffffff16815260200190815260200160002060009054906101000a900460ff16905092915050565b813373ffffffffffffffffffffffffffffffffffffffff1661160f82610d2b565b73ffffffffffffffffffffffffffffffffffffffff1614611665576040517f08c379a000000000000000000000000000000000000000000000000000000000815260040161165c906131c8565b60405180910390fd5b600082116116a8576040517f08c379a000000000000000000000000000000000000000000000000000000000815260040161169f906134c8565b60405180910390fd5b6116b1836118b3565b6116f0576040517f08c379a00000000000000000000000000000000000000000000000000000000081526004016116e7906132e8565b60405180910390fd5b6000600a600085815260200190815260200160002060000154905082600a6000868152602001908152602001600020600001819055503373ffffffffffffffffffffffffffffffffffffffff167ffa650d68020ff9eb9ea0a0bc2c654f4c8a397180a5973ca1fbdada95db46fa238583864260405161177294939291906135e1565b60405180910390a250505050565b600061178c6009611da6565b60006117986009611dbc565b90506117a43382611dca565b6117ae8184611de8565b33600d600083815260200190815260200160002060006101000a81548173ffffffffffffffffffffffffffffffffffffffff021916908373ffffffffffffffffffffffffffffffffffffffff1602179055506001600b60003373ffffffffffffffffffffffffffffffffffffffff1673ffffffffffffffffffffffffffffffffffffffff16815260200190815260200160002060006101000a81548160ff0219169083151502179055503373ffffffffffffffffffffffffffffffffffffffff167fcb5aab6c0bec1e5513425dfaad4acfbca112f8b0ffe1027bd614e3d98a3ee5d28285426040516118a293929190613543565b60405180910390a280915050919050565b6000600a600083815260200190815260200160002060010160009054906101000a900460ff169050919050565b60007f01ffc9a7000000000000000000000000000000000000000000000000000000007bffffffffffffffffffffffffffffffffffffffffffffffffffffffff1916827bffffffffffffffffffffffffffffffffffffffffffffffffffffffff1916149050919050565b60008073ffffffffffffffffffffffffffffffffffffffff166002600084815260200190815260200160002060009054906101000a900473ffffffffffffffffffffffffffffffffffffffff1673ffffffffffffffffffffffffffffffffffffffff1614159050919050565b60006119c182610d2b565b90508073ffffffffffffffffffffffffffffffffffffffff168373ffffffffffffffffffffffffffffffffffffffff161415611a32576040517f08c379a0000000000000000000000000000000000000000000000000000000008152600401611a2990613468565b60405180910390fd5b8073ffffffffffffffffffffffffffffffffffffffff16611a51611c7e565b73ffffffffffffffffffffffffffffffffffffffff161480611a805750611a7f81611a7a611c7e565b61155a565b5b611abf576040517f08c379a0000000000000000000000000000000000000000000000000000000008152600401611ab690613308565b60405180910390fd5b611ac98383611e5c565b505050565b611adf611ad9611c7e565b82611f15565b611b1e576040517f08c379a0000000000000000000000000000000000000000000000000000000008152600401611b1590613488565b60405180910390fd5b611b29838383611ff3565b505050565b80471015611b71576040517f08c379a0000000000000000000000000000000000000000000000000000000008152600401611b68906132a8565b60405180910390fd5b60008273ffffffffffffffffffffffffffffffffffffffff1682604051611b979061310f565b60006040518083038185875af1925050503d8060008114611bd4576040519150601f19603f3d011682016040523d82523d6000602084013e611bd9565b606091505b5050905080611c1d576040517f08c379a0000000000000000000000000000000000000000000000000000000008152600401611c1490613288565b60405180910390fd5b505050565b611c2d848484611ff3565b611c398484848461224f565b611c78576040517f08c379a0000000000000000000000000000000000000000000000000000000008152600401611c6f906131e8565b60405180910390fd5b50505050565b600033905090565b611c97611c91611c7e565b83611f15565b611cd6576040517f08c379a0000000000000000000000000000000000000000000000000000000008152600401611ccd90613488565b60405180910390fd5b611ce284848484611c22565b50505050565b606060405180602001604052806000815250905090565b6060611d0a8261194a565b611d49576040517f08c379a0000000000000000000000000000000000000000000000000000000008152600401611d4090613428565b60405180910390fd5b6000611d53611ce8565b90506000815111611d735760405180602001604052806000815250611d9e565b80611d7d846123e6565b604051602001611d8e9291906130eb565b6040516020818303038152906040525b915050919050565b6001816000016000828254019250508190555050565b600081600001549050919050565b611de4828260405180602001604052806000815250612547565b5050565b611df18261194a565b611e30576040517f08c379a0000000000000000000000000000000000000000000000000000000008152600401611e2790613368565b60405180910390fd5b80600660008481526020019081526020016000209080519060200190611e57929190612788565b505050565b816004600083815260200190815260200160002060006101000a81548173ffffffffffffffffffffffffffffffffffffffff021916908373ffffffffffffffffffffffffffffffffffffffff160217905550808273ffffffffffffffffffffffffffffffffffffffff16611ecf83610d2b565b73ffffffffffffffffffffffffffffffffffffffff167f8c5be1e5ebec7d5bd14f71427d1e84f3dd0314c0f7b2291e5b200ac8c7c3b92560405160405180910390a45050565b6000611f208261194a565b611f5f576040517f08c379a0000000000000000000000000000000000000000000000000000000008152600401611f56906132c8565b60405180910390fd5b6000611f6a83610d2b565b90508073ffffffffffffffffffffffffffffffffffffffff168473ffffffffffffffffffffffffffffffffffffffff161480611fd957508373ffffffffffffffffffffffffffffffffffffffff16611fc184610783565b73ffffffffffffffffffffffffffffffffffffffff16145b80611fea5750611fe9818561155a565b5b91505092915050565b8273ffffffffffffffffffffffffffffffffffffffff1661201382610d2b565b73ffffffffffffffffffffffffffffffffffffffff1614612069576040517f08c379a000000000000000000000000000000000000000000000000000000000815260040161206090613408565b60405180910390fd5b600073ffffffffffffffffffffffffffffffffffffffff168273ffffffffffffffffffffffffffffffffffffffff1614156120d9576040517f08c379a00000000000000000000000000000000000000000000000000000000081526004016120d090613248565b60405180910390fd5b6120e48383836125a2565b6120ef600082611e5c565b6001600360008573ffffffffffffffffffffffffffffffffffffffff1673ffffffffffffffffffffffffffffffffffffffff168152602001908152602001600020600082825461213f91906137dc565b925050819055506001600360008473ffffffffffffffffffffffffffffffffffffffff1673ffffffffffffffffffffffffffffffffffffffff168152602001908152602001600020600082825461219691906136fb565b92505081905550816002600083815260200190815260200160002060006101000a81548173ffffffffffffffffffffffffffffffffffffffff021916908373ffffffffffffffffffffffffffffffffffffffff160217905550808273ffffffffffffffffffffffffffffffffffffffff168473ffffffffffffffffffffffffffffffffffffffff167fddf252ad1be2c89b69c2b068fc378daa952ba7f163c4a11628f55a4df523b3ef60405160405180910390a4505050565b60006122708473ffffffffffffffffffffffffffffffffffffffff166125a7565b156123d9578373ffffffffffffffffffffffffffffffffffffffff1663150b7a02612299611c7e565b8786866040518563ffffffff1660e01b81526004016122bb949392919061313f565b602060405180830381600087803b1580156122d557600080fd5b505af192505050801561230657506040513d601f19601f820116820180604052508101906123039190612b64565b60015b612389573d8060008114612336576040519150601f19603f3d011682016040523d82523d6000602084013e61233b565b606091505b50600081511415612381576040517f08c379a0000000000000000000000000000000000000000000000000000000008152600401612378906131e8565b60405180910390fd5b805181602001fd5b63150b7a0260e01b7bffffffffffffffffffffffffffffffffffffffffffffffffffffffff1916817bffffffffffffffffffffffffffffffffffffffffffffffffffffffff1916149150506123de565b600190505b949350505050565b6060600082141561242e576040518060400160405280600181526020017f30000000000000000000000000000000000000000000000000000000000000008152509050612542565b600082905060005b6000821461246057808061244990613929565b915050600a826124599190613751565b9150612436565b60008167ffffffffffffffff81111561247c5761247b613a5f565b5b6040519080825280601f01601f1916602001820160405280156124ae5781602001600182028036833780820191505090505b5090505b6000851461253b576001826124c791906137dc565b9150600a856124d69190613972565b60306124e291906136fb565b60f81b8183815181106124f8576124f7613a30565b5b60200101907effffffffffffffffffffffffffffffffffffffffffffffffffffffffffffff1916908160001a905350600a856125349190613751565b94506124b2565b8093505050505b919050565b61255183836125ba565b61255e600084848461224f565b61259d576040517f08c379a0000000000000000000000000000000000000000000000000000000008152600401612594906131e8565b60405180910390fd5b505050565b505050565b600080823b905060008111915050919050565b600073ffffffffffffffffffffffffffffffffffffffff168273ffffffffffffffffffffffffffffffffffffffff16141561262a576040517f08c379a000000000000000000000000000000000000000000000000000000000815260040161262190613388565b60405180910390fd5b6126338161194a565b15612673576040517f08c379a000000000000000000000000000000000000000000000000000000000815260040161266a90613228565b60405180910390fd5b61267f600083836125a2565b6001600360008473ffffffffffffffffffffffffffffffffffffffff1673ffffffffffffffffffffffffffffffffffffffff16815260200190815260200160002060008282546126cf91906136fb565b92505081905550816002600083815260200190815260200160002060006101000a81548173ffffffffffffffffffffffffffffffffffffffff021916908373ffffffffffffffffffffffffffffffffffffffff160217905550808273ffffffffffffffffffffffffffffffffffffffff16600073ffffffffffffffffffffffffffffffffffffffff167fddf252ad1be2c89b69c2b068fc378daa952ba7f163c4a11628f55a4df523b3ef60405160405180910390a45050565b828054612794906138c6565b90600052602060002090601f0160209004810192826127b657600085556127fd565b82601f106127cf57805160ff19168380011785556127fd565b828001600101855582156127fd579182015b828111156127fc5782518255916020019190600101906127e1565b5b50905061280a919061280e565b5090565b5b8082111561282757600081600090555060010161280f565b5090565b600061283e6128398461364b565b613626565b90508281526020810184848401111561285a57612859613a93565b5b612865848285613884565b509392505050565b600061288061287b8461367c565b613626565b90508281526020810184848401111561289c5761289b613a93565b5b6128a7848285613884565b509392505050565b6000813590506128be8161418f565b92915050565b6000813590506128d3816141a6565b92915050565b6000813590506128e8816141bd565b92915050565b6000815190506128fd816141bd565b92915050565b600082601f83011261291857612917613a8e565b5b813561292884826020860161282b565b91505092915050565b600082601f83011261294657612945613a8e565b5b813561295684826020860161286d565b91505092915050565b60008135905061296e816141d4565b92915050565b60006020828403121561298a57612989613a9d565b5b6000612998848285016128af565b91505092915050565b600080604083850312156129b8576129b7613a9d565b5b60006129c6858286016128af565b92505060206129d7858286016128af565b9150509250929050565b6000806000606084860312156129fa576129f9613a9d565b5b6000612a08868287016128af565b9350506020612a19868287016128af565b9250506040612a2a8682870161295f565b9150509250925092565b60008060008060808587031215612a4e57612a4d613a9d565b5b6000612a5c878288016128af565b9450506020612a6d878288016128af565b9350506040612a7e8782880161295f565b925050606085013567ffffffffffffffff811115612a9f57612a9e613a98565b5b612aab87828801612903565b91505092959194509250565b60008060408385031215612ace57612acd613a9d565b5b6000612adc858286016128af565b9250506020612aed858286016128c4565b9150509250929050565b60008060408385031215612b0e57612b0d613a9d565b5b6000612b1c858286016128af565b9250506020612b2d8582860161295f565b9150509250929050565b600060208284031215612b4d57612b4c613a9d565b5b6000612b5b848285016128d9565b91505092915050565b600060208284031215612b7a57612b79613a9d565b5b6000612b88848285016128ee565b91505092915050565b600060208284031215612ba757612ba6613a9d565b5b600082013567ffffffffffffffff811115612bc557612bc4613a98565b5b612bd184828501612931565b91505092915050565b600060208284031215612bf057612bef613a9d565b5b6000612bfe8482850161295f565b91505092915050565b60008060408385031215612c1e57612c1d613a9d565b5b6000612c2c8582860161295f565b9250506020612c3d8582860161295f565b9150509250929050565b612c5081613810565b82525050565b612c5f81613822565b82525050565b6000612c70826136ad565b612c7a81856136c3565b9350612c8a818560208601613893565b612c9381613aa2565b840191505092915050565b6000612ca9826136b8565b612cb381856136df565b9350612cc3818560208601613893565b612ccc81613aa2565b840191505092915050565b6000612ce2826136b8565b612cec81856136f0565b9350612cfc818560208601613893565b80840191505092915050565b6000612d156027836136df565b9150612d2082613ab3565b604082019050919050565b6000612d386032836136df565b9150612d4382613b02565b604082019050919050565b6000612d5b601a836136df565b9150612d6682613b51565b602082019050919050565b6000612d7e601c836136df565b9150612d8982613b7a565b602082019050919050565b6000612da16024836136df565b9150612dac82613ba3565b604082019050919050565b6000612dc46019836136df565b9150612dcf82613bf2565b602082019050919050565b6000612de7603a836136df565b9150612df282613c1b565b604082019050919050565b6000612e0a601d836136df565b9150612e1582613c6a565b602082019050919050565b6000612e2d602c836136df565b9150612e3882613c93565b604082019050919050565b6000612e50600d836136df565b9150612e5b82613ce2565b602082019050919050565b6000612e736038836136df565b9150612e7e82613d0b565b604082019050919050565b6000612e96602a836136df565b9150612ea182613d5a565b604082019050919050565b6000612eb96029836136df565b9150612ec482613da9565b604082019050919050565b6000612edc602e836136df565b9150612ee782613df8565b604082019050919050565b6000612eff6020836136df565b9150612f0a82613e47565b602082019050919050565b6000612f226031836136df565b9150612f2d82613e70565b604082019050919050565b6000612f45602c836136df565b9150612f5082613ebf565b604082019050919050565b6000612f68600f836136df565b9150612f7382613f0e565b602082019050919050565b6000612f8b6029836136df565b9150612f9682613f37565b604082019050919050565b6000612fae602f836136df565b9150612fb982613f86565b604082019050919050565b6000612fd16014836136df565b9150612fdc82613fd5565b602082019050919050565b6000612ff46021836136df565b9150612fff82613ffe565b604082019050919050565b60006130176000836136d4565b91506130228261404d565b600082019050919050565b600061303a6031836136df565b915061304582614050565b604082019050919050565b600061305d6021836136df565b91506130688261409f565b604082019050919050565b6000613080600d836136df565b915061308b826140ee565b602082019050919050565b60006130a36028836136df565b91506130ae82614117565b604082019050919050565b60006130c66010836136df565b91506130d182614166565b602082019050919050565b6130e58161387a565b82525050565b60006130f78285612cd7565b91506131038284612cd7565b91508190509392505050565b600061311a8261300a565b9150819050919050565b60006020820190506131396000830184612c47565b92915050565b60006080820190506131546000830187612c47565b6131616020830186612c47565b61316e60408301856130dc565b81810360608301526131808184612c65565b905095945050505050565b60006020820190506131a06000830184612c56565b92915050565b600060208201905081810360008301526131c08184612c9e565b905092915050565b600060208201905081810360008301526131e181612d08565b9050919050565b6000602082019050818103600083015261320181612d2b565b9050919050565b6000602082019050818103600083015261322181612d4e565b9050919050565b6000602082019050818103600083015261324181612d71565b9050919050565b6000602082019050818103600083015261326181612d94565b9050919050565b6000602082019050818103600083015261328181612db7565b9050919050565b600060208201905081810360008301526132a181612dda565b9050919050565b600060208201905081810360008301526132c181612dfd565b9050919050565b600060208201905081810360008301526132e181612e20565b9050919050565b6000602082019050818103600083015261330181612e43565b9050919050565b6000602082019050818103600083015261332181612e66565b9050919050565b6000602082019050818103600083015261334181612e89565b9050919050565b6000602082019050818103600083015261336181612eac565b9050919050565b6000602082019050818103600083015261338181612ecf565b9050919050565b600060208201905081810360008301526133a181612ef2565b9050919050565b600060208201905081810360008301526133c181612f15565b9050919050565b600060208201905081810360008301526133e181612f38565b9050919050565b6000602082019050818103600083015261340181612f5b565b9050919050565b6000602082019050818103600083015261342181612f7e565b9050919050565b6000602082019050818103600083015261344181612fa1565b9050919050565b6000602082019050818103600083015261346181612fc4565b9050919050565b6000602082019050818103600083015261348181612fe7565b9050919050565b600060208201905081810360008301526134a18161302d565b9050919050565b600060208201905081810360008301526134c181613050565b9050919050565b600060208201905081810360008301526134e181613073565b9050919050565b6000602082019050818103600083015261350181613096565b9050919050565b60006020820190508181036000830152613521816130b9565b9050919050565b600060208201905061353d60008301846130dc565b92915050565b600060608201905061355860008301866130dc565b818103602083015261356a8185612c9e565b905061357960408301846130dc565b949350505050565b600060408201905061359660008301856130dc565b6135a360208301846130dc565b9392505050565b60006060820190506135bf60008301866130dc565b6135cc60208301856130dc565b6135d960408301846130dc565b949350505050565b60006080820190506135f660008301876130dc565b61360360208301866130dc565b61361060408301856130dc565b61361d60608301846130dc565b95945050505050565b6000613630613641565b905061363c82826138f8565b919050565b6000604051905090565b600067ffffffffffffffff82111561366657613665613a5f565b5b61366f82613aa2565b9050602081019050919050565b600067ffffffffffffffff82111561369757613696613a5f565b5b6136a082613aa2565b9050602081019050919050565b600081519050919050565b600081519050919050565b600082825260208201905092915050565b600081905092915050565b600082825260208201905092915050565b600081905092915050565b60006137068261387a565b91506137118361387a565b9250827fffffffffffffffffffffffffffffffffffffffffffffffffffffffffffffffff03821115613746576137456139a3565b5b828201905092915050565b600061375c8261387a565b91506137678361387a565b925082613777576137766139d2565b5b828204905092915050565b600061378d8261387a565b91506137988361387a565b9250817fffffffffffffffffffffffffffffffffffffffffffffffffffffffffffffffff04831182151516156137d1576137d06139a3565b5b828202905092915050565b60006137e78261387a565b91506137f28361387a565b925082821015613805576138046139a3565b5b828203905092915050565b600061381b8261385a565b9050919050565b60008115159050919050565b60007fffffffff0000000000000000000000000000000000000000000000000000000082169050919050565b600073ffffffffffffffffffffffffffffffffffffffff82169050919050565b6000819050919050565b82818337600083830152505050565b60005b838110156138b1578082015181840152602081019050613896565b838111156138c0576000848401525b50505050565b600060028204905060018216806138de57607f821691505b602082108114156138f2576138f1613a01565b5b50919050565b61390182613aa2565b810181811067ffffffffffffffff821117156139205761391f613a5f565b5b80604052505050565b60006139348261387a565b91507fffffffffffffffffffffffffffffffffffffffffffffffffffffffffffffffff821415613967576139666139a3565b5b600182019050919050565b600061397d8261387a565b91506139888361387a565b925082613998576139976139d2565b5b828206905092915050565b7f4e487b7100000000000000000000000000000000000000000000000000000000600052601160045260246000fd5b7f4e487b7100000000000000000000000000000000000000000000000000000000600052601260045260246000fd5b7f4e487b7100000000000000000000000000000000000000000000000000000000600052602260045260246000fd5b7f4e487b7100000000000000000000000000000000000000000000000000000000600052603260045260246000fd5b7f4e487b7100000000000000000000000000000000000000000000000000000000600052604160045260246000fd5b600080fd5b600080fd5b600080fd5b600080fd5b6000601f19601f8301169050919050565b7f4f6e6c7920746f6b656e206f776e65722063616e2063616c6c2074686973206660008201527f756e6374696f6e00000000000000000000000000000000000000000000000000602082015250565b7f4552433732313a207472616e7366657220746f206e6f6e20455243373231526560008201527f63656976657220696d706c656d656e7465720000000000000000000000000000602082015250565b7f417474656d707420746f20627579206f776e656420746f6b656e000000000000600082015250565b7f4552433732313a20746f6b656e20616c7265616479206d696e74656400000000600082015250565b7f4552433732313a207472616e7366657220746f20746865207a65726f2061646460008201527f7265737300000000000000000000000000000000000000000000000000000000602082015250565b7f4552433732313a20617070726f766520746f2063616c6c657200000000000000600082015250565b7f416464726573733a20756e61626c6520746f2073656e642076616c75652c207260008201527f6563697069656e74206d61792068617665207265766572746564000000000000602082015250565b7f416464726573733a20696e73756666696369656e742062616c616e6365000000600082015250565b7f4552433732313a206f70657261746f7220717565727920666f72206e6f6e657860008201527f697374656e7420746f6b656e0000000000000000000000000000000000000000602082015250565b7f496e76616c696420746f6b656e00000000000000000000000000000000000000600082015250565b7f4552433732313a20617070726f76652063616c6c6572206973206e6f74206f7760008201527f6e6572206e6f7220617070726f76656420666f7220616c6c0000000000000000602082015250565b7f4552433732313a2062616c616e636520717565727920666f7220746865207a6560008201527f726f206164647265737300000000000000000000000000000000000000000000602082015250565b7f4552433732313a206f776e657220717565727920666f72206e6f6e657869737460008201527f656e7420746f6b656e0000000000000000000000000000000000000000000000602082015250565b7f45524337323155524953746f726167653a2055524920736574206f66206e6f6e60008201527f6578697374656e7420746f6b656e000000000000000000000000000000000000602082015250565b7f4552433732313a206d696e7420746f20746865207a65726f2061646472657373600082015250565b7f45524337323155524953746f726167653a2055524920717565727920666f722060008201527f6e6f6e6578697374656e7420746f6b656e000000000000000000000000000000602082015250565b7f4552433732313a20617070726f76656420717565727920666f72206e6f6e657860008201527f697374656e7420746f6b656e0000000000000000000000000000000000000000602082015250565b7f5072696365206e6f74206d617463680000000000000000000000000000000000600082015250565b7f4552433732313a207472616e73666572206f6620746f6b656e2074686174206960008201527f73206e6f74206f776e0000000000000000000000000000000000000000000000602082015250565b7f4552433732314d657461646174613a2055524920717565727920666f72206e6f60008201527f6e6578697374656e7420746f6b656e0000000000000000000000000000000000602082015250565b7f546f6b656e20616c7265616479206c6973746564000000000000000000000000600082015250565b7f4552433732313a20617070726f76616c20746f2063757272656e74206f776e6560008201527f7200000000000000000000000000000000000000000000000000000000000000602082015250565b50565b7f4552433732313a207472616e736665722063616c6c6572206973206e6f74206f60008201527f776e6572206e6f7220617070726f766564000000000000000000000000000000602082015250565b7f4f6e6c792061646d696e2063616e2063616c6c20746869732066756e6374696f60008201527f6e00000000000000000000000000000000000000000000000000000000000000602082015250565b7f496e76616c696420707269636500000000000000000000000000000000000000600082015250565b7f4f7065726174696f6e2063616e6e6f7420626520646f6e6520746f206c69737460008201527f656420746f6b656e000000000000000000000000000000000000000000000000602082015250565b7f546f6b656e206e6f74206c697374656400000000000000000000000000000000600082015250565b61419881613810565b81146141a357600080fd5b50565b6141af81613822565b81146141ba57600080fd5b50565b6141c68161382e565b81146141d157600080fd5b50565b6141dd8161387a565b81146141e857600080fd5b5056fea26469706673582212203d704249f5c0d15de3be31e389f1441deec6d45f98aa5a858fcc6681045f45eb64736f6c63430008060033",
  "immutableReferences": {},
  "source": "pragma solidity ^0.8.0;\n\nimport \"@openzeppelin/contracts/utils/Address.sol\";\nimport \"@openzeppelin/contracts/utils/Counters.sol\";\nimport \"@openzeppelin/contracts/token/ERC721/ERC721.sol\";\nimport \"@openzeppelin/contracts/token/ERC721/extensions/ERC721URIStorage.sol\";\n\ncontract Market is ERC721URIStorage {\n    using Address for address;\n    using Counters for Counters.Counter;\n\n    struct ListingInfo {\n        uint256 price;\n        bool onList;\n    }\n\n    address payable private _platform;\n\n    address private _admin;\n\n    Counters.Counter private _tokenIds;\n\n    mapping (uint256 => ListingInfo) private _listings;\n\n    mapping (address => bool) private _minted;\n\n    mapping (uint256 => bool) private _verified;\n\n    mapping (uint256 => address) private _creators;\n\n    constructor (address admin_, address payable platform_) ERC721(\"NFT\", \"NFT\") {\n        _admin = admin_;\n        _platform = platform_;\n    }\n\n    modifier onlyAdmin {\n        require (\n            msg.sender == _admin,\n            \"Only admin can call this function\"\n        );\n        _;\n    }\n\n    modifier onlyTokenOwner (uint256 tokenId) {\n        require (\n            ownerOf(tokenId) == msg.sender, \n            \"Only token owner can call this function\"\n        );\n        _;\n    }\n\n    modifier onlyUnlistedToken (uint256 tokenId) {\n        require (\n            !isListed(tokenId),\n            \"Operation cannot be done to listed token\"\n        );\n        _;\n    }\n\n    event Listing (\n        uint256 tokenId,\n        address indexed from,\n        uint256 price,\n        uint256 timestamp\n    );\n\n    event Cancellation (\n        uint256 tokenId,\n        address indexed from,\n        uint256 timestamp\n    );\n\n    event Edit (\n        uint256 tokenId,\n        address indexed from,\n        uint256 oldPrice,\n        uint256 newPrice,\n        uint256 timestamp\n    );\n\n    event Purchase (\n        uint256 tokenId,\n        address indexed buyer,\n        address indexed seller,\n        uint256 price,\n        uint256 timestamp\n    );\n\n    event Mint (\n        uint256 tokenId,\n        address indexed creator,\n        string tokenURI,\n        uint256 timestamp\n    );\n\n    function hasMinted(address addr) public view returns (bool) {\n        return _minted[addr];\n    }\n\n    function hasVerified(uint256 tokenId) public view returns (bool) {\n        return _verified[tokenId];\n    }\n\n    function creatorOf(uint256 tokenId) public view returns (address) \n    {\n        return _creators[tokenId];\n    }\n\n    function mintNFT(string memory tokenURI) public returns (uint256) {\n        // require(!_minted[msg.sender], \"This address has already minted a token\");\n        _tokenIds.increment();\n\n        uint256 newId = _tokenIds.current();\n        _safeMint(msg.sender, newId);\n        _setTokenURI(newId, tokenURI);\n        _creators[newId] = msg.sender;\n        _minted[msg.sender] = true;\n\n        emit Mint(\n            newId,\n            msg.sender,\n            tokenURI,\n            block.timestamp\n        );\n\n        return newId;\n    }\n\n    function verify(uint256 tokenId) public onlyAdmin {\n        _verified[tokenId] = true;\n    }\n\n    function isListed(uint256 tokenId) public view returns (bool) {\n        return _listings[tokenId].onList;\n    }\n\n    function priceOf(uint256 tokenId) public view returns (uint256) {\n        require (isListed(tokenId), \"Token not listed\");\n        return _listings[tokenId].price;\n    }\n\n    function approve(address to, uint256 tokenId) public onlyUnlistedToken(tokenId) override {\n        super.approve(to, tokenId);\n    }\n\n    function transferFrom(address from, address to, uint256 tokenId) public onlyUnlistedToken(tokenId) override {\n        super.transferFrom(from, to, tokenId);\n    }\n\n    function safeTransferFrom(address from, address to, uint256 tokenId, bytes memory _data) public onlyUnlistedToken(tokenId) override {\n        super.safeTransferFrom(from, to, tokenId, _data);\n    }\n\n    function listToken(uint256 tokenId, uint256 price) public onlyTokenOwner(tokenId) {\n        require (price > 0, \"Invalid price\");\n        require (!isListed(tokenId), \"Token already listed\");\n\n        _listings[tokenId] = ListingInfo(price, true);\n\n        emit Listing(\n            tokenId,\n            msg.sender,\n            price,\n            block.timestamp\n        );\n    }\n\n    function cancelListing(uint256 tokenId) public onlyTokenOwner(tokenId) {\n        require (isListed(tokenId), \"Invalid token\");\n\n        _listings[tokenId].onList = false;\n\n        emit Cancellation(\n            tokenId,\n            msg.sender,\n            block.timestamp\n        );\n    }\n\n    function setPrice(uint256 tokenId, uint256 price) public onlyTokenOwner(tokenId) {\n        require (price > 0, \"Invalid price\");\n        require (isListed(tokenId), \"Invalid token\");\n    \n        uint256 oldPrice = _listings[tokenId].price;\n        _listings[tokenId].price = price;\n\n        emit Edit(\n            tokenId,\n            msg.sender,\n            oldPrice,\n            price,\n            block.timestamp\n        );\n    }\n\n    function buyToken(uint256 tokenId) public payable {\n        require (isListed(tokenId), \"Invalid token\");\n        require (ownerOf(tokenId) != msg.sender, \"Attempt to buy owned token\");\n\n        uint256 price = priceOf(tokenId);\n        require (msg.value == price, \"Price not match\");\n\n        uint256 payment = price * 19 / 20;\n        uint256 bonus = (price - payment) / 2;\n        uint256 fee = price - payment - bonus;\n        address owner = ownerOf(tokenId);\n        Address.sendValue(payable(owner), payment);\n        Address.sendValue(payable(creatorOf(tokenId)), bonus);\n        Address.sendValue(_platform, fee);\n\n        _safeTransfer(ownerOf(tokenId), msg.sender, tokenId, '');\n        _listings[tokenId].onList = false;\n\n        emit Purchase(\n            tokenId,\n            msg.sender,\n            owner,\n            price,\n            block.timestamp\n        );\n    }\n}",
  "sourcePath": "/Users/sherlock/ChainLab/market_uat/contracts/Market.sol",
  "compiler": {
    "name": "solc",
    "version": "0.8.6+commit.11564f7e.Emscripten.clang"
  },
  "schemaVersion": "3.4.1",
  "updatedAt": "2021-07-30T08:03:38.628Z",
  "networkType": "ethereum",
  "devdoc": {
    "kind": "dev",
    "methods": {
      "approve(address,uint256)": {
        "details": "See {IERC721-approve}."
      },
      "balanceOf(address)": {
        "details": "See {IERC721-balanceOf}."
      },
      "getApproved(uint256)": {
        "details": "See {IERC721-getApproved}."
      },
      "isApprovedForAll(address,address)": {
        "details": "See {IERC721-isApprovedForAll}."
      },
      "name()": {
        "details": "See {IERC721Metadata-name}."
      },
      "ownerOf(uint256)": {
        "details": "See {IERC721-ownerOf}."
      },
      "safeTransferFrom(address,address,uint256)": {
        "details": "See {IERC721-safeTransferFrom}."
      },
      "safeTransferFrom(address,address,uint256,bytes)": {
        "details": "See {IERC721-safeTransferFrom}."
      },
      "setApprovalForAll(address,bool)": {
        "details": "See {IERC721-setApprovalForAll}."
      },
      "supportsInterface(bytes4)": {
        "details": "See {IERC165-supportsInterface}."
      },
      "symbol()": {
        "details": "See {IERC721Metadata-symbol}."
      },
      "tokenURI(uint256)": {
        "details": "See {IERC721Metadata-tokenURI}."
      },
      "transferFrom(address,address,uint256)": {
        "details": "See {IERC721-transferFrom}."
      }
    },
    "version": 1
  },
  "userdoc": {
    "kind": "user",
    "methods": {},
    "version": 1
  }
}