{
  "contractName": "NFT",
  "abi": [
    {
      "inputs": [
        {
          "internalType": "address",
          "name": "admin_",
          "type": "address"
        }
      ],
      "stateMutability": "nonpayable",
      "type": "constructor"
    },
    {
      "anonymous": false,
      "inputs": [
        {
          "indexed": true,
          "internalType": "address",
          "name": "owner",
          "type": "address"
        },
        {
          "indexed": true,
          "internalType": "address",
          "name": "approved",
          "type": "address"
        },
        {
          "indexed": true,
          "internalType": "uint256",
          "name": "tokenId",
          "type": "uint256"
        }
      ],
      "name": "Approval",
      "type": "event"
    },
    {
      "anonymous": false,
      "inputs": [
        {
          "indexed": true,
          "internalType": "address",
          "name": "owner",
          "type": "address"
        },
        {
          "indexed": true,
          "internalType": "address",
          "name": "operator",
          "type": "address"
        },
        {
          "indexed": false,
          "internalType": "bool",
          "name": "approved",
          "type": "bool"
        }
      ],
      "name": "ApprovalForAll",
      "type": "event"
    },
    {
      "anonymous": false,
      "inputs": [
        {
          "indexed": true,
          "internalType": "uint256",
          "name": "tokenId",
          "type": "uint256"
        },
        {
          "indexed": true,
          "internalType": "address",
          "name": "creator",
          "type": "address"
        },
        {
          "indexed": false,
          "internalType": "string",
          "name": "tokenURI",
          "type": "string"
        },
        {
          "indexed": false,
          "internalType": "uint256",
          "name": "timestamp",
          "type": "uint256"
        }
      ],
      "name": "Mint",
      "type": "event"
    },
    {
      "anonymous": false,
      "inputs": [
        {
          "indexed": true,
          "internalType": "address",
          "name": "from",
          "type": "address"
        },
        {
          "indexed": true,
          "internalType": "address",
          "name": "to",
          "type": "address"
        },
        {
          "indexed": true,
          "internalType": "uint256",
          "name": "tokenId",
          "type": "uint256"
        }
      ],
      "name": "Transfer",
      "type": "event"
    },
    {
      "anonymous": false,
      "inputs": [
        {
          "indexed": true,
          "internalType": "address",
          "name": "creator",
          "type": "address"
        },
        {
          "indexed": true,
          "internalType": "address",
          "name": "admin",
          "type": "address"
        },
        {
          "indexed": false,
          "internalType": "uint256",
          "name": "timestamp",
          "type": "uint256"
        }
      ],
      "name": "Verification",
      "type": "event"
    },
    {
      "inputs": [
        {
          "internalType": "address",
          "name": "to",
          "type": "address"
        },
        {
          "internalType": "uint256",
          "name": "tokenId",
          "type": "uint256"
        }
      ],
      "name": "approve",
      "outputs": [],
      "stateMutability": "nonpayable",
      "type": "function"
    },
    {
      "inputs": [
        {
          "internalType": "address",
          "name": "owner",
          "type": "address"
        }
      ],
      "name": "balanceOf",
      "outputs": [
        {
          "internalType": "uint256",
          "name": "",
          "type": "uint256"
        }
      ],
      "stateMutability": "view",
      "type": "function",
      "constant": true
    },
    {
      "inputs": [
        {
          "internalType": "uint256",
          "name": "tokenId",
          "type": "uint256"
        }
      ],
      "name": "getApproved",
      "outputs": [
        {
          "internalType": "address",
          "name": "",
          "type": "address"
        }
      ],
      "stateMutability": "view",
      "type": "function",
      "constant": true
    },
    {
      "inputs": [
        {
          "internalType": "address",
          "name": "owner",
          "type": "address"
        },
        {
          "internalType": "address",
          "name": "operator",
          "type": "address"
        }
      ],
      "name": "isApprovedForAll",
      "outputs": [
        {
          "internalType": "bool",
          "name": "",
          "type": "bool"
        }
      ],
      "stateMutability": "view",
      "type": "function",
      "constant": true
    },
    {
      "inputs": [],
      "name": "name",
      "outputs": [
        {
          "internalType": "string",
          "name": "",
          "type": "string"
        }
      ],
      "stateMutability": "view",
      "type": "function",
      "constant": true
    },
    {
      "inputs": [
        {
          "internalType": "uint256",
          "name": "tokenId",
          "type": "uint256"
        }
      ],
      "name": "ownerOf",
      "outputs": [
        {
          "internalType": "address",
          "name": "",
          "type": "address"
        }
      ],
      "stateMutability": "view",
      "type": "function",
      "constant": true
    },
    {
      "inputs": [
        {
          "internalType": "address",
          "name": "from",
          "type": "address"
        },
        {
          "internalType": "address",
          "name": "to",
          "type": "address"
        },
        {
          "internalType": "uint256",
          "name": "tokenId",
          "type": "uint256"
        }
      ],
      "name": "safeTransferFrom",
      "outputs": [],
      "stateMutability": "nonpayable",
      "type": "function"
    },
    {
      "inputs": [
        {
          "internalType": "address",
          "name": "from",
          "type": "address"
        },
        {
          "internalType": "address",
          "name": "to",
          "type": "address"
        },
        {
          "internalType": "uint256",
          "name": "tokenId",
          "type": "uint256"
        },
        {
          "internalType": "bytes",
          "name": "_data",
          "type": "bytes"
        }
      ],
      "name": "safeTransferFrom",
      "outputs": [],
      "stateMutability": "nonpayable",
      "type": "function"
    },
    {
      "inputs": [
        {
          "internalType": "address",
          "name": "operator",
          "type": "address"
        },
        {
          "internalType": "bool",
          "name": "approved",
          "type": "bool"
        }
      ],
      "name": "setApprovalForAll",
      "outputs": [],
      "stateMutability": "nonpayable",
      "type": "function"
    },
    {
      "inputs": [
        {
          "internalType": "bytes4",
          "name": "interfaceId",
          "type": "bytes4"
        }
      ],
      "name": "supportsInterface",
      "outputs": [
        {
          "internalType": "bool",
          "name": "",
          "type": "bool"
        }
      ],
      "stateMutability": "view",
      "type": "function",
      "constant": true
    },
    {
      "inputs": [],
      "name": "symbol",
      "outputs": [
        {
          "internalType": "string",
          "name": "",
          "type": "string"
        }
      ],
      "stateMutability": "view",
      "type": "function",
      "constant": true
    },
    {
      "inputs": [
        {
          "internalType": "uint256",
          "name": "tokenId",
          "type": "uint256"
        }
      ],
      "name": "tokenURI",
      "outputs": [
        {
          "internalType": "string",
          "name": "",
          "type": "string"
        }
      ],
      "stateMutability": "view",
      "type": "function",
      "constant": true
    },
    {
      "inputs": [
        {
          "internalType": "address",
          "name": "from",
          "type": "address"
        },
        {
          "internalType": "address",
          "name": "to",
          "type": "address"
        },
        {
          "internalType": "uint256",
          "name": "tokenId",
          "type": "uint256"
        }
      ],
      "name": "transferFrom",
      "outputs": [],
      "stateMutability": "nonpayable",
      "type": "function"
    },
    {
      "inputs": [
        {
          "internalType": "address",
          "name": "addr",
          "type": "address"
        }
      ],
      "name": "isVerified",
      "outputs": [
        {
          "internalType": "bool",
          "name": "",
          "type": "bool"
        }
      ],
      "stateMutability": "view",
      "type": "function",
      "constant": true
    },
    {
      "inputs": [
        {
          "internalType": "uint256",
          "name": "tokenId",
          "type": "uint256"
        }
      ],
      "name": "creatorOf",
      "outputs": [
        {
          "internalType": "address",
          "name": "",
          "type": "address"
        }
      ],
      "stateMutability": "view",
      "type": "function",
      "constant": true
    },
    {
      "inputs": [
        {
          "internalType": "string",
          "name": "tokenURI",
          "type": "string"
        }
      ],
      "name": "mintNFT",
      "outputs": [
        {
          "internalType": "uint256",
          "name": "",
          "type": "uint256"
        }
      ],
      "stateMutability": "nonpayable",
      "type": "function"
    },
    {
      "inputs": [
        {
          "internalType": "address",
          "name": "creator",
          "type": "address"
        }
      ],
      "name": "verify",
      "outputs": [],
      "stateMutability": "nonpayable",
      "type": "function"
    }
  ],
  "bytecode": "0x60806040523480156200001157600080fd5b5060405162003329380380620033298339818101604052810190620000379190620001ee565b6040518060400160405280600381526020017f4e465400000000000000000000000000000000000000000000000000000000008152506040518060400160405280600381526020017f4e465400000000000000000000000000000000000000000000000000000000008152508160009080519060200190620000bb92919062000127565b508060019080519060200190620000d492919062000127565b505050600160078190555080600b60006101000a81548173ffffffffffffffffffffffffffffffffffffffff021916908373ffffffffffffffffffffffffffffffffffffffff16021790555050620002d8565b828054620001359062000254565b90600052602060002090601f016020900481019282620001595760008555620001a5565b82601f106200017457805160ff1916838001178555620001a5565b82800160010185558215620001a5579182015b82811115620001a457825182559160200191906001019062000187565b5b509050620001b49190620001b8565b5090565b5b80821115620001d3576000816000905550600101620001b9565b5090565b600081519050620001e881620002be565b92915050565b600060208284031215620002075762000206620002b9565b5b60006200021784828501620001d7565b91505092915050565b60006200022d8262000234565b9050919050565b600073ffffffffffffffffffffffffffffffffffffffff82169050919050565b600060028204905060018216806200026d57607f821691505b602082108114156200028457620002836200028a565b5b50919050565b7f4e487b7100000000000000000000000000000000000000000000000000000000600052602260045260246000fd5b600080fd5b620002c98162000220565b8114620002d557600080fd5b50565b61304180620002e86000396000f3fe608060405234801561001057600080fd5b506004361061010b5760003560e01c806363a9c3d7116100a2578063b88d4fde11610071578063b88d4fde146102c8578063b9209e33146102e4578063c87b56dd14610314578063e985e9c514610344578063fb37e883146103745761010b565b806363a9c3d71461024257806370a082311461025e57806395d89b411461028e578063a22cb465146102ac5761010b565b806323b872dd116100de57806323b872dd146101aa57806342842e0e146101c6578063589a1743146101e25780636352211e146102125761010b565b806301ffc9a71461011057806306fdde0314610140578063081812fc1461015e578063095ea7b31461018e575b600080fd5b61012a60048036038101906101259190611f58565b6103a4565b60405161013791906123f9565b60405180910390f35b610148610486565b6040516101559190612414565b60405180910390f35b61017860048036038101906101739190611ffb565b610518565b6040516101859190612392565b60405180910390f35b6101a860048036038101906101a39190611f18565b61059d565b005b6101c460048036038101906101bf9190611e02565b6106b5565b005b6101e060048036038101906101db9190611e02565b610715565b005b6101fc60048036038101906101f79190611ffb565b610735565b6040516102099190612392565b60405180910390f35b61022c60048036038101906102279190611ffb565b610772565b6040516102399190612392565b60405180910390f35b61025c60048036038101906102579190611d95565b610824565b005b61027860048036038101906102739190611d95565b610987565b6040516102859190612676565b60405180910390f35b610296610a3f565b6040516102a39190612414565b60405180910390f35b6102c660048036038101906102c19190611ed8565b610ad1565b005b6102e260048036038101906102dd9190611e55565b610c52565b005b6102fe60048036038101906102f99190611d95565b610cb4565b60405161030b91906123f9565b60405180910390f35b61032e60048036038101906103299190611ffb565b610d0a565b60405161033b9190612414565b60405180910390f35b61035e60048036038101906103599190611dc2565b610e5c565b60405161036b91906123f9565b60405180910390f35b61038e60048036038101906103899190611fb2565b610ef0565b60405161039b9190612676565b60405180910390f35b60007f80ac58cd000000000000000000000000000000000000000000000000000000007bffffffffffffffffffffffffffffffffffffffffffffffffffffffff1916827bffffffffffffffffffffffffffffffffffffffffffffffffffffffff1916148061046f57507f5b5e139f000000000000000000000000000000000000000000000000000000007bffffffffffffffffffffffffffffffffffffffffffffffffffffffff1916827bffffffffffffffffffffffffffffffffffffffffffffffffffffffff1916145b8061047f575061047e82610fcf565b5b9050919050565b606060008054610495906128cc565b80601f01602080910402602001604051908101604052809291908181526020018280546104c1906128cc565b801561050e5780601f106104e35761010080835404028352916020019161050e565b820191906000526020600020905b8154815290600101906020018083116104f157829003601f168201915b5050505050905090565b600061052382611039565b610562576040517f08c379a000000000000000000000000000000000000000000000000000000000815260040161055990612596565b60405180910390fd5b6004600083815260200190815260200160002060009054906101000a900473ffffffffffffffffffffffffffffffffffffffff169050919050565b60006105a882610772565b90508073ffffffffffffffffffffffffffffffffffffffff168373ffffffffffffffffffffffffffffffffffffffff161415610619576040517f08c379a0000000000000000000000000000000000000000000000000000000008152600401610610906125f6565b60405180910390fd5b8073ffffffffffffffffffffffffffffffffffffffff166106386110a5565b73ffffffffffffffffffffffffffffffffffffffff1614806106675750610666816106616110a5565b610e5c565b5b6106a6576040517f08c379a000000000000000000000000000000000000000000000000000000000815260040161069d906124d6565b60405180910390fd5b6106b083836110ad565b505050565b6106c66106c06110a5565b82611166565b610705576040517f08c379a00000000000000000000000000000000000000000000000000000000081526004016106fc90612616565b60405180910390fd5b610710838383611244565b505050565b61073083838360405180602001604052806000815250610c52565b505050565b6000600a600083815260200190815260200160002060009054906101000a900473ffffffffffffffffffffffffffffffffffffffff169050919050565b6000806002600084815260200190815260200160002060009054906101000a900473ffffffffffffffffffffffffffffffffffffffff169050600073ffffffffffffffffffffffffffffffffffffffff168173ffffffffffffffffffffffffffffffffffffffff16141561081b576040517f08c379a000000000000000000000000000000000000000000000000000000000815260040161081290612516565b60405180910390fd5b80915050919050565b600b60009054906101000a900473ffffffffffffffffffffffffffffffffffffffff1673ffffffffffffffffffffffffffffffffffffffff163373ffffffffffffffffffffffffffffffffffffffff16146108b4576040517f08c379a00000000000000000000000000000000000000000000000000000000081526004016108ab90612636565b60405180910390fd5b6108bd81610cb4565b156108c757600080fd5b6001600960008373ffffffffffffffffffffffffffffffffffffffff1673ffffffffffffffffffffffffffffffffffffffff16815260200190815260200160002060006101000a81548160ff0219169083151502179055503373ffffffffffffffffffffffffffffffffffffffff168173ffffffffffffffffffffffffffffffffffffffff167fc7a4655d92f9f6a47ebdab85d8da06b65e4b2293b6504bb07d028bd797935dbf4260405161097c9190612676565b60405180910390a350565b60008073ffffffffffffffffffffffffffffffffffffffff168273ffffffffffffffffffffffffffffffffffffffff1614156109f8576040517f08c379a00000000000000000000000000000000000000000000000000000000081526004016109ef906124f6565b60405180910390fd5b600360008373ffffffffffffffffffffffffffffffffffffffff1673ffffffffffffffffffffffffffffffffffffffff168152602001908152602001600020549050919050565b606060018054610a4e906128cc565b80601f0160208091040260200160405190810160405280929190818152602001828054610a7a906128cc565b8015610ac75780601f10610a9c57610100808354040283529160200191610ac7565b820191906000526020600020905b815481529060010190602001808311610aaa57829003601f168201915b5050505050905090565b610ad96110a5565b73ffffffffffffffffffffffffffffffffffffffff168273ffffffffffffffffffffffffffffffffffffffff161415610b47576040517f08c379a0000000000000000000000000000000000000000000000000000000008152600401610b3e90612496565b60405180910390fd5b8060056000610b546110a5565b73ffffffffffffffffffffffffffffffffffffffff1673ffffffffffffffffffffffffffffffffffffffff16815260200190815260200160002060008473ffffffffffffffffffffffffffffffffffffffff1673ffffffffffffffffffffffffffffffffffffffff16815260200190815260200160002060006101000a81548160ff0219169083151502179055508173ffffffffffffffffffffffffffffffffffffffff16610c016110a5565b73ffffffffffffffffffffffffffffffffffffffff167f17307eab39ab6107e8899845ad3d59bd9653f200f220920489ca2b5937696c3183604051610c4691906123f9565b60405180910390a35050565b610c63610c5d6110a5565b83611166565b610ca2576040517f08c379a0000000000000000000000000000000000000000000000000000000008152600401610c9990612616565b60405180910390fd5b610cae848484846114a0565b50505050565b6000600960008373ffffffffffffffffffffffffffffffffffffffff1673ffffffffffffffffffffffffffffffffffffffff16815260200190815260200160002060009054906101000a900460ff169050919050565b6060610d1582611039565b610d54576040517f08c379a0000000000000000000000000000000000000000000000000000000008152600401610d4b90612576565b60405180910390fd5b6000600660008481526020019081526020016000208054610d74906128cc565b80601f0160208091040260200160405190810160405280929190818152602001828054610da0906128cc565b8015610ded5780601f10610dc257610100808354040283529160200191610ded565b820191906000526020600020905b815481529060010190602001808311610dd057829003601f168201915b505050505090506000610dfe6114fc565b9050600081511415610e14578192505050610e57565b600082511115610e49578082604051602001610e3192919061236e565b60405160208183030381529060405292505050610e57565b610e5284611513565b925050505b919050565b6000600560008473ffffffffffffffffffffffffffffffffffffffff1673ffffffffffffffffffffffffffffffffffffffff16815260200190815260200160002060008373ffffffffffffffffffffffffffffffffffffffff1673ffffffffffffffffffffffffffffffffffffffff16815260200190815260200160002060009054906101000a900460ff16905092915050565b600060026007541415610f38576040517f08c379a0000000000000000000000000000000000000000000000000000000008152600401610f2f90612656565b60405180910390fd5b6002600781905550610f4a60086115ba565b6000610f5660086115d0565b9050610f6233826115de565b610f6c81846115fc565b33600a600083815260200190815260200160002060006101000a81548173ffffffffffffffffffffffffffffffffffffffff021916908373ffffffffffffffffffffffffffffffffffffffff160217905550809150506001600781905550919050565b60007f01ffc9a7000000000000000000000000000000000000000000000000000000007bffffffffffffffffffffffffffffffffffffffffffffffffffffffff1916827bffffffffffffffffffffffffffffffffffffffffffffffffffffffff1916149050919050565b60008073ffffffffffffffffffffffffffffffffffffffff166002600084815260200190815260200160002060009054906101000a900473ffffffffffffffffffffffffffffffffffffffff1673ffffffffffffffffffffffffffffffffffffffff1614159050919050565b600033905090565b816004600083815260200190815260200160002060006101000a81548173ffffffffffffffffffffffffffffffffffffffff021916908373ffffffffffffffffffffffffffffffffffffffff160217905550808273ffffffffffffffffffffffffffffffffffffffff1661112083610772565b73ffffffffffffffffffffffffffffffffffffffff167f8c5be1e5ebec7d5bd14f71427d1e84f3dd0314c0f7b2291e5b200ac8c7c3b92560405160405180910390a45050565b600061117182611039565b6111b0576040517f08c379a00000000000000000000000000000000000000000000000000000000081526004016111a7906124b6565b60405180910390fd5b60006111bb83610772565b90508073ffffffffffffffffffffffffffffffffffffffff168473ffffffffffffffffffffffffffffffffffffffff16148061122a57508373ffffffffffffffffffffffffffffffffffffffff1661121284610518565b73ffffffffffffffffffffffffffffffffffffffff16145b8061123b575061123a8185610e5c565b5b91505092915050565b8273ffffffffffffffffffffffffffffffffffffffff1661126482610772565b73ffffffffffffffffffffffffffffffffffffffff16146112ba576040517f08c379a00000000000000000000000000000000000000000000000000000000081526004016112b1906125b6565b60405180910390fd5b600073ffffffffffffffffffffffffffffffffffffffff168273ffffffffffffffffffffffffffffffffffffffff16141561132a576040517f08c379a000000000000000000000000000000000000000000000000000000000815260040161132190612476565b60405180910390fd5b611335838383611670565b6113406000826110ad565b6001600360008573ffffffffffffffffffffffffffffffffffffffff1673ffffffffffffffffffffffffffffffffffffffff168152602001908152602001600020600082825461139091906127e2565b925050819055506001600360008473ffffffffffffffffffffffffffffffffffffffff1673ffffffffffffffffffffffffffffffffffffffff16815260200190815260200160002060008282546113e7919061275b565b92505081905550816002600083815260200190815260200160002060006101000a81548173ffffffffffffffffffffffffffffffffffffffff021916908373ffffffffffffffffffffffffffffffffffffffff160217905550808273ffffffffffffffffffffffffffffffffffffffff168473ffffffffffffffffffffffffffffffffffffffff167fddf252ad1be2c89b69c2b068fc378daa952ba7f163c4a11628f55a4df523b3ef60405160405180910390a4505050565b6114ab848484611244565b6114b784848484611675565b6114f6576040517f08c379a00000000000000000000000000000000000000000000000000000000081526004016114ed90612436565b60405180910390fd5b50505050565b606060405180602001604052806000815250905090565b606061151e82611039565b61155d576040517f08c379a0000000000000000000000000000000000000000000000000000000008152600401611554906125d6565b60405180910390fd5b60006115676114fc565b9050600081511161158757604051806020016040528060008152506115b2565b806115918461180c565b6040516020016115a292919061236e565b6040516020818303038152906040525b915050919050565b6001816000016000828254019250508190555050565b600081600001549050919050565b6115f882826040518060200160405280600081525061196d565b5050565b61160582611039565b611644576040517f08c379a000000000000000000000000000000000000000000000000000000000815260040161163b90612536565b60405180910390fd5b8060066000848152602001908152602001600020908051906020019061166b929190611ba9565b505050565b505050565b60006116968473ffffffffffffffffffffffffffffffffffffffff166119c8565b156117ff578373ffffffffffffffffffffffffffffffffffffffff1663150b7a026116bf6110a5565b8786866040518563ffffffff1660e01b81526004016116e194939291906123ad565b602060405180830381600087803b1580156116fb57600080fd5b505af192505050801561172c57506040513d601f19601f820116820180604052508101906117299190611f85565b60015b6117af573d806000811461175c576040519150601f19603f3d011682016040523d82523d6000602084013e611761565b606091505b506000815114156117a7576040517f08c379a000000000000000000000000000000000000000000000000000000000815260040161179e90612436565b60405180910390fd5b805181602001fd5b63150b7a0260e01b7bffffffffffffffffffffffffffffffffffffffffffffffffffffffff1916817bffffffffffffffffffffffffffffffffffffffffffffffffffffffff191614915050611804565b600190505b949350505050565b60606000821415611854576040518060400160405280600181526020017f30000000000000000000000000000000000000000000000000000000000000008152509050611968565b600082905060005b6000821461188657808061186f9061292f565b915050600a8261187f91906127b1565b915061185c565b60008167ffffffffffffffff8111156118a2576118a1612a65565b5b6040519080825280601f01601f1916602001820160405280156118d45781602001600182028036833780820191505090505b5090505b60008514611961576001826118ed91906127e2565b9150600a856118fc9190612978565b6030611908919061275b565b60f81b81838151811061191e5761191d612a36565b5b60200101907effffffffffffffffffffffffffffffffffffffffffffffffffffffffffffff1916908160001a905350600a8561195a91906127b1565b94506118d8565b8093505050505b919050565b61197783836119db565b6119846000848484611675565b6119c3576040517f08c379a00000000000000000000000000000000000000000000000000000000081526004016119ba90612436565b60405180910390fd5b505050565b600080823b905060008111915050919050565b600073ffffffffffffffffffffffffffffffffffffffff168273ffffffffffffffffffffffffffffffffffffffff161415611a4b576040517f08c379a0000000000000000000000000000000000000000000000000000000008152600401611a4290612556565b60405180910390fd5b611a5481611039565b15611a94576040517f08c379a0000000000000000000000000000000000000000000000000000000008152600401611a8b90612456565b60405180910390fd5b611aa060008383611670565b6001600360008473ffffffffffffffffffffffffffffffffffffffff1673ffffffffffffffffffffffffffffffffffffffff1681526020019081526020016000206000828254611af0919061275b565b92505081905550816002600083815260200190815260200160002060006101000a81548173ffffffffffffffffffffffffffffffffffffffff021916908373ffffffffffffffffffffffffffffffffffffffff160217905550808273ffffffffffffffffffffffffffffffffffffffff16600073ffffffffffffffffffffffffffffffffffffffff167fddf252ad1be2c89b69c2b068fc378daa952ba7f163c4a11628f55a4df523b3ef60405160405180910390a45050565b828054611bb5906128cc565b90600052602060002090601f016020900481019282611bd75760008555611c1e565b82601f10611bf057805160ff1916838001178555611c1e565b82800160010185558215611c1e579182015b82811115611c1d578251825591602001919060010190611c02565b5b509050611c2b9190611c2f565b5090565b5b80821115611c48576000816000905550600101611c30565b5090565b6000611c5f611c5a846126b6565b612691565b905082815260208101848484011115611c7b57611c7a612a99565b5b611c8684828561288a565b509392505050565b6000611ca1611c9c846126e7565b612691565b905082815260208101848484011115611cbd57611cbc612a99565b5b611cc884828561288a565b509392505050565b600081359050611cdf81612faf565b92915050565b600081359050611cf481612fc6565b92915050565b600081359050611d0981612fdd565b92915050565b600081519050611d1e81612fdd565b92915050565b600082601f830112611d3957611d38612a94565b5b8135611d49848260208601611c4c565b91505092915050565b600082601f830112611d6757611d66612a94565b5b8135611d77848260208601611c8e565b91505092915050565b600081359050611d8f81612ff4565b92915050565b600060208284031215611dab57611daa612aa3565b5b6000611db984828501611cd0565b91505092915050565b60008060408385031215611dd957611dd8612aa3565b5b6000611de785828601611cd0565b9250506020611df885828601611cd0565b9150509250929050565b600080600060608486031215611e1b57611e1a612aa3565b5b6000611e2986828701611cd0565b9350506020611e3a86828701611cd0565b9250506040611e4b86828701611d80565b9150509250925092565b60008060008060808587031215611e6f57611e6e612aa3565b5b6000611e7d87828801611cd0565b9450506020611e8e87828801611cd0565b9350506040611e9f87828801611d80565b925050606085013567ffffffffffffffff811115611ec057611ebf612a9e565b5b611ecc87828801611d24565b91505092959194509250565b60008060408385031215611eef57611eee612aa3565b5b6000611efd85828601611cd0565b9250506020611f0e85828601611ce5565b9150509250929050565b60008060408385031215611f2f57611f2e612aa3565b5b6000611f3d85828601611cd0565b9250506020611f4e85828601611d80565b9150509250929050565b600060208284031215611f6e57611f6d612aa3565b5b6000611f7c84828501611cfa565b91505092915050565b600060208284031215611f9b57611f9a612aa3565b5b6000611fa984828501611d0f565b91505092915050565b600060208284031215611fc857611fc7612aa3565b5b600082013567ffffffffffffffff811115611fe657611fe5612a9e565b5b611ff284828501611d52565b91505092915050565b60006020828403121561201157612010612aa3565b5b600061201f84828501611d80565b91505092915050565b61203181612816565b82525050565b61204081612828565b82525050565b600061205182612718565b61205b818561272e565b935061206b818560208601612899565b61207481612aa8565b840191505092915050565b600061208a82612723565b612094818561273f565b93506120a4818560208601612899565b6120ad81612aa8565b840191505092915050565b60006120c382612723565b6120cd8185612750565b93506120dd818560208601612899565b80840191505092915050565b60006120f660328361273f565b915061210182612ab9565b604082019050919050565b6000612119601c8361273f565b915061212482612b08565b602082019050919050565b600061213c60248361273f565b915061214782612b31565b604082019050919050565b600061215f60198361273f565b915061216a82612b80565b602082019050919050565b6000612182602c8361273f565b915061218d82612ba9565b604082019050919050565b60006121a560388361273f565b91506121b082612bf8565b604082019050919050565b60006121c8602a8361273f565b91506121d382612c47565b604082019050919050565b60006121eb60298361273f565b91506121f682612c96565b604082019050919050565b600061220e602e8361273f565b915061221982612ce5565b604082019050919050565b600061223160208361273f565b915061223c82612d34565b602082019050919050565b600061225460318361273f565b915061225f82612d5d565b604082019050919050565b6000612277602c8361273f565b915061228282612dac565b604082019050919050565b600061229a60298361273f565b91506122a582612dfb565b604082019050919050565b60006122bd602f8361273f565b91506122c882612e4a565b604082019050919050565b60006122e060218361273f565b91506122eb82612e99565b604082019050919050565b600061230360318361273f565b915061230e82612ee8565b604082019050919050565b600061232660218361273f565b915061233182612f37565b604082019050919050565b6000612349601f8361273f565b915061235482612f86565b602082019050919050565b61236881612880565b82525050565b600061237a82856120b8565b915061238682846120b8565b91508190509392505050565b60006020820190506123a76000830184612028565b92915050565b60006080820190506123c26000830187612028565b6123cf6020830186612028565b6123dc604083018561235f565b81810360608301526123ee8184612046565b905095945050505050565b600060208201905061240e6000830184612037565b92915050565b6000602082019050818103600083015261242e818461207f565b905092915050565b6000602082019050818103600083015261244f816120e9565b9050919050565b6000602082019050818103600083015261246f8161210c565b9050919050565b6000602082019050818103600083015261248f8161212f565b9050919050565b600060208201905081810360008301526124af81612152565b9050919050565b600060208201905081810360008301526124cf81612175565b9050919050565b600060208201905081810360008301526124ef81612198565b9050919050565b6000602082019050818103600083015261250f816121bb565b9050919050565b6000602082019050818103600083015261252f816121de565b9050919050565b6000602082019050818103600083015261254f81612201565b9050919050565b6000602082019050818103600083015261256f81612224565b9050919050565b6000602082019050818103600083015261258f81612247565b9050919050565b600060208201905081810360008301526125af8161226a565b9050919050565b600060208201905081810360008301526125cf8161228d565b9050919050565b600060208201905081810360008301526125ef816122b0565b9050919050565b6000602082019050818103600083015261260f816122d3565b9050919050565b6000602082019050818103600083015261262f816122f6565b9050919050565b6000602082019050818103600083015261264f81612319565b9050919050565b6000602082019050818103600083015261266f8161233c565b9050919050565b600060208201905061268b600083018461235f565b92915050565b600061269b6126ac565b90506126a782826128fe565b919050565b6000604051905090565b600067ffffffffffffffff8211156126d1576126d0612a65565b5b6126da82612aa8565b9050602081019050919050565b600067ffffffffffffffff82111561270257612701612a65565b5b61270b82612aa8565b9050602081019050919050565b600081519050919050565b600081519050919050565b600082825260208201905092915050565b600082825260208201905092915050565b600081905092915050565b600061276682612880565b915061277183612880565b9250827fffffffffffffffffffffffffffffffffffffffffffffffffffffffffffffffff038211156127a6576127a56129a9565b5b828201905092915050565b60006127bc82612880565b91506127c783612880565b9250826127d7576127d66129d8565b5b828204905092915050565b60006127ed82612880565b91506127f883612880565b92508282101561280b5761280a6129a9565b5b828203905092915050565b600061282182612860565b9050919050565b60008115159050919050565b60007fffffffff0000000000000000000000000000000000000000000000000000000082169050919050565b600073ffffffffffffffffffffffffffffffffffffffff82169050919050565b6000819050919050565b82818337600083830152505050565b60005b838110156128b757808201518184015260208101905061289c565b838111156128c6576000848401525b50505050565b600060028204905060018216806128e457607f821691505b602082108114156128f8576128f7612a07565b5b50919050565b61290782612aa8565b810181811067ffffffffffffffff8211171561292657612925612a65565b5b80604052505050565b600061293a82612880565b91507fffffffffffffffffffffffffffffffffffffffffffffffffffffffffffffffff82141561296d5761296c6129a9565b5b600182019050919050565b600061298382612880565b915061298e83612880565b92508261299e5761299d6129d8565b5b828206905092915050565b7f4e487b7100000000000000000000000000000000000000000000000000000000600052601160045260246000fd5b7f4e487b7100000000000000000000000000000000000000000000000000000000600052601260045260246000fd5b7f4e487b7100000000000000000000000000000000000000000000000000000000600052602260045260246000fd5b7f4e487b7100000000000000000000000000000000000000000000000000000000600052603260045260246000fd5b7f4e487b7100000000000000000000000000000000000000000000000000000000600052604160045260246000fd5b600080fd5b600080fd5b600080fd5b600080fd5b6000601f19601f8301169050919050565b7f4552433732313a207472616e7366657220746f206e6f6e20455243373231526560008201527f63656976657220696d706c656d656e7465720000000000000000000000000000602082015250565b7f4552433732313a20746f6b656e20616c7265616479206d696e74656400000000600082015250565b7f4552433732313a207472616e7366657220746f20746865207a65726f2061646460008201527f7265737300000000000000000000000000000000000000000000000000000000602082015250565b7f4552433732313a20617070726f766520746f2063616c6c657200000000000000600082015250565b7f4552433732313a206f70657261746f7220717565727920666f72206e6f6e657860008201527f697374656e7420746f6b656e0000000000000000000000000000000000000000602082015250565b7f4552433732313a20617070726f76652063616c6c6572206973206e6f74206f7760008201527f6e6572206e6f7220617070726f76656420666f7220616c6c0000000000000000602082015250565b7f4552433732313a2062616c616e636520717565727920666f7220746865207a6560008201527f726f206164647265737300000000000000000000000000000000000000000000602082015250565b7f4552433732313a206f776e657220717565727920666f72206e6f6e657869737460008201527f656e7420746f6b656e0000000000000000000000000000000000000000000000602082015250565b7f45524337323155524953746f726167653a2055524920736574206f66206e6f6e60008201527f6578697374656e7420746f6b656e000000000000000000000000000000000000602082015250565b7f4552433732313a206d696e7420746f20746865207a65726f2061646472657373600082015250565b7f45524337323155524953746f726167653a2055524920717565727920666f722060008201527f6e6f6e6578697374656e7420746f6b656e000000000000000000000000000000602082015250565b7f4552433732313a20617070726f76656420717565727920666f72206e6f6e657860008201527f697374656e7420746f6b656e0000000000000000000000000000000000000000602082015250565b7f4552433732313a207472616e73666572206f6620746f6b656e2074686174206960008201527f73206e6f74206f776e0000000000000000000000000000000000000000000000602082015250565b7f4552433732314d657461646174613a2055524920717565727920666f72206e6f60008201527f6e6578697374656e7420746f6b656e0000000000000000000000000000000000602082015250565b7f4552433732313a20617070726f76616c20746f2063757272656e74206f776e6560008201527f7200000000000000000000000000000000000000000000000000000000000000602082015250565b7f4552433732313a207472616e736665722063616c6c6572206973206e6f74206f60008201527f776e6572206e6f7220617070726f766564000000000000000000000000000000602082015250565b7f4f6e6c792061646d696e2063616e2063616c6c20746869732066756e6374696f60008201527f6e00000000000000000000000000000000000000000000000000000000000000602082015250565b7f5265656e7472616e637947756172643a207265656e7472616e742063616c6c00600082015250565b612fb881612816565b8114612fc357600080fd5b50565b612fcf81612828565b8114612fda57600080fd5b50565b612fe681612834565b8114612ff157600080fd5b50565b612ffd81612880565b811461300857600080fd5b5056fea2646970667358221220dec0088174dd67b9ef9f51ec0fdc0aecd9ac1ca043d48604f34df50c9dd79e7964736f6c63430008070033",
  "immutableReferences": {},
  "source": "pragma solidity ^0.8.0;\n\nimport \"@openzeppelin/contracts/token/ERC721/ERC721.sol\";\nimport \"@openzeppelin/contracts/token/ERC721/extensions/ERC721URIStorage.sol\";\nimport \"@openzeppelin/contracts/utils/Counters.sol\";\nimport \"@openzeppelin/contracts/security/ReentrancyGuard.sol\";\n\ncontract NFT is ERC721URIStorage, ReentrancyGuard {\n    using Counters for Counters.Counter;\n\n    Counters.Counter private _tokenIds;\n\n    mapping (address => bool) private _verified;\n\n    mapping (uint256 => address) private _creators;\n\n    address private _admin;\n\n    constructor (address admin_) ERC721(\"NFT\", \"NFT\") {\n        _admin = admin_;\n    }\n\n    modifier onlyAdmin {\n        require (\n            msg.sender == _admin,\n            \"Only admin can call this function\"\n        );\n        _;\n    }\n\n    event Mint (\n        uint256 indexed tokenId,\n        address indexed creator,\n        string tokenURI,\n        uint256 timestamp\n    );\n\n    event Verification (\n        address indexed creator,\n        address indexed admin,\n        uint256 timestamp\n    );\n\n    function isVerified(address addr) public view returns (bool) {\n        return _verified[addr];\n    }\n\n    function creatorOf(uint256 tokenId) public view returns (address) \n    {\n        return _creators[tokenId];\n    }\n\n    function mintNFT(string memory tokenURI) \n        public \n        nonReentrant \n        returns (uint256) \n    {\n        _tokenIds.increment();\n\n        uint256 newId = _tokenIds.current();\n        _safeMint(msg.sender, newId);\n        _setTokenURI(newId, tokenURI);\n        _creators[newId] = msg.sender;\n\n        return newId;\n\n        emit Mint(\n            newId,\n            msg.sender,\n            tokenURI,\n            block.timestamp\n        );\n    }\n\n    function verify(address creator) public onlyAdmin {\n        require (!isVerified(creator));\n        _verified[creator] = true;\n\n        emit Verification(\n            creator,\n            msg.sender,\n            block.timestamp\n        );\n    }\n}",
  "sourcePath": "/Users/sherlock/ChainLab/NFTPlayerOne/contracts/NFT.sol",
  "compiler": {
    "name": "solc",
    "version": "0.8.7+commit.e28d00a7.Emscripten.clang"
  },
  "schemaVersion": "3.4.1",
  "updatedAt": "2021-09-07T05:40:54.981Z",
  "networkType": "ethereum",
  "devdoc": {
    "kind": "dev",
    "methods": {
      "approve(address,uint256)": {
        "details": "See {IERC721-approve}."
      },
      "balanceOf(address)": {
        "details": "See {IERC721-balanceOf}."
      },
      "getApproved(uint256)": {
        "details": "See {IERC721-getApproved}."
      },
      "isApprovedForAll(address,address)": {
        "details": "See {IERC721-isApprovedForAll}."
      },
      "name()": {
        "details": "See {IERC721Metadata-name}."
      },
      "ownerOf(uint256)": {
        "details": "See {IERC721-ownerOf}."
      },
      "safeTransferFrom(address,address,uint256)": {
        "details": "See {IERC721-safeTransferFrom}."
      },
      "safeTransferFrom(address,address,uint256,bytes)": {
        "details": "See {IERC721-safeTransferFrom}."
      },
      "setApprovalForAll(address,bool)": {
        "details": "See {IERC721-setApprovalForAll}."
      },
      "supportsInterface(bytes4)": {
        "details": "See {IERC165-supportsInterface}."
      },
      "symbol()": {
        "details": "See {IERC721Metadata-symbol}."
      },
      "tokenURI(uint256)": {
        "details": "See {IERC721Metadata-tokenURI}."
      },
      "transferFrom(address,address,uint256)": {
        "details": "See {IERC721-transferFrom}."
      }
    },
    "version": 1
  },
  "userdoc": {
    "kind": "user",
    "methods": {},
    "version": 1
  }
}